{
  "_format": "hh-sol-artifact-1",
  "contractName": "FlappyOwlGovernor",
  "sourceName": "contracts/utils/FlappyOwlGovernor.sol",
  "abi": [
    {
      "inputs": [
        {
          "internalType": "address",
          "name": "_tokenAddress",
          "type": "address"
        },
        {
          "internalType": "address",
          "name": "_lpStakingAddress",
          "type": "address"
        },
        {
          "internalType": "address",
          "name": "_nftStakingAddress",
          "type": "address"
        },
        {
          "internalType": "uint256",
          "name": "_initialRewardPerBlock",
          "type": "uint256"
        }
      ],
      "stateMutability": "nonpayable",
      "type": "constructor"
    },
    {
      "inputs": [],
      "name": "FlappyOwlPos__ItemAlreadyStaked",
      "type": "error"
    },
    {
      "inputs": [],
      "name": "FlappyOwlPos__NotItemOwner",
      "type": "error"
    },
    {
      "inputs": [],
      "name": "NotAuthenticNfts",
      "type": "error"
    },
    {
      "inputs": [],
      "name": "NotHavePoolPosition",
      "type": "error"
    },
    {
      "inputs": [],
      "name": "NotHaveStakedNfts",
      "type": "error"
    },
    {
      "anonymous": false,
      "inputs": [
        {
          "indexed": true,
          "internalType": "address",
          "name": "owner",
          "type": "address"
        },
        {
          "indexed": true,
          "internalType": "uint256",
          "name": "reward",
          "type": "uint256"
        },
        {
          "indexed": true,
          "internalType": "uint256",
          "name": "blockclaimed",
          "type": "uint256"
        }
      ],
      "name": "Claimed",
      "type": "event"
    },
    {
      "anonymous": false,
      "inputs": [
        {
          "indexed": true,
          "internalType": "uint256",
          "name": "_newBlockReward",
          "type": "uint256"
        },
        {
          "indexed": false,
          "internalType": "uint256",
          "name": "_newHalvingBlock",
          "type": "uint256"
        }
      ],
      "name": "HalvingReward",
      "type": "event"
    },
    {
      "anonymous": false,
      "inputs": [
        {
          "indexed": true,
          "internalType": "address",
          "name": "previousOwner",
          "type": "address"
        },
        {
          "indexed": true,
          "internalType": "address",
          "name": "newOwner",
          "type": "address"
        }
      ],
      "name": "OwnershipTransferred",
      "type": "event"
    },
    {
      "inputs": [],
      "name": "_genesisSupplyFRC",
      "outputs": [],
      "stateMutability": "nonpayable",
      "type": "function"
    },
    {
      "inputs": [
        {
          "internalType": "address",
          "name": "_user",
          "type": "address"
        }
      ],
      "name": "claimReward",
      "outputs": [
        {
          "internalType": "bool",
          "name": "",
          "type": "bool"
        }
      ],
      "stateMutability": "nonpayable",
      "type": "function"
    },
    {
      "inputs": [
        {
          "internalType": "address",
          "name": "_user",
          "type": "address"
        }
      ],
      "name": "getUnclaimedRewards",
      "outputs": [
        {
          "internalType": "uint256",
          "name": "",
          "type": "uint256"
        }
      ],
      "stateMutability": "nonpayable",
      "type": "function"
    },
    {
      "inputs": [],
      "name": "initialSupply",
      "outputs": [
        {
          "internalType": "uint256",
          "name": "",
          "type": "uint256"
        }
      ],
      "stateMutability": "view",
      "type": "function"
    },
    {
      "inputs": [],
      "name": "initialSupplyMinted",
      "outputs": [
        {
          "internalType": "bool",
          "name": "",
          "type": "bool"
        }
      ],
      "stateMutability": "view",
      "type": "function"
    },
    {
      "inputs": [
        {
          "internalType": "address",
          "name": "",
          "type": "address"
        }
      ],
      "name": "lastClaimBlock",
      "outputs": [
        {
          "internalType": "uint256",
          "name": "",
          "type": "uint256"
        }
      ],
      "stateMutability": "view",
      "type": "function"
    },
    {
      "inputs": [],
      "name": "lastHalvingBlock",
      "outputs": [
        {
          "internalType": "uint256",
          "name": "",
          "type": "uint256"
        }
      ],
      "stateMutability": "view",
      "type": "function"
    },
    {
      "inputs": [],
      "name": "owner",
      "outputs": [
        {
          "internalType": "address",
          "name": "",
          "type": "address"
        }
      ],
      "stateMutability": "view",
      "type": "function"
    },
    {
      "inputs": [],
      "name": "renounceOwnership",
      "outputs": [],
      "stateMutability": "nonpayable",
      "type": "function"
    },
    {
      "inputs": [],
      "name": "rewardPerBlock",
      "outputs": [
        {
          "internalType": "uint256",
          "name": "",
          "type": "uint256"
        }
      ],
      "stateMutability": "view",
      "type": "function"
    },
    {
      "inputs": [
        {
          "internalType": "address",
          "name": "newOwner",
          "type": "address"
        }
      ],
      "name": "transferOwnership",
      "outputs": [],
      "stateMutability": "nonpayable",
      "type": "function"
    },
    {
      "inputs": [
        {
          "internalType": "address",
          "name": "_lpStakingAddress",
          "type": "address"
        }
      ],
      "name": "updateLiquidityStakingInterface",
      "outputs": [],
      "stateMutability": "nonpayable",
      "type": "function"
    },
    {
      "inputs": [
        {
          "internalType": "address",
          "name": "_nftStakingAddress",
          "type": "address"
        }
      ],
      "name": "updateNftStakingInterface",
      "outputs": [],
      "stateMutability": "nonpayable",
      "type": "function"
    },
    {
      "inputs": [
        {
          "internalType": "address",
          "name": "_tokenAddress",
          "type": "address"
        }
      ],
      "name": "updateTokenInterface",
      "outputs": [],
      "stateMutability": "nonpayable",
      "type": "function"
    }
  ],
  "bytecode": "0x6080346200025657601f62000f1c38819003918201601f19168301916001600160401b038311848410176200025b5780849260809460405283398101031262000256576200004d8162000291565b6020906200005d82840162000291565b9260606200006e6040830162000291565b91015160008054336001600160a01b031980831682178455939793966001600160a01b03969394939290919087167f8be0079c531659141344cd1fd0a4f28419497f9722a3daafe3b4186f6b6457e08680a36001908180556a115eec47f6cf7e35000000600555620000df62000271565b9473ee66bda0bc2c9ab72127ce90944b4048775f5fd9865273ee5a230528b70c6caa1cd17fa54aea481241deaa82870152738e14398d793938a3e17852320cb97d1479a05feb6040870152600a549560039687600a5580881062000238575b50600a82528282209084835b8981106200022357505050506200016062000271565b600f8152601983820152603c6040820152600b5487600b5580881062000205575b50600b82528282208996959493925b888110620001f05750505050508290620001a9620002bf565b16866002541617600255620001bd620002bf565b1684825416179055620001cf620002bf565b1690600454161760045560075543600855604051610c039081620003198239f35b8251818301558a975091830191840162000190565b600b83528383206200021c918101908901620002a6565b3862000181565b858c845116930192818501550185906200014a565b600a83528383206200024f918101908901620002a6565b386200013e565b600080fd5b634e487b7160e01b600052604160045260246000fd5b60405190606082016001600160401b038111838210176200025b57604052565b51906001600160a01b03821682036200025657565b818110620002b2575050565b60008155600101620002a6565b6000546001600160a01b03163303620002d457565b606460405162461bcd60e51b815260206004820152602060248201527f4f776e61626c653a2063616c6c6572206973206e6f7420746865206f776e65726044820152fdfe6040608081526004908136101561001557600080fd5b600091823560e01c90816321253ab3146107825781633511947814610741578163378dc3dc1461072257816343221a05146106d957816369a69e2914610648578163715018a6146105ee578163724b2f5a146105cf5781638ae39cac146105b05781638da5cb5b14610588578163959237bb146103c2578163d279c191146101ec578163e93a6c90146101b2578163f2fde38b146100e3575063fc2ab6f2146100bd57600080fd5b346100df57816003193601126100df5760209060ff6006541690519015158152f35b5080fd5b919050346101ae5760203660031901126101ae576001600160a01b038235818116939192908490036101aa576101176107cb565b831561015857505082546001600160a01b0319811683178455167f8be0079c531659141344cd1fd0a4f28419497f9722a3daafe3b4186f6b6457e08380a380f35b906020608492519162461bcd60e51b8352820152602660248201527f4f776e61626c653a206e6577206f776e657220697320746865207a65726f206160448201526564647265737360d01b6064820152fd5b8480fd5b8280fd5b9050346101ae5760203660031901126101ae57356001600160a01b038116908190036101ae57828291602094526009845220549051908152f35b8284346103bf57602092836003193601126100df576001600160a01b038135818116949192908581036101aa576102228161085b565b938415610383578588828554166024875180948193635a86b61f60e01b83528d8a8401525af1801561035c57610366575b5085888260035416602487518094819363848cde0d60e01b83528d8a8401525af1801561035c57928787936102cb96938c9661033f575b508a825260098652438883205560025416928751968795869485936340c10f1960e01b8552840160209093929193604081019460018060a01b031681520152565b03925af1801561033557610308575b5051927f987d620f307ff6b94d58743cb7a7509f24071586a77759b77c2d4e29f75a2f9a439380a460018152f35b61032790863d881161032e575b61031f8183610823565b810190610bb0565b50856102da565b503d610315565b82513d86823e3d90fd5b61035590873d891161032e5761031f8183610823565b508c61028a565b85513d89823e3d90fd5b61037c90893d8b1161032e5761031f8183610823565b5088610253565b835162461bcd60e51b815280840189905260166024820152754e6f20726577617264732c20666f7220636c61696d2160501b6044820152606490fd5b80fd5b919050346101ae57826003193601126101ae576103dd6107cb565b600a918254916006549360ff8516610545576001809560ff191617600655855b848110610408578680f35b8154811015610532577fc65a7bb8d6351c1cf70c95a316cc6a92839c986682d98bc35f958f4883f9d2a8810154600b80546001600160a01b0392831692919084101561051f576104c38a92889284526064610489877f0175b7a638427703f0dbe7bb9bbf987a2551717b34e79f33b5b1008d1fa01db9015460055490610b7d565b0490600254169088519485809481936340c10f1960e01b83526020998a98840160209093929193604081019460018060a01b031681520152565b03925af18015610515576104f7575b505060001981146104e45785016103fd565b634e487b7160e01b875260118452602487fd5b8161050d92903d1061032e5761031f8183610823565b5038806104d2565b85513d8b823e3d90fd5b634e487b7160e01b8a526032875260248afd5b634e487b7160e01b875260328452602487fd5b815162461bcd60e51b8152602081850152601a60248201527f496e697469616c20537570706c7920486173204d696e746564210000000000006044820152606490fd5b5050346100df57816003193601126100df57905490516001600160a01b039091168152602090f35b5050346100df57816003193601126100df576020906007549051908152f35b5050346100df57816003193601126100df576020906008549051908152f35b83346103bf57806003193601126103bf576106076107cb565b80546001600160a01b03198116825581906001600160a01b03167f8be0079c531659141344cd1fd0a4f28419497f9722a3daafe3b4186f6b6457e08280a380f35b839150346100df5760203660031901126100df578035916001600160a01b039081841684036103bf5750806003541633149081156106cc575b501561069a576020836106938461085b565b9051908152f35b606490602084519162461bcd60e51b8352820152600c60248201526b556e617574686f72697a652160a01b6044820152fd5b9050815416331484610681565b8390346100df5760203660031901126100df57356001600160a01b038116908190036100df576107076107cb565b6bffffffffffffffffffffffff60a01b600254161760025580f35b5050346100df57816003193601126100df576020906005549051908152f35b8390346100df5760203660031901126100df5780356001600160a01b038116908190036101ae576107706107cb565b81546001600160a01b03191617905580f35b8390346100df5760203660031901126100df57356001600160a01b038116908190036100df576107b06107cb565b6bffffffffffffffffffffffff60a01b600354161760035580f35b6000546001600160a01b031633036107df57565b606460405162461bcd60e51b815260206004820152602060248201527f4f776e61626c653a2063616c6c6572206973206e6f7420746865206f776e65726044820152fd5b90601f8019910116810190811067ffffffffffffffff82111761084557604052565b634e487b7160e01b600052604160045260246000fd5b90600754600854906127106108708343610b70565b049080929180610b37575b508211610afd575b505060035460408051633202cedd60e21b81526001600160a01b039485166004808301829052959093919291811691906020908185602481875afa948515610a7e57600095610ace575b50875416825193639bd6ea9d60e01b855286898601528285602481855afa948515610ac357908994939291600096610a89575b5082908451958680926302f37e2160e41b82525afa938415610a7e5790899594939291600094610a44575b5081908351968780926347323c7560e11b82525afa948515610a3957600095610a09575b509060096109699260075498600052526000205443610b70565b936046860286158782046046148117156109f457601e8802978804601e1417156109df576109ac6109a7936109a76109b39796946064809504610b7d565b610b90565b9604610b7d565b82018092116109ca576109c7929350610b7d565b90565b601184634e487b7160e01b6000525260246000fd5b601189634e487b7160e01b6000525260246000fd5b60118a634e487b7160e01b6000525260246000fd5b90948582813d8311610a32575b610a208183610823565b810103126103bf57505193600961094f565b503d610a16565b82513d6000823e3d90fd5b918093949195965082813d8311610a77575b610a608183610823565b810103126103bf575051889493909291908161092b565b503d610a56565b83513d6000823e3d90fd5b91928094955082819792973d8311610abc575b610aa68183610823565b810103126103bf57505193889392919082610900565b503d610a9c565b84513d6000823e3d90fd5b90948282813d8311610af6575b610ae58183610823565b810103126103bf57505193386108cd565b503d610adb565b60207f93d6e1f54b2c04b4576f4259d586d24100d33c61b24c3747f929ec67c366789e918360075580600855604051908152a23880610883565b60ff91935080925011610b5a576001610b51911b82610b90565b9043903861087b565b634e487b7160e01b600052601160045260246000fd5b91908203918211610b5a57565b81810292918115918404141715610b5a57565b8115610b9a570490565b634e487b7160e01b600052601260045260246000fd5b90816020910312610bc857518015158103610bc85790565b600080fdfea264697066735822122038786320ae8b10a0d94b1a7bc2f3434d5859f5650708285160378d18d33d065164736f6c63430008110033",
  "linkReferences": {},
  "deployedLinkReferences": {}
}