{
  "_format": "hh-sol-artifact-1",
  "contractName": "NftFactory",
  "sourceName": "contracts/utils/NftFactory.sol",
  "abi": [
    {
      "inputs": [
        {
          "internalType": "uint256",
          "name": "tokenId",
          "type": "uint256"
        },
        {
          "internalType": "uint256",
          "name": "seed",
          "type": "uint256"
        }
      ],
      "name": "tokenURI",
      "outputs": [
        {
          "internalType": "string",
          "name": "",
          "type": "string"
        }
      ],
      "stateMutability": "pure",
      "type": "function"
    }
  ],
  "bytecode": "0x60808060405234610016576124e9908161001c8239f35b600080fdfe604060808152600436101561001357600080fd5b60003560e01c6392cb829d1461002857600080fd5b346106325780600319360112610632576024359061004461073c565b64e8d4a51000655af3107a4000918183860604908181526020958692838301926305f5e100906402540be40096828886060486528982019761271094620f42409386858906048b526060019a606488068c528704906100a291610e10565b965191860604906100b291611f08565b965191840604906100c291612251565b9551910660649004906100d4916123e2565b815194845195815183516100e66107b1565b918a51998a94898601610169906057907f3c7376672077696474683d2233323022206865696768743d223332302220766981527f6577426f783d2230203020333230203332302220786d6c6e733d22687474703a60208201527f2f2f7777772e77332e6f72672f323030302f737667223e00000000000000000060408201520190565b7f3c726563742077696474683d223130302522206865696768743d223130302522815270103334b6361e9111a3231818181811179f60791b60208201526031017f3c7465787420783d223137302220793d223133302220666f6e742d66616d696c81527f793d22436f75726965722c6d6f6e6f73706163652220666f6e742d776569676860208201527f743d223730302220666f6e742d73697a653d2232302220746578742d616e636860408201527f6f723d226d6964646c6522206c65747465722d73706163696e673d2231223e006060820152607f017f3c616e696d617465206174747269627574654e616d653d226479222076616c7581527f65733d22303b35303b3022206475723d2233732220726570656174436f756e7460208201526f1e9134b73232b334b734ba329110179f60811b60408201526050016102af916107d3565b6102b8916107d3565b6102c1916107d3565b6102ca916107d3565b661e17ba32bc3a1f60c91b81526007016102e3916107d3565b0395601f199687810182526102f890826106fe565b61030190610a87565b9061030a6107ea565b936103166004356108a9565b96868a818401519301510151878b81840151930151015192888c81870151960151015195898d818a01519901510151988d519b8c9b8c0161035f90600190607b60f81b81520190565b7f226e616d65223a22466c61707079204f776c2d546573746e65742023000000008152601c0161038e916107d3565b61088b60f21b81526002016e113232b9b1b934b83a34b7b7111d1160891b8152600f016103ba916107d3565b61088b60f21b8152600201691134b6b0b3b2911d101160b11b8152600a017f646174613a696d6167652f7376672b786d6c3b6261736536342c0000000000008152601a01610407916107d3565b61088b60f21b81526002017f2261747472696275746573223a205b7b2274726169745f74797065223a20224881526f32b0b2111610113b30b63ab2911d101160811b602082015260300161045a916107d3565b61040560f31b815260020161046e916107d3565b602960f81b815260010162089f4b60ea1b81526003017f7b2274726169745f74797065223a202246616365222c202276616c7565223a208152601160f91b60208201526021016104bd916107d3565b61040560f31b81526002016104d1916107d3565b602960f81b815260010162089f4b60ea1b81526003017f7b2274726169745f74797065223a2022426f6479222c202276616c7565223a208152601160f91b6020820152602101610520916107d3565b61040560f31b8152600201610534916107d3565b602960f81b815260010162089f4b60ea1b81526003017f7b2274726169745f74797065223a2022466f6f74222c202276616c7565223a208152601160f91b6020820152602101610583916107d3565b61040560f31b8152600201610597916107d3565b602960f81b815260010161227d60f01b8152600201605d60f81b8152600101607d60f81b81526001010382810182526105d090826106fe565b6105d990610a87565b82517f646174613a6170706c69636174696f6e2f6a736f6e3b6261736536342c00000094810194855293849190601d01610612916107d3565b03908101835261062290836106fe565b5161062e81928261065a565b0390f35b600080fd5b60005b83811061064a5750506000910152565b818101518382015260200161063a565b6040916020825261067a8151809281602086015260208686019101610637565b601f01601f1916010190565b50634e487b7160e01b600052604160045260246000fd5b6060810190811067ffffffffffffffff8211176106b957604052565b6106c1610686565b604052565b6040810190811067ffffffffffffffff8211176106b957604052565b6020810190811067ffffffffffffffff8211176106b957604052565b90601f8019910116810190811067ffffffffffffffff8211176106b957604052565b6040519061072d8261069d565b565b6040519061072d826106c6565b604051906080820182811067ffffffffffffffff8211176106b957604052565b50634e487b7160e01b600052601160045260246000fd5b60209067ffffffffffffffff8111610791575b601f01601f19160190565b610799610686565b610786565b604051906107ab826106e2565b60008252565b604051906107be826106c6565b60068252651e17b9bb339f60d11b6020830152565b906107e660209282815194859201610637565b0190565b604051906080820182811067ffffffffffffffff82111761086a575b60405260468252651031b7b4b71760d11b6060837f466c61707079204f776c20546573746e65742c2074686973206e66742069732060208201527f7574696c6974792065636f73797374656d20666f72206d696e696e672046524360408201520152565b610872610686565b610806565b9061088182610773565b61088e60405191826106fe565b828152809261089f601f1991610773565b0190602036910137565b806000917a184f03e93ff9f4daa797ed6e38ed64bf6a1f010000000000000000808210156109de575b506d04ee2d6d415b85acef8100000000808310156109cf575b50662386f26fc10000808310156109c0575b506305f5e100808310156109b1575b50612710808310156109a2575b506064821015610992575b600a80921015610988575b600190816021610940828701610877565b95860101905b610952575b5050505090565b600019019083906f181899199a1a9b1b9c1cb0b131b232b360811b8282061a83530491821561098357919082610946565b61094b565b916001019161092f565b9190606460029104910191610924565b60049193920491019138610919565b6008919392049101913861090c565b601091939204910191386108fd565b602091939204910191386108eb565b6040935081049150386108d2565b604051906109f98261069d565b604082527f6768696a6b6c6d6e6f707172737475767778797a303132333435363738392b2f6040837f4142434445464748494a4b4c4d4e4f505152535455565758595a61626364656660208201520152565b9060028201809211610a5957565b61072d61075c565b9060208201809211610a5957565b600281901b91906001600160fe1b03811603610a5957565b805115610b6757610a966109ec565b610ab2610aad610aa68451610a4b565b6003900490565b610a6f565b91610ac4610abf84610a61565b610877565b92835280815182019060208501935b828210610b1557505050600390510680600114610b0457600214610af5575090565b603d60f81b6000199091015290565b50613d3d60f01b6001199091015290565b9091936004906003809401938451600190603f9082828260121c16880101518553828282600c1c16880101518386015382828260061c1688010151600286015316850101519082015301939190610ad3565b50610b7061079e565b90565b604051906040820182811067ffffffffffffffff821117610b9e575b60405260606020838281520152565b610ba6610686565b610b8f565b604051906060820182811067ffffffffffffffff821117610be5575b6040528160608152606060208201526040610be0610b73565b910152565b610bed610686565b610bc7565b60405190610bff826106c6565b6004825263272d2d2760e01b6020830152565b60405190610c1f826106c6565b6004825263119b185d60e21b6020830152565b60405190610c3f826106c6565b600682526528282829292960d01b6020830152565b60405190610c61826106c6565b600982526854776f20426c6f636b60b81b6020830152565b60405190610c86826106c6565b60068252653d2a3d3d2a3d60d01b6020830152565b60405190610ca8826106c6565b60088252675069677461696c7360c01b6020830152565b60405190610ccc826106c6565b60038252622f2f2f60e81b6020830152565b60405190610ceb826106c6565b600482526350756e6b60e01b6020830152565b60405190610d0b826106c6565b6005825264285c5f2f2960d81b6020830152565b60405190610d2c826106c6565b6008825267466561746865727360c01b6020830152565b60405190610d50826106c6565b60048252632f2d2d2f60e01b6020830152565b60405190610d70826106c6565b6005825264486f726e7360d81b6020830152565b60405190610d91826106c6565b60038252623f3f3f60e91b6020830152565b60405190610db0826106c6565b600a82526921bab9363c903430b4b960b11b6020830152565b60405190610dd6826106c6565b600382526217171760ea1b6020830152565b60405190610df5826106c6565b600c82526b526576657273652050756e6b60a01b6020830152565b610e25610eae92610e1f610bab565b5061186d565b9060608091600a8114610fad575b600b8114610f94575b600c8114610f7b575b600d8114610f62575b600e8114610f49575b600f8114610f30575b60108114610f13575b601114610ef6575b610ede90610ed0610ebc855192610ea8604051988995610ea860208801600d906c1e3a39b830b7103334b6361e9160991b81520190565b906107d3565b61111f60f11b815260020190565b671e17ba39b830b71f60c11b815260080190565b03601f1981018552846106fe565b610ee6610720565b9283526020830152604082015290565b5050610f00610dc9565b610ede610f0b610de8565b919050610e71565b915050610f1e610d84565b6011610f28610da3565b929050610e69565b915050610f3b610d43565b610f43610d63565b91610e60565b915050610f54610cfe565b610f5c610d1f565b91610e57565b915050610f6d610cbf565b610f75610cde565b91610e4e565b915050610f86610c79565b610f8e610c9b565b91610e45565b915050610f9f610c32565b610fa7610c54565b91610e3c565b915050610fb8610bf2565b610fc0610c12565b91610e33565b60405190610fd3826106c6565b60078252660233030303030360cc1b6020830152565b60405190610ff6826106c6565b6005825264426c61636b60d81b6020830152565b60405190611017826106c6565b60078252661198182123232360c91b6020830152565b6040519061103a826106c6565b60088252674465657020536b7960c01b6020830152565b6040519061105e826106c6565b60078252662334313639453160c81b6020830152565b60405190611081826106c6565b600a825269526f79616c20426c756560b01b6020830152565b604051906110a7826106c6565b60078252661198183333333360c91b6020830152565b604051906110ca826106c6565b60048252634171756160e01b6020830152565b604051906110ea826106c6565b6007825266119831311a333360c91b6020830152565b6040519061110d826106c6565b6009825268109b1d5948109bdb1d60ba1b6020830152565b60405190611132826106c6565b600782526611989c1a99b33360c91b6020830152565b60405190611155826106c6565b600882526721363ab290292ca160c11b6020830152565b60405190611179826106c6565b60078252662333356434333560c81b6020830152565b6040519061119c826106c6565b600c82526b2430b1b5b2b91023b932b2b760a11b6020830152565b604051906111c4826106c6565b60078252662336316666373560c81b6020830152565b604051906111e7826106c6565b600e82526d29b1b932b0b6b4b71023b932b2b760911b6020830152565b60405190611211826106c6565b60078252660233030626661360cc1b6020830152565b60405190611234826106c6565b600f82526e21b0b934b13132b0b71023b932b2b760891b6020830152565b6040519061125f826106c6565b60078252660236666613330360cc1b6020830152565b60405190611282826106c6565b60068252654f72616e676560d01b6020830152565b604051906112a4826106c6565b600782526611a3209c181b9960c91b6020830152565b604051906112c7826106c6565b600682526529b0b636b7b760d11b6020830152565b604051906112e9826106c6565b60078252660236430663430360cc1b6020830152565b6040519061130c826106c6565b60048252634c696d6560e01b6020830152565b6040519061132c826106c6565b60078252662339623139663560c81b6020830152565b6040519061134f826106c6565b600a825269507572706c652058313160b01b6020830152565b60405190611375826106c6565b600782526611b3333333333360c91b6020830152565b60405190611398826106c6565b6005825264576869746560d81b6020830152565b604051906113b9826106c6565b600782526611b31a1b309cb160c91b6020830152565b604051906113dc826106c6565b600882526721bcb1b630b6b2b760c11b6020830152565b60405190611400826106c6565b60078252662339343030443360c81b6020830152565b60405190611423826106c6565b600b82526a11185c9ac8159a5bdb195d60aa1b6020830152565b6040519061144a826106c6565b60078252662346464534423560c81b6020830152565b6040519061146d826106c6565b600882526726b7b1b1b0b9b4b760c11b6020830152565b60405190611491826106c6565b60078252662346434537344360c81b6020830152565b604051906114b4826106c6565b600682526514185cdd195b60d21b6020830152565b604051906114d6826106c6565b60078252662365656565656560c81b6020830152565b604051906114f9826106c6565b600b82526a427269676874204772617960a81b6020830152565b60405190611520826106c6565b60078252660233730383039360cc1b6020830152565b60405190611543826106c6565b600a82526953616c7465206772617960b01b6020830152565b60405190611569826106c6565b60078252660233746464630360cc1b6020830152565b6040519061158c826106c6565b600a8252694368617274726575736560b01b6020830152565b604051906115b2826106c6565b600782526611a0a22323192360c91b6020830152565b604051906115d5826106c6565b600c82526b477265656e2059656c6c6f7760a01b6020830152565b604051906115fd826106c6565b600782526608d111104c111160ca1b6020830152565b60405190611620826106c6565b6004825263506c756d60e01b6020830152565b60405190611640826106c6565b60078252662338374345464160c81b6020830152565b60405190611663826106c6565b600d82526c4c69676874736b7920426c756560981b6020830152565b6040519061168c826106c6565b600782526604672708c8472760cb1b6020830152565b604051906116af826106c6565b600a8252692830b6329023b932b2b760b11b6020830152565b604051906116d5826106c6565b600782526608cdd19191910d60ca1b6020830152565b604051906116f8826106c6565b600a825269417175616d6172696e6560b01b6020830152565b6040519061171e826106c6565b60078252660234646443730360cc1b6020830152565b60405190611741826106c6565b600482526311dbdb1960e21b6020830152565b60405190611761826106c6565b600782526608cc0c0c0c8ccd60ca1b6020830152565b60405190611784826106c6565b600982526804e61767920446565760bc1b6020830152565b604051906117a9826106c6565b600782526608d1918d8e508d60ca1b6020830152565b604051906117cc826106c6565b6008825267486f742050696e6b60c01b6020830152565b604051906117f0826106c6565b6007825266119a981b98333360c91b6020830152565b60405190611813826106c6565b600782526621b934b6b9b7b760c91b6020830152565b60405190611836826106c6565b60078252662366666665656560c81b6020830152565b60405190611859826106c6565b6005825264437265616d60d81b6020830152565b611875610b73565b50600a8114611ccb57600b8114611cb057600c8114611c9557600d8114611c7a57600e8114611c5f57600f8114611c445760108114611c295760118114611c0e5760128114611bf35760138114611bd85760148114611bbd5760158114611ba25760168114611b875760178114611b6c5760188114611b515760198114611b3657601a8114611b1b57601b8114611b0057601c8114611ae557601d8114611aca57601e8114611aaf57601f8114611a8c57602090818114611a705760218114611a545760228114611a385760238114611a1c5760248114611a0057602581146119e457602681146119c857602781146119ac576028146119915761197761072f565b9061198061079e565b825261198a61079e565b9082015290565b61199961072f565b906119a2611829565b825261198a61184c565b506119b561072f565b906119be6117e3565b825261198a611806565b506119d161072f565b906119da61179c565b825261198a6117bf565b506119ed61072f565b906119f6611754565b825261198a611777565b50611a0961072f565b90611a12611711565b825261198a611734565b50611a2561072f565b90611a2e6116c8565b825261198a6116eb565b50611a4161072f565b90611a4a61167f565b825261198a6116a2565b50611a5d61072f565b90611a66611633565b825261198a611656565b50611a7961072f565b90611a826115f0565b825261198a611613565b50611a9561072f565b611a9d6115a5565b8152611aa76115c8565b602082015290565b50611ab861072f565b611ac061155c565b8152611aa761157f565b50611ad361072f565b611adb611513565b8152611aa7611536565b50611aee61072f565b611af66114c9565b8152611aa76114ec565b50611b0961072f565b611b11611484565b8152611aa76114a7565b50611b2461072f565b611b2c61143d565b8152611aa7611460565b50611b3f61072f565b611b476113f3565b8152611aa7611416565b50611b5a61072f565b611b626113ac565b8152611aa76113cf565b50611b7561072f565b611b7d611368565b8152611aa761138b565b50611b9061072f565b611b9861131f565b8152611aa7611342565b50611bab61072f565b611bb36112dc565b8152611aa76112ff565b50611bc661072f565b611bce611297565b8152611aa76112ba565b50611be161072f565b611be9611252565b8152611aa7611275565b50611bfc61072f565b611c04611204565b8152611aa7611227565b50611c1761072f565b611c1f6111b7565b8152611aa76111da565b50611c3261072f565b611c3a61116c565b8152611aa761118f565b50611c4d61072f565b611c55611125565b8152611aa7611148565b50611c6861072f565b611c706110dd565b8152611aa7611100565b50611c8361072f565b611c8b61109a565b8152611aa76110bd565b50611c9e61072f565b611ca6611051565b8152611aa7611074565b50611cb961072f565b611cc161100a565b8152611aa761102d565b50611cd461072f565b611cdc610fc6565b8152611aa7610fe9565b60405190611cf3826106c6565b6005825264286f2c6f2960d81b6020830152565b60405190611d14826106c6565b600982526822bcb2b99037b832b760b91b6020830152565b60405190611d39826106c6565b6005825264282d2c2d2960d81b6020830152565b60405190611d5a826106c6565b6008825267536c656570696e6760c01b6020830152565b60405190611d7e826106c6565b6005825264286f2c2d2960d81b6020830152565b60405190611d9f826106c6565b600482526357696e6b60e01b6020830152565b60405190611dbf826106c6565b6005825264286f2c4f2960d81b6020830152565b60405190611de0826106c6565b600a825269537573706963696f757360b01b6020830152565b60405190611e06826106c6565b6005825264285e2c5e2960d81b6020830152565b60405190611e27826106c6565b6005825264536d696c6560d81b6020830152565b60405190611e48826106c6565b6005825264286f2d6f2960d81b6020830152565b60405190611e69826106c6565b6007825266476c617373657360c81b6020830152565b60405190611e8c826106c6565b60058252645b3d2c3d5d60d81b6020830152565b60405190611ead826106c6565b6005825264149bd89bdd60da1b6020830152565b60405190611ece826106c6565b600582526428242c242960d81b6020830152565b60405190611eef826106c6565b600a8252695768656e204c616d626f60b01b6020830152565b611f17610eae92610e1f610bab565b9060608091600a811461205e575b600b8114612045575b600c811461202c575b600d8114612013575b600e8114611ffa575b600f8114611fdd575b60101480611fc4575b611fa7575b610ede90610ed0610ebc855192610ea8604051988995610ea860208801601d907f3c747370616e2064793d2232302220783d22313730222066696c6c3d2200000081520190565b5050611fb1611ec1565b610ede611fbc611ee2565b919050611f60565b915050611fcf611e7f565b611fd7611ea0565b91611f5b565b915050611fe8611e3b565b6010611ff2611e5c565b929050611f52565b915050612005611df9565b61200d611e1a565b91611f49565b91505061201e611db2565b612026611dd3565b91611f40565b915050612037611d71565b61203f611d92565b91611f37565b915050612050611d2c565b612058611d4d565b91611f2e565b915050612069611ce6565b612071611d07565b91611f25565b60405190612084826106c6565b600b82526a0bcbcbd6c80e8b5757171760aa1b6020830152565b604051906120ab826106c6565b600b82526a0bcbcbded714cbdf57171760aa1b6020830152565b604051906120d2826106c6565b60048252635377616760e01b6020830152565b604051906120f2826106c6565b600b82526a0bcbcbdecf5f0f5f57171760aa1b6020830152565b60405190612119826106c6565b600882526726bab9b1bab630b960c11b6020830152565b6040519061213d826106c6565b600b82526a0bcbcbca170acbca57171760aa1b6020830152565b60405190612164826106c6565b6006825265141c9a595cdd60d21b6020830152565b60405190612186826106c6565b600b82526a0bcbcbdec80e9f9f57171760aa1b6020830152565b604051906121ad826106c6565b600582526414da1a5c9d60da1b6020830152565b604051906121ce826106c6565b600b82526a0bcbcbded70e8bdf57171760aa1b6020830152565b604051906121f5826106c6565b600482526314dd5a5d60e21b6020830152565b60405190612215826106c6565b600b82526a0bcbcbded70a8bdf57171760aa1b6020830152565b6040519061223c826106c6565b60068252654d6564616c7360d01b6020830152565b612260610eae92610e1f610bab565b9060608091600a8114612388575b600b811461236f575b600c8114612356575b600d811461233d575b600e8114612324575b600f8114612307575b6010146122ea575b610ede90610ed0610ebc855192610ea8604051988995610ea860208801601d907f3c747370616e2064793d2232352220783d22313730222066696c6c3d2200000081520190565b50506122f4612208565b610ede6122ff61222f565b9190506122a3565b9150506123126121c1565b601061231c6121e8565b92905061229b565b91505061232f612179565b6123376121a0565b91612292565b915050612348612130565b612350612157565b91612289565b9150506123616120e5565b61236961210c565b91612280565b91505061237a61209e565b6123826120c5565b91612277565b915050612393612077565b61239b610d1f565b9161226e565b604051906123ae826106c6565b600382526211101160e91b6020830152565b604051906123cd826106c6565b6006825265139bdc9b585b60d21b6020830152565b6123f1610eae92610e1f610bab565b9060608091600a8114612462575b600b1461244d57610ede90610ed0610ebc855192610ea8604051988995610ea860208801601d907f3c747370616e2064793d2232352220783d22313730222066696c6c3d2200000081520190565b50506124576123a1565b610ede6122ff6123c0565b915050604051612471816106c6565b60058152643f113f113f60d91b6020820152604051600b90612492816106c6565b600c81526b121bdb191a5b99c8199bdbd960a21b60208201529290506123ff56fea2646970667358221220b0434f9f254b334b53927a19ef0eb4c6d74fa5f3c7e94c92a60ce9fe6b4f1af764736f6c63430008110033",
  "linkReferences": {},
  "deployedLinkReferences": {}
}