{
  "_format": "hh-sol-artifact-1",
  "contractName": "FlappyOwlNftTestnet",
  "sourceName": "contracts/NFT/FlappyOwlNftTestnet.sol",
  "abi": [
    {
      "inputs": [
        {
          "internalType": "contract INftFactory",
          "name": "newFactory",
          "type": "address"
        }
      ],
      "stateMutability": "nonpayable",
      "type": "constructor"
    },
    {
      "inputs": [],
      "name": "ApprovalCallerNotOwnerNorApproved",
      "type": "error"
    },
    {
      "inputs": [],
      "name": "ApprovalQueryForNonexistentToken",
      "type": "error"
    },
    {
      "inputs": [],
      "name": "BalanceQueryForZeroAddress",
      "type": "error"
    },
    {
      "inputs": [],
      "name": "MintERC2309QuantityExceedsLimit",
      "type": "error"
    },
    {
      "inputs": [],
      "name": "MintToZeroAddress",
      "type": "error"
    },
    {
      "inputs": [],
      "name": "MintZeroQuantity",
      "type": "error"
    },
    {
      "inputs": [],
      "name": "NotCompatibleWithSpotMints",
      "type": "error"
    },
    {
      "inputs": [
        {
          "internalType": "address",
          "name": "operator",
          "type": "address"
        }
      ],
      "name": "OperatorNotAllowed",
      "type": "error"
    },
    {
      "inputs": [],
      "name": "OwnerQueryForNonexistentToken",
      "type": "error"
    },
    {
      "inputs": [],
      "name": "OwnershipNotInitializedForExtraData",
      "type": "error"
    },
    {
      "inputs": [],
      "name": "SequentialMintExceedsLimit",
      "type": "error"
    },
    {
      "inputs": [],
      "name": "SequentialUpToTooSmall",
      "type": "error"
    },
    {
      "inputs": [],
      "name": "SpotMintTokenIdTooSmall",
      "type": "error"
    },
    {
      "inputs": [],
      "name": "TokenAlreadyExists",
      "type": "error"
    },
    {
      "inputs": [],
      "name": "TransferCallerNotOwnerNorApproved",
      "type": "error"
    },
    {
      "inputs": [],
      "name": "TransferFromIncorrectOwner",
      "type": "error"
    },
    {
      "inputs": [],
      "name": "TransferToNonERC721ReceiverImplementer",
      "type": "error"
    },
    {
      "inputs": [],
      "name": "TransferToZeroAddress",
      "type": "error"
    },
    {
      "inputs": [],
      "name": "URIQueryForNonexistentToken",
      "type": "error"
    },
    {
      "anonymous": false,
      "inputs": [
        {
          "indexed": true,
          "internalType": "address",
          "name": "owner",
          "type": "address"
        },
        {
          "indexed": true,
          "internalType": "address",
          "name": "approved",
          "type": "address"
        },
        {
          "indexed": true,
          "internalType": "uint256",
          "name": "tokenId",
          "type": "uint256"
        }
      ],
      "name": "Approval",
      "type": "event"
    },
    {
      "anonymous": false,
      "inputs": [
        {
          "indexed": true,
          "internalType": "address",
          "name": "owner",
          "type": "address"
        },
        {
          "indexed": true,
          "internalType": "address",
          "name": "operator",
          "type": "address"
        },
        {
          "indexed": false,
          "internalType": "bool",
          "name": "approved",
          "type": "bool"
        }
      ],
      "name": "ApprovalForAll",
      "type": "event"
    },
    {
      "anonymous": false,
      "inputs": [
        {
          "indexed": true,
          "internalType": "uint256",
          "name": "fromTokenId",
          "type": "uint256"
        },
        {
          "indexed": false,
          "internalType": "uint256",
          "name": "toTokenId",
          "type": "uint256"
        },
        {
          "indexed": true,
          "internalType": "address",
          "name": "from",
          "type": "address"
        },
        {
          "indexed": true,
          "internalType": "address",
          "name": "to",
          "type": "address"
        }
      ],
      "name": "ConsecutiveTransfer",
      "type": "event"
    },
    {
      "anonymous": false,
      "inputs": [
        {
          "indexed": true,
          "internalType": "address",
          "name": "previousOwner",
          "type": "address"
        },
        {
          "indexed": true,
          "internalType": "address",
          "name": "newOwner",
          "type": "address"
        }
      ],
      "name": "OwnershipTransferred",
      "type": "event"
    },
    {
      "anonymous": false,
      "inputs": [
        {
          "indexed": true,
          "internalType": "address",
          "name": "from",
          "type": "address"
        },
        {
          "indexed": true,
          "internalType": "address",
          "name": "to",
          "type": "address"
        },
        {
          "indexed": true,
          "internalType": "uint256",
          "name": "tokenId",
          "type": "uint256"
        }
      ],
      "name": "Transfer",
      "type": "event"
    },
    {
      "inputs": [],
      "name": "OPERATOR_FILTER_REGISTRY",
      "outputs": [
        {
          "internalType": "contract IOperatorFilterRegistry",
          "name": "",
          "type": "address"
        }
      ],
      "stateMutability": "view",
      "type": "function"
    },
    {
      "inputs": [
        {
          "internalType": "address[]",
          "name": "_recipients",
          "type": "address[]"
        },
        {
          "internalType": "uint256",
          "name": "_mintAmount",
          "type": "uint256"
        }
      ],
      "name": "airdrop",
      "outputs": [],
      "stateMutability": "nonpayable",
      "type": "function"
    },
    {
      "inputs": [
        {
          "internalType": "address",
          "name": "to",
          "type": "address"
        },
        {
          "internalType": "uint256",
          "name": "tokenId",
          "type": "uint256"
        }
      ],
      "name": "approve",
      "outputs": [],
      "stateMutability": "payable",
      "type": "function"
    },
    {
      "inputs": [
        {
          "internalType": "address",
          "name": "owner",
          "type": "address"
        }
      ],
      "name": "balanceOf",
      "outputs": [
        {
          "internalType": "uint256",
          "name": "",
          "type": "uint256"
        }
      ],
      "stateMutability": "view",
      "type": "function"
    },
    {
      "inputs": [],
      "name": "beneficiaryAddress",
      "outputs": [
        {
          "internalType": "address",
          "name": "",
          "type": "address"
        }
      ],
      "stateMutability": "view",
      "type": "function"
    },
    {
      "inputs": [],
      "name": "factory",
      "outputs": [
        {
          "internalType": "contract INftFactory",
          "name": "",
          "type": "address"
        }
      ],
      "stateMutability": "view",
      "type": "function"
    },
    {
      "inputs": [
        {
          "internalType": "uint256",
          "name": "tokenId",
          "type": "uint256"
        }
      ],
      "name": "getApproved",
      "outputs": [
        {
          "internalType": "address",
          "name": "",
          "type": "address"
        }
      ],
      "stateMutability": "view",
      "type": "function"
    },
    {
      "inputs": [
        {
          "internalType": "uint256",
          "name": "tokenId",
          "type": "uint256"
        }
      ],
      "name": "getSeed",
      "outputs": [
        {
          "internalType": "uint256",
          "name": "",
          "type": "uint256"
        }
      ],
      "stateMutability": "view",
      "type": "function"
    },
    {
      "inputs": [],
      "name": "getmintCount",
      "outputs": [
        {
          "internalType": "uint256",
          "name": "",
          "type": "uint256"
        }
      ],
      "stateMutability": "view",
      "type": "function"
    },
    {
      "inputs": [
        {
          "internalType": "address",
          "name": "owner",
          "type": "address"
        },
        {
          "internalType": "address",
          "name": "operator",
          "type": "address"
        }
      ],
      "name": "isApprovedForAll",
      "outputs": [
        {
          "internalType": "bool",
          "name": "",
          "type": "bool"
        }
      ],
      "stateMutability": "view",
      "type": "function"
    },
    {
      "inputs": [],
      "name": "isPublicMint",
      "outputs": [
        {
          "internalType": "bool",
          "name": "",
          "type": "bool"
        }
      ],
      "stateMutability": "view",
      "type": "function"
    },
    {
      "inputs": [],
      "name": "maxMintPerWallet",
      "outputs": [
        {
          "internalType": "uint256",
          "name": "",
          "type": "uint256"
        }
      ],
      "stateMutability": "view",
      "type": "function"
    },
    {
      "inputs": [],
      "name": "maxSupply",
      "outputs": [
        {
          "internalType": "uint256",
          "name": "",
          "type": "uint256"
        }
      ],
      "stateMutability": "view",
      "type": "function"
    },
    {
      "inputs": [
        {
          "internalType": "uint256",
          "name": "_mintAmount",
          "type": "uint256"
        }
      ],
      "name": "mint",
      "outputs": [],
      "stateMutability": "payable",
      "type": "function"
    },
    {
      "inputs": [],
      "name": "mintCost",
      "outputs": [
        {
          "internalType": "uint256",
          "name": "",
          "type": "uint256"
        }
      ],
      "stateMutability": "view",
      "type": "function"
    },
    {
      "inputs": [
        {
          "internalType": "address",
          "name": "",
          "type": "address"
        }
      ],
      "name": "mintCount",
      "outputs": [
        {
          "internalType": "uint256",
          "name": "",
          "type": "uint256"
        }
      ],
      "stateMutability": "view",
      "type": "function"
    },
    {
      "inputs": [],
      "name": "name",
      "outputs": [
        {
          "internalType": "string",
          "name": "",
          "type": "string"
        }
      ],
      "stateMutability": "view",
      "type": "function"
    },
    {
      "inputs": [],
      "name": "owner",
      "outputs": [
        {
          "internalType": "address",
          "name": "",
          "type": "address"
        }
      ],
      "stateMutability": "view",
      "type": "function"
    },
    {
      "inputs": [
        {
          "internalType": "uint256",
          "name": "tokenId",
          "type": "uint256"
        }
      ],
      "name": "ownerOf",
      "outputs": [
        {
          "internalType": "address",
          "name": "",
          "type": "address"
        }
      ],
      "stateMutability": "view",
      "type": "function"
    },
    {
      "inputs": [],
      "name": "renounceOwnership",
      "outputs": [],
      "stateMutability": "nonpayable",
      "type": "function"
    },
    {
      "inputs": [],
      "name": "royaltyAddress",
      "outputs": [
        {
          "internalType": "address",
          "name": "",
          "type": "address"
        }
      ],
      "stateMutability": "view",
      "type": "function"
    },
    {
      "inputs": [
        {
          "internalType": "uint256",
          "name": "_tokenId",
          "type": "uint256"
        },
        {
          "internalType": "uint256",
          "name": "_salePrice",
          "type": "uint256"
        }
      ],
      "name": "royaltyInfo",
      "outputs": [
        {
          "internalType": "address",
          "name": "receiver",
          "type": "address"
        },
        {
          "internalType": "uint256",
          "name": "royaltyAmount",
          "type": "uint256"
        }
      ],
      "stateMutability": "view",
      "type": "function"
    },
    {
      "inputs": [
        {
          "internalType": "address",
          "name": "from",
          "type": "address"
        },
        {
          "internalType": "address",
          "name": "to",
          "type": "address"
        },
        {
          "internalType": "uint256",
          "name": "tokenId",
          "type": "uint256"
        }
      ],
      "name": "safeTransferFrom",
      "outputs": [],
      "stateMutability": "payable",
      "type": "function"
    },
    {
      "inputs": [
        {
          "internalType": "address",
          "name": "from",
          "type": "address"
        },
        {
          "internalType": "address",
          "name": "to",
          "type": "address"
        },
        {
          "internalType": "uint256",
          "name": "tokenId",
          "type": "uint256"
        },
        {
          "internalType": "bytes",
          "name": "data",
          "type": "bytes"
        }
      ],
      "name": "safeTransferFrom",
      "outputs": [],
      "stateMutability": "payable",
      "type": "function"
    },
    {
      "inputs": [
        {
          "internalType": "address",
          "name": "operator",
          "type": "address"
        },
        {
          "internalType": "bool",
          "name": "approved",
          "type": "bool"
        }
      ],
      "name": "setApprovalForAll",
      "outputs": [],
      "stateMutability": "nonpayable",
      "type": "function"
    },
    {
      "inputs": [
        {
          "internalType": "contract INftFactory",
          "name": "newFactory",
          "type": "address"
        }
      ],
      "name": "setFactory",
      "outputs": [],
      "stateMutability": "nonpayable",
      "type": "function"
    },
    {
      "inputs": [
        {
          "internalType": "bool",
          "name": "value",
          "type": "bool"
        }
      ],
      "name": "setSoldOut",
      "outputs": [],
      "stateMutability": "nonpayable",
      "type": "function"
    },
    {
      "inputs": [
        {
          "internalType": "bytes4",
          "name": "interfaceId",
          "type": "bytes4"
        }
      ],
      "name": "supportsInterface",
      "outputs": [
        {
          "internalType": "bool",
          "name": "",
          "type": "bool"
        }
      ],
      "stateMutability": "view",
      "type": "function"
    },
    {
      "inputs": [],
      "name": "symbol",
      "outputs": [
        {
          "internalType": "string",
          "name": "",
          "type": "string"
        }
      ],
      "stateMutability": "view",
      "type": "function"
    },
    {
      "inputs": [
        {
          "internalType": "uint256",
          "name": "tokenId",
          "type": "uint256"
        }
      ],
      "name": "tokenURI",
      "outputs": [
        {
          "internalType": "string",
          "name": "",
          "type": "string"
        }
      ],
      "stateMutability": "view",
      "type": "function"
    },
    {
      "inputs": [],
      "name": "totalSupply",
      "outputs": [
        {
          "internalType": "uint256",
          "name": "result",
          "type": "uint256"
        }
      ],
      "stateMutability": "view",
      "type": "function"
    },
    {
      "inputs": [
        {
          "internalType": "address",
          "name": "from",
          "type": "address"
        },
        {
          "internalType": "address",
          "name": "to",
          "type": "address"
        },
        {
          "internalType": "uint256",
          "name": "tokenId",
          "type": "uint256"
        }
      ],
      "name": "transferFrom",
      "outputs": [],
      "stateMutability": "payable",
      "type": "function"
    },
    {
      "inputs": [
        {
          "internalType": "address",
          "name": "newOwner",
          "type": "address"
        }
      ],
      "name": "transferOwnership",
      "outputs": [],
      "stateMutability": "nonpayable",
      "type": "function"
    },
    {
      "inputs": [
        {
          "internalType": "address",
          "name": "_beneficiaryReceiver",
          "type": "address"
        },
        {
          "internalType": "address",
          "name": "_royaltiesReceiver",
          "type": "address"
        }
      ],
      "name": "updateFoundationAddress",
      "outputs": [],
      "stateMutability": "nonpayable",
      "type": "function"
    },
    {
      "inputs": [
        {
          "internalType": "uint256",
          "name": "_royalties",
          "type": "uint256"
        }
      ],
      "name": "updateRoyalties",
      "outputs": [],
      "stateMutability": "nonpayable",
      "type": "function"
    }
  ],
  "bytecode": "0x6080604052346200020d576020620027768038038091620000208262000229565b608039126200020d576080516001600160a01b039081811681036200020d57620000916200004d6200028f565b7f466c617070794f776c4e6674546573746e65740000000000000000000000000060208201526200007d620002a4565b906313d5d31560e21b6020830152620004c5565b6daaeb6d7670e522a718067333cd4e803b62000178575b50620001416200016892620000bd33620005e4565b620000c86001600a55565b620000db600160ff19600d541617600d55565b620000e86298967f600e55565b620000fa6702c68af0bb140000600f55565b62000105600a601055565b620001106005601155565b60095460128054929091166001600160a01b03166001600160a01b0319928316811790915560138054909216179055565b600d8054610100600160a81b03191660089290921b610100600160a81b0316919091179055565b60405161214890816200062e8239f35b803b156200020d57604051633e9f1edf60e11b8152306004820152733cc6cdda760b79bafa08df41ecfa224f810dceb66024820152620001689362000141929091906000908290604490829084905af18015620001fd575b620001df575b509250620000a8565b80620001ef620001f6926200025f565b80620002b9565b38620001d6565b62000207620002c5565b620001d0565b600080fd5b50634e487b7160e01b600052604160045260246000fd5b6080601f91909101601f19168101906001600160401b038211908210176200025057604052565b6200025a62000212565b604052565b6001600160401b0381116200025057604052565b604081019081106001600160401b038211176200025057604052565b604051906200029e8262000273565b60138252565b60405190620002b38262000273565b60048252565b60009103126200020d57565b506040513d6000823e3d90fd5b90600182811c9216801562000304575b6020831014620002ee57565b634e487b7160e01b600052602260045260246000fd5b91607f1691620002e2565b601f81116200031c575050565b6000906002825260208220906020601f850160051c830194106200035d575b601f0160051c01915b8281106200035157505050565b81815560010162000344565b90925082906200033b565b601f811162000375575050565b6000906003825260208220906020601f850160051c83019410620003b6575b601f0160051c01915b828110620003aa57505050565b8181556001016200039d565b909250829062000394565b80519091906001600160401b038111620004b5575b620003ee81620003e8600354620002d2565b62000368565b602080601f83116001146200042d575081929360009262000421575b50508160011b916000199060031b1c191617600355565b0151905038806200040a565b6003600052601f198316949091907fc2575a0e9e593c00f959f8c92f12db2869c3395a3b0502d05e2516446f71f85b926000905b8782106200049c57505083600195961062000482575b505050811b01600355565b015160001960f88460031b161c1916905538808062000477565b8060018596829496860151815501950193019062000461565b620004bf62000212565b620003d6565b80519091906001600160401b038111620005d4575b620004f281620004ec600254620002d2565b6200030f565b602080601f83116001146200053f575081906200052d9460009262000533575b50508160011b916000199060031b1c191617600255620003c1565b60008055565b01519050388062000512565b60026000529293919291601f1984167f405787fa12a823e0f2b7631cc41b3ba8828b3321ca811111fa75cd3aa3bb5ace936000905b828210620005bb5750509160019391856200052d97969410620005a1575b505050811b01600255620003c1565b015160001960f88460031b161c1916905538808062000592565b8060018697829497870151815501960194019062000574565b620005de62000212565b620004da565b600980546001600160a01b039283166001600160a01b0319821681179092559091167f8be0079c531659141344cd1fd0a4f28419497f9722a3daafe3b4186f6b6457e0600080a356fe60806040526004361015610013575b600080fd5b60003560e01c806301ffc9a7146102cf57806306fdde03146102c6578063081812fc146102bd578063095ea7b3146102b457806318160ddd146102ab57806323b872dd146102a25780632a55205a146102995780633057931f1461029057806341f434341461028757806342842e0e1461027e5780635619f443146102755780635bb478081461026c5780636352211e1461026357806370a082311461025a578063715018a6146102515780638da5cb5b1461024857806395d89b411461023f5780639658730b14610236578063a0712d681461022d578063a22cb46514610224578063ad2f852a1461021b578063af1fb60714610212578063b228d92514610209578063b88d4fde14610200578063bdb4b848146101f7578063c204642c146101ee578063c45a0155146101e5578063c87b56dd146101dc578063d5abeb01146101d3578063d9c4870e146101ca578063d9ef157a146101c1578063e0d4ea37146101b8578063e985e9c5146101af578063ed9ec888146101a65763f2fde38b1461019e57600080fd5b61000e6112f2565b5061000e6112b4565b5061000e611269565b5061000e611230565b5061000e6111f5565b5061000e6111cb565b5061000e6111ac565b5061000e6110f7565b5061000e6110c9565b5061000e611023565b5061000e611004565b5061000e610f77565b5061000e610ecb565b5061000e610e86565b5061000e610e37565b5061000e610da1565b5061000e610ce8565b5061000e610cc6565b5061000e610c02565b5061000e610bd8565b5061000e610b79565b5061000e610b19565b5061000e610ae9565b5061000e610a9c565b5061000e610a71565b5061000e61086d565b5061000e610843565b5061000e61081f565b5061000e6107e3565b5061000e610632565b5061000e6105e2565b5061000e610527565b5061000e6104c2565b5061000e6103b5565b5061000e6102ea565b6001600160e01b031981160361000e57565b503461000e57602036600319011261000e57602060043561030a816102d8565b63ffffffff60e01b166301ffc9a760e01b8114908115610348575b8115610337575b506040519015158152f35b635b5e139f60e01b1490503861032c565b6380ac58cd60e01b81149150610325565b60005b83811061036c5750506000910152565b818101518382015260200161035c565b9060209161039581518092818552858086019101610359565b601f01601f1916010190565b9060206103b292818152019061037c565b90565b503461000e576000806003193601126104bf5760405190806002549060019180831c928082169283156104b5575b60209283861085146104a15785885260208801949081156104805750600114610427575b6104238761041781890382610f2a565b604051918291826103a1565b0390f35b600260005294509192917f405787fa12a823e0f2b7631cc41b3ba8828b3321ca811111fa75cd3aa3bb5ace5b83861061046f5750505091019050610417826104233880610407565b805485870152948201948101610453565b60ff191685525050505090151560051b019050610417826104233880610407565b634e487b7160e01b82526022600452602482fd5b93607f16936103e3565b80fd5b503461000e57602036600319011261000e576004356104e081611c8c565b15610505576000526006602052602060018060a01b0360406000205416604051908152f35b6333d1c03960e21b60005260046000fd5b6001600160a01b0381160361000e57565b50604036600319011261000e5760043561054081610516565b6024356001600160a01b038061055583611bf9565b16908133036105b0575b600083815260066020526040812080546001600160a01b0319166001600160a01b0387161790559316907f8c5be1e5ebec7d5bd14f71427d1e84f3dd0314c0f7b2291e5b200ac8c7c3b9258480a480f35b600082815260076020908152604080832033845290915290205460ff1661055f576367d9dca160e11b60005260046000fd5b503461000e57600036600319011261000e5760206000546001549003604051908152f35b606090600319011261000e5760043561061e81610516565b9060243561062b81610516565b9060443590565b5061063c36610606565b6001600160a01b03928316929091903384036107d5575b61065c83611bf9565b9184828416036107c8575b600084815260066020526040902080546106946001600160a01b03881633908114908314171590565b1590565b610772575b610768575b506001600160a01b0385811660009081526005602090815260408083208054600019019055928416825282822080546001019055868252600490522091169384929091600160e11b904260a01b85178217905581161561071e575b506000805160206120f3833981519152600080a41561071457005b61071c611fc5565b005b60018401610736816000526004602052604060002090565b5415610743575b506106f9565b600054811461073d57610760906000526004602052604060002090565b55388061073d565b600090553861069e565b6107b66106906107af336107988b60018060a01b03166000526007602052604060002090565b9060018060a01b0316600052602052604060002090565b5460ff1690565b15610699576107c3611fb3565b610699565b6107d0611fa2565b610667565b6107de33612033565b610653565b503461000e57604036600319011261000e57604060018060a01b0360135416606461081260243560115461158a565b0482519182526020820152f35b503461000e57600036600319011261000e57602060ff600d54166040519015158152f35b503461000e57600036600319011261000e5760206040516daaeb6d7670e522a718067333cd4e8152f35b5061087736610606565b6001600160a01b038381163381141594929085610a63575b816040519361089d85610f01565b60009780898752610a55575b610a47575b6108b782611bf9565b908381831603610a3a575b886108da846000526006602052604060002090815490565b6108f36001600160a01b03881633908114908314171590565b610a02575b6109fa575b50506001600160a01b0384811660009081526005602090815260408083208054600019019055928b1682528282208054600101905585825260049052209088169384929091600160e11b904260a01b8517821790558116156109b1575b506000805160206120f38339815191528980a4156109a4575b833b61097d578480f35b61098a9361069093611e2d565b610997575b388080808480f35b61099f611fd7565b61098f565b6109ac611fc5565b610973565b600184016109c9816000526004602052604060002090565b54156109d6575b5061095a565b8a5481146109d0576109f2906000526004602052604060002090565b5538806109d0565b5588386108fd565b610a286106906107af336107988b60018060a01b03166000526007602052604060002090565b156108f857610a35611fb3565b6108f8565b610a42611fa2565b6108c2565b610a5033612033565b6108ae565b610a5e33612033565b6108a9565b610a6c33612033565b61088f565b503461000e57600036600319011261000e5733600052600c6020526020604060002054604051908152f35b503461000e57602036600319011261000e57600435610aba81610516565b610ac26113c0565b600d8054610100600160a81b03191660089290921b610100600160a81b0316919091179055005b503461000e57602036600319011261000e5760206001600160a01b03610b10600435611bf9565b16604051908152f35b503461000e57602036600319011261000e57600435610b3781610516565b6001600160a01b03168015610b68576000526005602052602067ffffffffffffffff60406000205416604051908152f35b6323d3ad8160e21b60005260046000fd5b503461000e576000806003193601126104bf57610b946113c0565b600980546001600160a01b0319811690915581906001600160a01b03167f8be0079c531659141344cd1fd0a4f28419497f9722a3daafe3b4186f6b6457e08280a380f35b503461000e57600036600319011261000e576009546040516001600160a01b039091168152602090f35b503461000e576000806003193601126104bf5760405190806003549060019180831c92808216928315610cbc575b60209283861085146104a15785885260208801949081156104805750600114610c63576104238761041781890382610f2a565b600360005294509192917fc2575a0e9e593c00f959f8c92f12db2869c3395a3b0502d05e2516446f71f85b5b838610610cab5750505091019050610417826104233880610407565b805485870152948201948101610c8f565b93607f1693610c30565b503461000e57602036600319011261000e57610ce06113c0565b600435601155005b50602036600319011261000e57600435610d006116e7565b333203610d525780610d16610d3b921515611418565b600054600154610d369103828101809111610d45575b600e541015611497565b6115ec565b61071c6001600a55565b610d4d61145b565b610d2c565b60405162461bcd60e51b815260206004820152601e60248201527f5468652063616c6c657220697320616e6f7468657220636f6e747261637400006044820152606490fd5b8015150361000e57565b503461000e57604036600319011261000e57600435610dbf81610516565b60243590610dcc82610d97565b3360009081526007602090815260408083206001600160a01b038516845290915290209115159160ff1981541660ff841617905560405191825260018060a01b0316907f17307eab39ab6107e8899845ad3d59bd9653f200f220920489ca2b5937696c3160203392a3005b503461000e57600036600319011261000e576013546040516001600160a01b039091168152602090f35b604090600319011261000e57600435610e7981610516565b906024356103b281610516565b503461000e57610e9536610e61565b610e9d6113c0565b601280546001600160a01b039384166001600160a01b03199182161790915560138054929093169116179055005b503461000e57600036600319011261000e576020601054604051908152f35b50634e487b7160e01b600052604160045260246000fd5b6020810190811067ffffffffffffffff821117610f1d57604052565b610f25610eea565b604052565b90601f8019910116810190811067ffffffffffffffff821117610f1d57604052565b60209067ffffffffffffffff8111610f6a575b601f01601f19160190565b610f72610eea565b610f5f565b50608036600319011261000e57600435610f9081610516565b602435610f9c81610516565b6064359167ffffffffffffffff831161000e573660238401121561000e57826004013591610fc983610f4c565b92610fd76040519485610f2a565b808452366024828701011161000e57602081600092602461071c9801838801378501015260443591611a24565b503461000e57600036600319011261000e576020600f54604051908152f35b503461000e57604036600319011261000e5767ffffffffffffffff60043581811161000e573660238201121561000e5780600401359182116110bc575b8160051b906040519160209361107885830185610f2a565b83526024848401918301019136831161000e57602401905b8282106110a35761071c6024358561173d565b84809183356110b181610516565b815201910190611090565b6110c4610eea565b611060565b503461000e57600036600319011261000e57600d5460405160089190911c6001600160a01b03168152602090f35b503461000e57602036600319011261000e5761042360043561112061111b82611c8c565b61182b565b6000818152600b602052604080822054600d5491516392cb829d60e01b8152600481019490945260248401528290604490829060081c6001600160a01b03165afa90811561119f575b60009161117e575b50604051918291826103a1565b611199913d8091833e6111918183610f2a565b810190611877565b38611171565b6111a76115df565b611169565b503461000e57600036600319011261000e576020600e54604051908152f35b503461000e57600036600319011261000e576012546040516001600160a01b039091168152602090f35b503461000e57602036600319011261000e5760043561121381610d97565b61121b6113c0565b60ff8019600d54169115151617600d55600080f35b503461000e57602036600319011261000e5760043561125161111b82611c8c565b600052600b6020526020604060002054604051908152f35b503461000e57602060ff6112a861127f36610e61565b6001600160a01b0391821660009081526007865260408082209290931681526020919091522090565b54166040519015158152f35b503461000e57602036600319011261000e576004356112d281610516565b60018060a01b0316600052600c6020526020604060002054604051908152f35b503461000e57602036600319011261000e5760043561131081610516565b6113186113c0565b6001600160a01b0390811690811561136c57600954826bffffffffffffffffffffffff60a01b821617600955167f8be0079c531659141344cd1fd0a4f28419497f9722a3daafe3b4186f6b6457e0600080a3005b60405162461bcd60e51b815260206004820152602660248201527f4f776e61626c653a206e6577206f776e657220697320746865207a65726f206160448201526564647265737360d01b6064820152608490fd5b6009546001600160a01b031633036113d457565b606460405162461bcd60e51b815260206004820152602060248201527f4f776e61626c653a2063616c6c6572206973206e6f7420746865206f776e65726044820152fd5b1561141f57565b60405162461bcd60e51b8152602060048201526014602482015273496e76616c6964206d696e7420616d6f756e742160601b6044820152606490fd5b50634e487b7160e01b600052601160045260246000fd5b90600a820180921161148057565b61148861145b565b565b9190820180921161148057565b1561149e57565b60405162461bcd60e51b815260206004820152601b60248201527f57696c6c20657863656564206d6178696d756d20737570706c792100000000006044820152606490fd5b156114ea57565b60405162461bcd60e51b8152602060048201526009602482015268536f6c64206f75742160b81b6044820152606490fd5b1561152257565b60405162461bcd60e51b815260206004820152601960248201527f5065722077616c6c6574206c696d6974207265616368656421000000000000006044820152606490fd5b908160640291606483040361148057565b90612710918083029283040361148057565b8181029291811591840414171561148057565b156115a457565b60405162461bcd60e51b8152602060048201526013602482015272496e73756666696369656e742066756e64732160681b6044820152606490fd5b506040513d6000823e3d90fd5b61166f906116046115ff600d5460ff1690565b6114e3565b336000908152600c6020526040902061162d906116239083905461148a565b601054101561151b565b61164461163c82600f5461158a565b34101561159d565b336000908152600c6020526040902061165e82825461148a565b9055611669816118d6565b33611e56565b6000546001549003600e5411156116d3575b4761168857565b60008080806116b06116a46116a460125460018060a01b031690565b6001600160a01b031690565b47908282156116ca575bf1156116c257565b6114886115df565b506108fc6116ba565b6116e260ff19600d5416600d55565b611681565b6002600a54146116f8576002600a55565b60405162461bcd60e51b815260206004820152601f60248201527f5265656e7472616e637947756172643a207265656e7472616e742063616c6c006044820152606490fd5b6117456113c0565b61174d6116e7565b611758821515611418565b6000546001546117779103838101809111610d4557600e541015611497565b8051906000805b8381106117c0575050505050611798600054600154900390565b600e5411156117ac575b6114886001600a55565b6117bb60ff19600d5416600d55565b6117a2565b6117c9856118d6565b82518110156117fb576117f6906117f18660018060a01b0360208460051b8801015116611e56565b61180f565b61177e565b634e487b7160e01b82526032600452602482fd5b600190600019811461181f570190565b61182761145b565b0190565b1561183257565b60405162461bcd60e51b815260206004820152601860248201527f546f6b656e20494420646f6573206e6f742065786973742e00000000000000006044820152606490fd5b60208183031261000e5780519067ffffffffffffffff821161000e570181601f8201121561000e5780516118aa81610f4c565b926118b86040519485610f2a565b8184526020828401011161000e576103b29160208085019101610359565b600080545b8282106118e757505050565b6119ba816119a06118fa6119c0946119c6565b61199661199b60079261199661199b61191c611917878506611472565b611567565b9561199661199061193d6014996119378b8960301c06611472565b9061148a565b9861193761197c6119658960601c6119378561195e61191760068506611472565b9206611472565b956119378461195e6119178d60901c948506611472565b9760c01c9161195e61191760018516611472565b97611578565b61148a565b611578565b6119b482600052600b602052604060002090565b5561180f565b9161180f565b906118db565b600019430190438211611a17575b6040519060208201924083526040820152604081526060810181811067ffffffffffffffff821117611a0a575b60405251902090565b611a12610eea565b611a01565b611a1f61145b565b6119d4565b909290916001600160a01b038084169082903383141580611beb575b611bdd575b611a4e82611bf9565b908381831603611bd0575b60008381526006602052604090208054611a826001600160a01b03871633908114908314171590565b611b98575b611b8e575b506001600160a01b0384811660009081526005602090815260408083208054600019019055928b1682528282208054600101905585825260049052209088169384929091600160e11b904260a01b851782179055811615611b44575b506000805160206120f3833981519152600080a415611b37575b833b611b0f575b50505050565b611b1c9361069093611e2d565b611b2a575b38808080611b09565b611b32611fd7565b611b21565b611b3f611fc5565b611b02565b60018401611b5c816000526004602052604060002090565b5415611b69575b50611ae8565b6000548114611b6357611b86906000526004602052604060002090565b553880611b63565b6000905538611a8c565b611bbe6106906107af336107988a60018060a01b03166000526007602052604060002090565b15611a8757611bcb611fb3565b611a87565b611bd8611fa2565b611a59565b611be633612033565b611a45565b611bf433612033565b611a40565b90611c0e826000526004602052604060002090565b54918215611c2b5750600160e01b82161561148857611488611fe9565b9091506000908154811015611c7d575b60001901600081815260046020526040902054908115611c765750600160e01b811615611c7157636f96cda160e11b8252600482fd5b905090565b9050611c3b565b636f96cda160e11b8252600482fd5b90600091600080548210611c9e575050565b92505b8083526004602052604083205480611cd657508060409115611cc9575b600019019050611ca1565b611cd161145b565b611cbe565b600160e01b1615925050565b9081602091031261000e57516103b2816102d8565b6103b2939260809260018060a01b03168252600060208301526040820152816060820152019061037c565b6001600160a01b0391821681529116602082015260408101919091526080606082018190526103b29291019061037c565b3d15611d7e573d90611d6482610f4c565b91611d726040519384610f2a565b82523d6000602084013e565b606090565b611dac60209160009394604051948580948193630a85bd0160e11b998a84523360048501611cf7565b03926001600160a01b03165af160009181611dfd575b50611def57611dcf611d53565b805115611dde57805190602001fd5b6368d2bf6b60e11b60005260046000fd5b6001600160e01b0319161490565b611e1f91925060203d8111611e26575b611e178183610f2a565b810190611ce2565b9038611dc2565b503d611e0d565b92602091611dac936000604051809681958294630a85bd0160e11b9a8b85523360048601611d22565b604051611e6281610f01565b6000928382528354928115611f95575b6000848152600460205260409020600192906001600160a01b038316904260a01b83861460e11b17821790556001600160a01b038316600090815260056020526040902068010000000000000001830281540190558015611f88575b81860195908480805b611f4b575b50505050848655813b611ef2575b505050505050565b84039180805b611f13575b50505050508154036104bf578080808080611eea565b15611f3e575b8581611f2c610690878388019787611d83565b15611ef857611f39611fd7565b611ef8565b848310611f195780611efd565b15611f70575b50878583838b6000805160206120f38339815191528180a49081611ed7565b90910190868214611f815784611f51565b8481611edc565b611f9061200d565b611ece565b611f9d611ffb565b611e72565b5062a1148160e81b60005260046000fd5b50632ce44b5f60e11b60005260046000fd5b50633a954ecd60e21b60005260046000fd5b506368d2bf6b60e11b60005260046000fd5b50636f96cda160e11b60005260046000fd5b5063b562e8dd60e01b60005260046000fd5b50622e076360e81b60005260046000fd5b9081602091031261000e57516103b281610d97565b6daaeb6d7670e522a718067333cd4e803b61204c575050565b604051633185c44d60e21b81523060048201526001600160a01b038316602482015290602090829060449082905afa9081156120e5575b6000916120b7575b50156120945750565b604051633b79c77360e21b81526001600160a01b03919091166004820152602490fd5b6120d8915060203d81116120de575b6120d08183610f2a565b81019061201e565b3861208b565b503d6120c6565b6120ed6115df565b61208356feddf252ad1be2c89b69c2b068fc378daa952ba7f163c4a11628f55a4df523b3efa2646970667358221220e777c533f890f98443a817a4764ae08155ff2a195e4497b99054a2f8f359153564736f6c63430008110033",
  "linkReferences": {},
  "deployedLinkReferences": {}
}