{
  "_format": "hh-sol-artifact-1",
  "contractName": "LiquidityPool",
  "sourceName": "contracts/governance/LiquidityPool.sol",
  "abi": [
    {
      "inputs": [
        {
          "internalType": "address",
          "name": "_token",
          "type": "address"
        }
      ],
      "stateMutability": "nonpayable",
      "type": "constructor"
    },
    {
      "anonymous": false,
      "inputs": [
        {
          "indexed": true,
          "internalType": "uint256",
          "name": "tokenId",
          "type": "uint256"
        },
        {
          "indexed": true,
          "internalType": "address",
          "name": "owner",
          "type": "address"
        }
      ],
      "name": "PoolCreated",
      "type": "event"
    },
    {
      "anonymous": false,
      "inputs": [
        {
          "indexed": true,
          "internalType": "uint256",
          "name": "tokenId",
          "type": "uint256"
        },
        {
          "indexed": true,
          "internalType": "address",
          "name": "owner",
          "type": "address"
        }
      ],
      "name": "PoolRemoved",
      "type": "event"
    },
    {
      "inputs": [],
      "name": "CONTROLLER_ADDRESS",
      "outputs": [
        {
          "internalType": "address",
          "name": "",
          "type": "address"
        }
      ],
      "stateMutability": "view",
      "type": "function"
    },
    {
      "inputs": [
        {
          "internalType": "uint256",
          "name": "_amount0",
          "type": "uint256"
        },
        {
          "internalType": "uint256",
          "name": "_amount1",
          "type": "uint256"
        },
        {
          "internalType": "uint256",
          "name": "_lockYears",
          "type": "uint256"
        }
      ],
      "name": "creatPool",
      "outputs": [
        {
          "internalType": "uint256",
          "name": "tokenId",
          "type": "uint256"
        },
        {
          "internalType": "uint128",
          "name": "liquidity",
          "type": "uint128"
        },
        {
          "internalType": "uint256",
          "name": "amount0",
          "type": "uint256"
        },
        {
          "internalType": "uint256",
          "name": "amount1",
          "type": "uint256"
        }
      ],
      "stateMutability": "nonpayable",
      "type": "function"
    },
    {
      "inputs": [
        {
          "internalType": "uint256",
          "name": "tokenId",
          "type": "uint256"
        },
        {
          "internalType": "uint8",
          "name": "percentageToRemove",
          "type": "uint8"
        }
      ],
      "name": "decreaseLiquidity",
      "outputs": [
        {
          "internalType": "uint256",
          "name": "amount0",
          "type": "uint256"
        },
        {
          "internalType": "uint256",
          "name": "amount1",
          "type": "uint256"
        }
      ],
      "stateMutability": "nonpayable",
      "type": "function"
    },
    {
      "inputs": [
        {
          "internalType": "address",
          "name": "user",
          "type": "address"
        }
      ],
      "name": "getLiquidityLpOf",
      "outputs": [
        {
          "internalType": "uint128",
          "name": "",
          "type": "uint128"
        }
      ],
      "stateMutability": "view",
      "type": "function"
    },
    {
      "inputs": [
        {
          "internalType": "uint256",
          "name": "tokenId",
          "type": "uint256"
        }
      ],
      "name": "getPoolInfo",
      "outputs": [
        {
          "internalType": "address",
          "name": "owner",
          "type": "address"
        },
        {
          "internalType": "uint128",
          "name": "liquidity",
          "type": "uint128"
        },
        {
          "internalType": "address",
          "name": "token0",
          "type": "address"
        },
        {
          "internalType": "address",
          "name": "token1",
          "type": "address"
        },
        {
          "internalType": "uint256",
          "name": "timePower",
          "type": "uint256"
        },
        {
          "internalType": "uint256",
          "name": "lockedEnd",
          "type": "uint256"
        }
      ],
      "stateMutability": "view",
      "type": "function"
    },
    {
      "inputs": [
        {
          "internalType": "uint256",
          "name": "tokenId",
          "type": "uint256"
        },
        {
          "internalType": "uint256",
          "name": "amountAdd0",
          "type": "uint256"
        },
        {
          "internalType": "uint256",
          "name": "amountAdd1",
          "type": "uint256"
        }
      ],
      "name": "increaseLiquidityCurrentRange",
      "outputs": [
        {
          "internalType": "uint128",
          "name": "liquidity",
          "type": "uint128"
        },
        {
          "internalType": "uint256",
          "name": "amount0",
          "type": "uint256"
        },
        {
          "internalType": "uint256",
          "name": "amount1",
          "type": "uint256"
        }
      ],
      "stateMutability": "nonpayable",
      "type": "function"
    },
    {
      "inputs": [],
      "name": "nonfungiblePositionManager",
      "outputs": [
        {
          "internalType": "contract INonfungiblePositionManager",
          "name": "",
          "type": "address"
        }
      ],
      "stateMutability": "view",
      "type": "function"
    },
    {
      "inputs": [
        {
          "internalType": "address",
          "name": "operator",
          "type": "address"
        },
        {
          "internalType": "address",
          "name": "",
          "type": "address"
        },
        {
          "internalType": "uint256",
          "name": "tokenId",
          "type": "uint256"
        },
        {
          "internalType": "bytes",
          "name": "",
          "type": "bytes"
        }
      ],
      "name": "onERC721Received",
      "outputs": [
        {
          "internalType": "bytes4",
          "name": "",
          "type": "bytes4"
        }
      ],
      "stateMutability": "nonpayable",
      "type": "function"
    },
    {
      "inputs": [],
      "name": "poolFee",
      "outputs": [
        {
          "internalType": "uint24",
          "name": "",
          "type": "uint24"
        }
      ],
      "stateMutability": "view",
      "type": "function"
    },
    {
      "inputs": [
        {
          "internalType": "address",
          "name": "_user",
          "type": "address"
        }
      ],
      "name": "poolLockInfo",
      "outputs": [
        {
          "internalType": "uint256",
          "name": "lockPower",
          "type": "uint256"
        }
      ],
      "stateMutability": "view",
      "type": "function"
    },
    {
      "inputs": [
        {
          "internalType": "address",
          "name": "_owner",
          "type": "address"
        }
      ],
      "name": "poolOfAddress",
      "outputs": [
        {
          "internalType": "uint256[]",
          "name": "",
          "type": "uint256[]"
        }
      ],
      "stateMutability": "view",
      "type": "function"
    },
    {
      "inputs": [
        {
          "internalType": "uint256",
          "name": "",
          "type": "uint256"
        }
      ],
      "name": "pools",
      "outputs": [
        {
          "internalType": "address",
          "name": "owner",
          "type": "address"
        },
        {
          "internalType": "uint128",
          "name": "liquidity",
          "type": "uint128"
        },
        {
          "internalType": "address",
          "name": "token0",
          "type": "address"
        },
        {
          "internalType": "address",
          "name": "token1",
          "type": "address"
        },
        {
          "internalType": "uint256",
          "name": "timePower",
          "type": "uint256"
        },
        {
          "internalType": "uint256",
          "name": "lockedEnd",
          "type": "uint256"
        }
      ],
      "stateMutability": "view",
      "type": "function"
    },
    {
      "inputs": [
        {
          "internalType": "address",
          "name": "_user",
          "type": "address"
        }
      ],
      "name": "resetTimePower",
      "outputs": [
        {
          "internalType": "bool",
          "name": "",
          "type": "bool"
        }
      ],
      "stateMutability": "nonpayable",
      "type": "function"
    },
    {
      "inputs": [
        {
          "internalType": "address",
          "name": "_address",
          "type": "address"
        }
      ],
      "name": "setController",
      "outputs": [],
      "stateMutability": "nonpayable",
      "type": "function"
    },
    {
      "inputs": [],
      "name": "taxFee",
      "outputs": [
        {
          "internalType": "uint24",
          "name": "",
          "type": "uint24"
        }
      ],
      "stateMutability": "view",
      "type": "function"
    },
    {
      "inputs": [],
      "name": "totalLiquidityOfPool",
      "outputs": [
        {
          "internalType": "uint256",
          "name": "",
          "type": "uint256"
        }
      ],
      "stateMutability": "view",
      "type": "function"
    },
    {
      "inputs": [],
      "name": "totalLiquidityStaked",
      "outputs": [
        {
          "internalType": "uint256",
          "name": "",
          "type": "uint256"
        }
      ],
      "stateMutability": "view",
      "type": "function"
    },
    {
      "inputs": [],
      "name": "totalPool",
      "outputs": [
        {
          "internalType": "uint256",
          "name": "",
          "type": "uint256"
        }
      ],
      "stateMutability": "view",
      "type": "function"
    },
    {
      "inputs": [],
      "name": "totalPools",
      "outputs": [
        {
          "internalType": "uint256",
          "name": "",
          "type": "uint256"
        }
      ],
      "stateMutability": "view",
      "type": "function"
    }
  ],
  "bytecode": "0x60803461009f57601f61236938819003918201601f19168301916001600160401b038311848410176100a45780849260209460405283398101031261009f57516001600160a01b0381169081900361009f5760018060a01b031990731238536071e1c677a632429e3655c799b22cda528260005416176000558160055416176005553390600454161760045560006001556040516122ae90816100bb8239f35b600080fd5b634e487b7160e01b600052604160045260246000fdfe608080604052600436101561001357600080fd5b600090813560e01c908163089fe6aa14611e5557508063150b7a0214611b4b5780631632625214611a985780632f37e210146101125780632f380b351461051d578063617d6d6e1461188357806362580aec14611118578063848cde0d1461105a57806392eefe9b1461100f5780639e7d25da146105dc578063a071dcf4146105bf578063ab3c7e52146105a1578063ac4afa381461051d578063b13bef061461046f578063b44a272214610448578063b98e631d1461041f578063c80b3b7414610130578063e86f6a0d146101125763ecfb49a3146100f257600080fd5b3461010f578060031936011261010f576020600154604051908152f35b80fd5b503461010f578060031936011261010f576020600254604051908152f35b503461010f5760208060031936011261041b5761014b611e71565b6001600160a01b03168252600781526040808320905181548082529184528284209091849190839081860190845b878282106104055750505061019092500383611ed9565b8151156103c05780935b82518510156103b6576101ad8584611fca565b51825260068085526101c6426005604086200154611f64565b906101d18786611fca565b51845285526101e7600460408520015442611f64565b839062093a80811161026b5750506002546064908181029181830414901517156102575760015461021791611fde565b8181029181830414901517156102415760019162015180610239920490611f48565b94019361019a565b634e487b7160e01b600052601160045260246000fd5b634e487b7160e01b84526011600452602484fd5b62278d00811161029e57505060025460c8908181029181830414901517156102575760015461029991611fde565b610217565b62ed4e0081116102cd575050600254610190908181029181830414901517156102575760015461029991611fde565b6301e1338081116102fd575050600254610320908181029181830414901517156102575760015461029991611fde565b6303c26700811161032d575050600254610640908181029181830414901517156102575760015461029991611fde565b6305a39a80811161035d575050600254610c80908181029181830414901517156102575760015461029991611fde565b630784ce00108061038d575050600254611900908181029181830414901517156102575760015461029991611fde565b156102995750600254613200908181029181830414901517156102575760015461029991611fde565b8390604051908152f35b60405162461bcd60e51b815260048101849052601760248201527f4e6f74206861766520706f6f6c20706f736974696f6e210000000000000000006044820152606490fd5b8554845260019586019588955093019201610179565b5080fd5b503461010f578060031936011261010f576003546040516001600160a01b039091168152602090f35b503461010f578060031936011261010f57546040516001600160a01b039091168152602090f35b503461010f5760208060031936011261041b576001600160a01b03610492611e71565b168252600781526040822060405192838383549182815201908193835284832090835b81811061050957505050846104cb910385611ed9565b60405193838594850191818652518092526040850193925b8281106104f257505050500390f35b8351855286955093810193928101926001016104e3565b8254845292860192600192830192016104b5565b503461010f57602036600319011261010f576004803582526006602090815260409283902080546001820154600283015460038401549584015460059094015487516001600160a01b0394851681526001600160801b03909316958301959095528216958101959095529092166060840152608083019190915260a082015260c090f35b503461010f578060031936011261010f576020600154604051908152f35b503461010f578060031936011261010f5760206040516127108152f35b503461010f576105eb36611e87565b929060018060a01b03600554166040516370a0823160e01b90818152336004820152602081602481865afa908115611004579086918691610fcf575b5010610f8a5760405190815233600482015260208160248173fff9976782d46cc05630d1f6ebab18b2324d6b145afa908115610f7f579083918591610f45575b5010610f00578361067b91309033906121e6565b6040516323b872dd60e01b60208201908152336024830152306044830152606482018390526000918291906106bd81608481015b03601f198101835282611ed9565b51908273fff9976782d46cc05630d1f6ebab18b2324d6b145af16106df612041565b81610ed1575b5015610e725760055482546107089185916001600160a01b03908116911661211f565b815460405163095ea7b360e01b602082019081526001600160a01b03909216602482015260448101839052600091829161074581606481016106af565b51908273fff9976782d46cc05630d1f6ebab18b2324d6b145af1610767612041565b81610e43575b5015610c1f5760055460405191906001600160a01b031667ffffffffffffffff610160840190811190841117610d03576101608301604052825273fff9976782d46cc05630d1f6ebab18b2324d6b146020830152610bb86040830152620d89e7196060830152620d89e860808301528360a08301528060c08301528260e0830152826101008301523061012083015242610140830152608061014061016460018060a01b0386541694866040519687948593634418b22b60e11b855260018060a01b03815116600486015260018060a01b03602082015116602486015262ffffff6040820151166044860152606081015160020b60648601528781015160020b608486015260a081015160a486015260c081015160c486015260e081015160e486015261010081015161010486015260018060a01b036101208201511661012486015201516101448401525af1928315610e37578094819682948396610de1575b5060005460405163133f757160e31b8152600481018990526101809290918390839060249082906001600160a01b03165afa908115610dd55760009283948493610d19575b50506301e13380938185810204851482151715610241578a61093c610a22966005940242611f48565b916001600160801b036040519561095287611ea1565b33875216956020860190878252604087019060018060a01b03168152606087019260018060a01b03168352608087019342855260a08801958652600052600660205260406000209660018060a01b03905116916001600160601b0360a01b92838954161788556001600160801b03600189019151166001600160801b0319825416179055600287019060018060a01b0390511682825416179055600386019160018060a01b039051169082541617905551600484015551910155610a17600154611f55565b600155600254611f48565b600255336000526007602052604060002090815491600160401b831015610d035760018301808255831015610ced57859288916000526020600020015533877f65fc0eb45954044fb55e1b01344d5d72fbfdf88e732d955f73bb7fb2bcc131e9600080a3808210610ca7575b5050818410610abd575b50506001600160801b0360809460405194855216602084015260408301526060820152f35b5460405163095ea7b360e01b602082019081526001600160a01b039092166024820152600060448083018290528252918291610af881611ebd565b51908273fff9976782d46cc05630d1f6ebab18b2324d6b145af1610b1a612041565b81610c78575b5015610c1f576000610b33848293611f64565b60405163a9059cbb60e01b602082019081523360248301526044820192909252610b6081606481016106af565b51908273fff9976782d46cc05630d1f6ebab18b2324d6b145af1610b82612041565b81610bf0575b5015610b95573880610a98565b60405162461bcd60e51b815260206004820152602d60248201527f5472616e7366657248656c7065723a3a736166655472616e736665723a20747260448201526c185b9cd9995c8819985a5b1959609a1b6064820152608490fd5b8051801592508215610c05575b505038610b88565b610c189250602080918301019101612081565b3880610bfd565b60405162461bcd60e51b815260206004820152602b60248201527f5472616e7366657248656c7065723a3a73616665417070726f76653a2061707060448201526a1c9bdd994819985a5b195960aa1b6064820152608490fd5b8051801592508215610c8d575b505038610b20565b610ca09250602080918301019101612081565b3880610c85565b6005548354610ce693610cd39390929091610cce916001600160a01b039182169116612099565b611f64565b60055433906001600160a01b031661215e565b8238610a8e565b634e487b7160e01b600052603260045260246000fd5b634e487b7160e01b600052604160045260246000fd5b819550809293503d8311610dce575b610d328183611ed9565b8101031261041b5782516001600160601b0381160361041b57610d5760208401611efb565b50610d6460408401611efb565b610d7060608501611efb565b92608085015162ffffff81160361010f5750610d8e60a08501611f0f565b50610d9b60c08501611f0f565b50610dc3610160610dae60e08701611f1d565b95610dbc6101408201611f1d565b5001611f1d565b509192903880610913565b503d610d28565b6040513d6000823e3d90fd5b97509450945091506080853d608011610e2f575b81610e0260809383611ed9565b8101031261041b57845191610e1960208701611f1d565b94606060408801519701519395969394386108ce565b3d9150610df5565b604051903d90823e3d90fd5b8051801592508215610e58575b50503861076d565b610e6b9250602080918301019101612081565b3880610e50565b60405162461bcd60e51b815260206004820152603160248201527f5472616e7366657248656c7065723a3a7472616e7366657246726f6d3a207472604482015270185b9cd9995c919c9bdb4819985a5b1959607a1b6064820152608490fd5b8051801592508215610ee6575b5050386106e5565b610ef99250602080918301019101612081565b3880610ede565b60405162461bcd60e51b815260206004820152601a60248201527f496e73756666696369656e7420574554482062616c616e6365210000000000006044820152606490fd5b9150506020813d602011610f77575b81610f6160209383611ed9565b81010312610f725782905138610667565b600080fd5b3d9150610f54565b6040513d86823e3d90fd5b60405162461bcd60e51b815260206004820152601860248201527f496e73756666696369656e74204652432062616c6163652100000000000000006044820152606490fd5b9150506020813d602011610ffc575b81610feb60209383611ed9565b81010312610f725785905138610627565b3d9150610fde565b6040513d87823e3d90fd5b503461010f57602036600319011261010f57611029611e71565b6004546001600160a01b0391906110439083163314611ffe565b166001600160601b0360a01b600354161760035580f35b503461010f576020908160031936011261010f57611076611e71565b6003546001600160a01b0391906110909083163314611ffe565b168152600782526040812090604051808385829554938481520190845285842092845b87828210611102575050506110ca92500383611ed9565b805b82518110156110f857806110e260019285611fca565b51835260068552426004604085200155016110cc565b8360405160018152f35b85548452600195860195889550930192016110b3565b503461010f57604036600319011261010f576024359060ff821680920361010f576004358152600660205260408120546001600160a01b0316330361184e5781151580611843575b156117fe5760043581526006602052600560408220015442106117c557600435815260066020526001600160801b03600160408320015416918202916001600160801b0383169283036117b1576001600160801b03606484041615611761576040519160a0830183811067ffffffffffffffff8211176115f95760405260043583526001600160801b03606485041660208401528060408401528060608401524260808401526040608060a460018060a01b03845416958484519788948593630624e65f60e11b8552805160048601526001600160801b03602082015116602486015287810151604486015260608101516064860152015160848401525af1918215611754578193829361172d575b5061127d8385600435611f87565b6001600160801b036064860416146112ba575b506112ab6001600160801b0360646040950416600254611f64565b60025582519182526020820152f35b926040516080810181811067ffffffffffffffff8211176117195790859160405260043581526040602082013081526084828401936001600160801b03855285606082016001600160801b0381526001600160801b0360018060a01b0383541691818851998a98899763fc6f786560e01b895251600489015260018060a01b03905116602488015251166044860152511660648401525af1801561170e5761139291839084926116dc575b50606461137182611f31565b0492839161138c606461138386611f31565b04938492611f64565b93611f64565b84805260066020526040852080546002820154600383015460019093015493966001600160801b03909416946001600160a01b039384169492841693909291166113de823033846121e6565b6113ea833033886121e6565b88546114019083906001600160a01b03168361211f565b88546114189084906001600160a01b03168761211f565b60405161142481611ea1565b8981528260208201528360408201528960608201528960808201524260a0820152606060a060c4600180831b038d5416938d604051958694859363219f5d1760e01b855280516004860152602081015160248601526040810151604486015287810151606486015260808101516084860152015160a48401525af19687156116d1578a8b928c99611667575b50916114d56114cd6114f99d936001600160801b038a9616611f64565b600254611f48565b60025584811061163f575b5050505050808410611611575b50505050600435611f87565b6004358452600660205283600560408220828155826001820155826002820155826003820155826004820155015560018060a01b03845416803b1561160d57604051632142170760e11b8152306004808301919091523360248301523560448201529085908290606490829084905af18015611004576115dd575b5060015480156115c95760646112ab926040966001600160801b03936000190160015533907f18e9d3644c306f9be50ade92ee325ee173812431fa971a0b8d46f9eb707396016004359180a395505050611290565b634e487b7160e01b85526011600452602485fd5b67ffffffffffffffff81959295116115f9576040529238611574565b634e487b7160e01b82526041600452602482fd5b8480fd5b8a5461163694611630929091610cce906001600160a01b031686612099565b9161215e565b388080806114ed565b905461165d946116309291610cce906001600160a01b031686612099565b3880838d826114e0565b98505090506060873d6060116116c9575b8161168560609383611ed9565b810103126116c5576114f999876114d56114cd88946001600160801b03604060206116af87611f1d565b9601519d0151959f50949b955093506114b09050565b8980fd5b3d9150611678565b6040513d8c823e3d90fd5b9050611700915060403d604011611707575b6116f88183611ed9565b810190611f71565b9038611365565b503d6116ee565b6040513d84823e3d90fd5b634e487b7160e01b86526041600452602486fd5b90925061174a91935060403d604011611707576116f88183611ed9565b929092913861126f565b50604051903d90823e3d90fd5b60405162461bcd60e51b815260206004820152602260248201527f4c697175696469747920746f2072656d6f76652063616e6e6f74206265207a65604482015261726f60f01b6064820152608490fd5b634e487b7160e01b82526011600452602482fd5b60405162461bcd60e51b8152602060048201526011602482015270131bd8dac81d1a5b59481b9bdd081b595d607a1b6044820152606490fd5b60405162461bcd60e51b815260206004820152601860248201527f496e76616c69642070657263656e746167652076616c756500000000000000006044820152606490fd5b506064821115611160565b60405162461bcd60e51b815260206004820152600d60248201526c2737ba103a34329037bbb732b960991b6044820152606490fd5b503461010f5761189236611e87565b828452600660205260408420805460028201546003830154600193909301546001600160a01b03918216976001600160801b0391821697919691959483169390921691906118e28130338c6121e6565b6118ee853033876121e6565b81546119059082906001600160a01b03168b61211f565b815461191c9086906001600160a01b03168661211f565b6040519561192987611ea1565b86526020860181815260408088018781526060808a0186815260808b018781524260a08d019081528854955163219f5d1760e01b81529c5160048e0152955160248d0152925160448c01525160648b0152905160848a0152915160a4890152879060c490829086906001600160a01b03165af196871561170e578283978499611a43575b5087926119c46114cd60609d948894169c8d611f64565b600255808410611a1b575b50505050858481106119f3575b505050505060405192835260208301526040820152f35b9054611a11946116309291610cce906001600160a01b031686612099565b38808080856119dc565b8454611a3a94611630929091610cce906001600160a01b031686612099565b843883816119cf565b98505095506060873d606011611a90575b81611a6160609383611ed9565b8101031261041b5760609883611a7689611f1d565b60208a01516040909a0151929b50919897919050876119ad565b3d9150611a54565b503461010f576020908160031936011261010f57611ab4611e71565b600154829182906001600160a01b0390811690825b848110611b10578787878152600682526001600160801b039081600160408320015416918211611afc5750604051908152f35b634e487b7160e01b81526011600452602490fd5b80875260068852828260408920541614611b33575b611b2e90611f55565b611ac9565b929450611b2e611b438496611f55565b939050611b25565b503461010f57608036600319011261010f57611b65611e71565b6001600160a01b0391602480358481160361041b576044359260643567ffffffffffffffff80821161160d573660238301121561160d57816004013590811161160d57369101830111611e51578483541694853303611e1b57604051809663133f757160e31b825286600483015281856101809384935afa801561100457859786928792611d5f575b50506309660180420192834211611d4c579287611cbb9593600593868a9760405197611c1989611ea1565b169c8d8852602088018260406001600160801b038096169b8c845282828d01951685528260608d019816885260808c0198428a5260a08d019a8b528152600660205220995116936001600160601b0360a01b94858b5416178a5560018a019151166001600160801b0319825416179055816002890191511683825416179055600387019251169082541617905551600484015551910155610a17600154611f55565b600255838252600760205260408220805491600160401b831015611d3a5760018301808355831015611d285750825260208220018290557f65fc0eb45954044fb55e1b01344d5d72fbfdf88e732d955f73bb7fb2bcc131e99080a3604051630a85bd0160e11b8152602090f35b634e487b7160e01b8452603260045283fd5b634e487b7160e01b8452604160045283fd5b634e487b7160e01b875260116004528587fd5b925097505086813d8311611e14575b611d788183611ed9565b81010312611e105785516001600160601b03811603611e1057611d9d60208701611efb565b50611daa60408701611efb565b95611db760608201611efb565b96608082015162ffffff811603611e0c57611dd460a08301611f0f565b50611de160c08301611f0f565b50611e02610160611df460e08501611f1d565b93610dbc6101408201611f1d565b5096903880611bee565b8580fd5b8380fd5b503d611d6e565b60405162461bcd60e51b815260206004820152600f818501526e1b9bdd0818481d5b9a5d8cc81b999d608a1b6044820152606490fd5b8280fd5b90503461041b578160031936011261041b5780610bb860209252f35b600435906001600160a01b0382168203610f7257565b6060906003190112610f7257600435906024359060443590565b60c0810190811067ffffffffffffffff821117610d0357604052565b6080810190811067ffffffffffffffff821117610d0357604052565b90601f8019910116810190811067ffffffffffffffff821117610d0357604052565b51906001600160a01b0382168203610f7257565b51908160020b8203610f7257565b51906001600160801b0382168203610f7257565b906127109182810292818404149015171561024157565b9190820180921161024157565b60001981146102415760010190565b9190820391821161024157565b9190826040910312610f72576020825192015190565b600090815260066020526040902080546002820154600390920154611fc894936001600160a01b039283169391831692611fc39285911661215e565b61215e565b565b8051821015610ced5760209160051b010190565b8115611fe8570490565b634e487b7160e01b600052601260045260246000fd5b1561200557565b60405162461bcd60e51b8152602060048201526014602482015273556e617574686f72697a6520616464726573732160601b6044820152606490fd5b3d1561207c573d9067ffffffffffffffff8211610d035760405191612070601f8201601f191660200184611ed9565b82523d6000602084013e565b606090565b90816020910312610f7257518015158103610f725790565b60405163095ea7b360e01b602082019081526001600160a01b0390931660248201526000604480830182905282529283929183906120d681611ebd565b51925af16120e2612041565b816120f0575b5015610c1f57565b8051801592508215612105575b5050386120e8565b6121189250602080918301019101612081565b38806120fd565b60405163095ea7b360e01b602082019081526001600160a01b039093166024820152604481019390935260009283929083906120d681606481016106af565b60405163a9059cbb60e01b602082019081526001600160a01b0390931660248201526044810193909352600092839290839061219d81606481016106af565b51925af16121a9612041565b816121b7575b5015610b9557565b80518015925082156121cc575b5050386121af565b6121df9250602080918301019101612081565b38806121c4565b6040516323b872dd60e01b602082019081526001600160a01b039384166024830152939092166044830152606482019390935260009283929091839061222f81608481016106af565b51925af161223b612041565b81612249575b5015610e7257565b805180159250821561225e575b505038612241565b6122719250602080918301019101612081565b388061225656fea2646970667358221220e733af73bb18e0adfe4eb4be73836d31d34b7c756a6e20bad1f0c1a7c87503a164736f6c63430008110033",
  "linkReferences": {},
  "deployedLinkReferences": {}
}