{
  "_format": "hh-sol-artifact-1",
  "contractName": "LiquidityPool",
  "sourceName": "contracts/governance/LiquidityPool.sol",
  "abi": [
    {
      "inputs": [
        {
          "internalType": "address",
          "name": "_token",
          "type": "address"
        }
      ],
      "stateMutability": "nonpayable",
      "type": "constructor"
    },
    {
      "anonymous": false,
      "inputs": [
        {
          "indexed": true,
          "internalType": "uint256",
          "name": "tokenId",
          "type": "uint256"
        },
        {
          "indexed": true,
          "internalType": "address",
          "name": "owner",
          "type": "address"
        }
      ],
      "name": "PoolCreated",
      "type": "event"
    },
    {
      "anonymous": false,
      "inputs": [
        {
          "indexed": true,
          "internalType": "uint256",
          "name": "tokenId",
          "type": "uint256"
        },
        {
          "indexed": true,
          "internalType": "address",
          "name": "owner",
          "type": "address"
        }
      ],
      "name": "PoolRemoved",
      "type": "event"
    },
    {
      "inputs": [
        {
          "internalType": "uint256",
          "name": "_amount0",
          "type": "uint256"
        },
        {
          "internalType": "uint256",
          "name": "_amount1",
          "type": "uint256"
        },
        {
          "internalType": "uint256",
          "name": "_lockYears",
          "type": "uint256"
        }
      ],
      "name": "creatPool",
      "outputs": [
        {
          "internalType": "uint256",
          "name": "tokenId",
          "type": "uint256"
        },
        {
          "internalType": "uint128",
          "name": "liquidity",
          "type": "uint128"
        },
        {
          "internalType": "uint256",
          "name": "amount0",
          "type": "uint256"
        },
        {
          "internalType": "uint256",
          "name": "amount1",
          "type": "uint256"
        }
      ],
      "stateMutability": "nonpayable",
      "type": "function"
    },
    {
      "inputs": [
        {
          "internalType": "uint256",
          "name": "tokenId",
          "type": "uint256"
        },
        {
          "internalType": "uint8",
          "name": "percentageToRemove",
          "type": "uint8"
        }
      ],
      "name": "decreaseLiquidity",
      "outputs": [
        {
          "internalType": "uint256",
          "name": "amount0",
          "type": "uint256"
        },
        {
          "internalType": "uint256",
          "name": "amount1",
          "type": "uint256"
        }
      ],
      "stateMutability": "nonpayable",
      "type": "function"
    },
    {
      "inputs": [
        {
          "internalType": "address",
          "name": "user",
          "type": "address"
        }
      ],
      "name": "getLiquidityLpOf",
      "outputs": [
        {
          "internalType": "uint128",
          "name": "",
          "type": "uint128"
        }
      ],
      "stateMutability": "view",
      "type": "function"
    },
    {
      "inputs": [
        {
          "internalType": "uint256",
          "name": "tokenId",
          "type": "uint256"
        }
      ],
      "name": "getPoolInfo",
      "outputs": [
        {
          "internalType": "address",
          "name": "owner",
          "type": "address"
        },
        {
          "internalType": "uint128",
          "name": "liquidity",
          "type": "uint128"
        },
        {
          "internalType": "address",
          "name": "token0",
          "type": "address"
        },
        {
          "internalType": "address",
          "name": "token1",
          "type": "address"
        },
        {
          "internalType": "uint256",
          "name": "lockedStart",
          "type": "uint256"
        },
        {
          "internalType": "uint256",
          "name": "lockedEnd",
          "type": "uint256"
        }
      ],
      "stateMutability": "view",
      "type": "function"
    },
    {
      "inputs": [
        {
          "internalType": "uint256",
          "name": "tokenId",
          "type": "uint256"
        },
        {
          "internalType": "uint256",
          "name": "amountAdd0",
          "type": "uint256"
        },
        {
          "internalType": "uint256",
          "name": "amountAdd1",
          "type": "uint256"
        }
      ],
      "name": "increaseLiquidityCurrentRange",
      "outputs": [
        {
          "internalType": "uint128",
          "name": "liquidity",
          "type": "uint128"
        },
        {
          "internalType": "uint256",
          "name": "amount0",
          "type": "uint256"
        },
        {
          "internalType": "uint256",
          "name": "amount1",
          "type": "uint256"
        }
      ],
      "stateMutability": "nonpayable",
      "type": "function"
    },
    {
      "inputs": [],
      "name": "nonfungiblePositionManager",
      "outputs": [
        {
          "internalType": "address",
          "name": "",
          "type": "address"
        }
      ],
      "stateMutability": "view",
      "type": "function"
    },
    {
      "inputs": [
        {
          "internalType": "address",
          "name": "operator",
          "type": "address"
        },
        {
          "internalType": "address",
          "name": "",
          "type": "address"
        },
        {
          "internalType": "uint256",
          "name": "tokenId",
          "type": "uint256"
        },
        {
          "internalType": "bytes",
          "name": "",
          "type": "bytes"
        }
      ],
      "name": "onERC721Received",
      "outputs": [
        {
          "internalType": "bytes4",
          "name": "",
          "type": "bytes4"
        }
      ],
      "stateMutability": "nonpayable",
      "type": "function"
    },
    {
      "inputs": [],
      "name": "poolFee",
      "outputs": [
        {
          "internalType": "uint24",
          "name": "",
          "type": "uint24"
        }
      ],
      "stateMutability": "view",
      "type": "function"
    },
    {
      "inputs": [
        {
          "internalType": "address",
          "name": "_owner",
          "type": "address"
        }
      ],
      "name": "poolOfAddress",
      "outputs": [
        {
          "internalType": "uint256",
          "name": "tokenId",
          "type": "uint256"
        }
      ],
      "stateMutability": "view",
      "type": "function"
    },
    {
      "inputs": [
        {
          "internalType": "uint256",
          "name": "",
          "type": "uint256"
        }
      ],
      "name": "pools",
      "outputs": [
        {
          "internalType": "address",
          "name": "owner",
          "type": "address"
        },
        {
          "internalType": "uint128",
          "name": "liquidity",
          "type": "uint128"
        },
        {
          "internalType": "address",
          "name": "token0",
          "type": "address"
        },
        {
          "internalType": "address",
          "name": "token1",
          "type": "address"
        },
        {
          "internalType": "uint256",
          "name": "lockedStart",
          "type": "uint256"
        },
        {
          "internalType": "uint256",
          "name": "lockedEnd",
          "type": "uint256"
        }
      ],
      "stateMutability": "view",
      "type": "function"
    },
    {
      "inputs": [],
      "name": "taxFee",
      "outputs": [
        {
          "internalType": "uint24",
          "name": "",
          "type": "uint24"
        }
      ],
      "stateMutability": "view",
      "type": "function"
    },
    {
      "inputs": [],
      "name": "totalLiquidityOfPool",
      "outputs": [
        {
          "internalType": "uint256",
          "name": "",
          "type": "uint256"
        }
      ],
      "stateMutability": "view",
      "type": "function"
    },
    {
      "inputs": [],
      "name": "totalLiquidityStaked",
      "outputs": [
        {
          "internalType": "uint256",
          "name": "",
          "type": "uint256"
        }
      ],
      "stateMutability": "view",
      "type": "function"
    },
    {
      "inputs": [],
      "name": "totalPool",
      "outputs": [
        {
          "internalType": "uint256",
          "name": "",
          "type": "uint256"
        }
      ],
      "stateMutability": "view",
      "type": "function"
    },
    {
      "inputs": [],
      "name": "totalPools",
      "outputs": [
        {
          "internalType": "uint256",
          "name": "",
          "type": "uint256"
        }
      ],
      "stateMutability": "view",
      "type": "function"
    }
  ],
  "bytecode": "0x60803461007857601f611b3538819003918201601f19168301916001600160401b0383118484101761007d5780849260209460405283398101031261007857516001600160a01b0381169081900361007857600280546001600160a01b03191691909117905560008055604051611aa190816100948239f35b600080fd5b634e487b7160e01b600052604160045260246000fdfe608080604052600436101561001357600080fd5b600090813560e01c908163089fe6aa146116ae57508063150b7a02146113d557806316326252146113235780632f37e210146100e55780632f380b35146101a8578063617d6d6e1461112f57806362580aec146108fe5780639e7d25da14610267578063a071dcf41461024a578063ab3c7e521461022d578063ac4afa38146101a8578063b13bef061461012c578063b44a272214610103578063e86f6a0d146100e55763ecfb49a3146100c657600080fd5b346100e257806003193601126100e25760209054604051908152f35b80fd5b50346100e257806003193601126100e2576020600154604051908152f35b50346100e257806003193601126100e2576020604051600080516020611a4c8339815191528152f35b50346100e257602090816003193601126100e2576101486116ca565b81549082906001600160a01b039081169082805b85811061016d578787604051908152f35b80825260038852838360408420541614610190575b61018b9061179c565b61015c565b93955061018b6101a0859761179c565b949050610182565b50346100e25760203660031901126100e25760048035825260036020818152604093849020805460018201546002830154948301549583015460059093015487516001600160a01b0393841681526001600160801b039092169482019490945293811695840195909552939092166060820152608081019290925260a082015260c090f35b50346100e257806003193601126100e25760209054604051908152f35b50346100e257806003193601126100e25760206040516127108152f35b50346100e257610276366116e5565b90926102908360018060a01b0360025416309033906119b9565b6002546102a79084906001600160a01b03166118f2565b60025460405194906001600160a01b0316610160860167ffffffffffffffff8111878210176108e8576040528552816020860152610bb86040860152620d89e7196060860152620d89e860808601528360a08601528060c08601528160e086015281610100860152306101208601524261014086015261014060405195634418b22b60e11b875260018060a01b03815116600488015260018060a01b03602082015116602488015262ffffff6040820151166044880152606081015160020b6064880152608081015160020b608488015260a081015160a488015260c081015160c488015260e081015160e488015261010081015161010488015260018060a01b036101208201511661012488015201516101448601526080856101648185600080516020611a4c8339815191525af19283156108dd5782948396848096610884575b505060405163133f757160e31b81526004810187905261018092908381602481600080516020611a4c8339815191525afa801561087857600091829583926107be575b50506301e133809280848102048414811517156107a85787958a61045861053e96600594024261178f565b916001600160801b036040519561046e876116ff565b33875216956020860190878252604087019060018060a01b03168152606087019260018060a01b03168352608087019342855260a08801958652600052600360205260406000209660018060a01b03905116916001600160601b0360a01b92838954161788556001600160801b03600189019151166001600160801b0319825416179055600287019060018060a01b0390511682825416179055600386019160018060a01b03905116908254161790555160048401555191015561053360005461179c565b60005560015461178f565b60015533867f65fc0eb45954044fb55e1b01344d5d72fbfdf88e732d955f73bb7fb2bcc131e9600080a380821061076a575b505080831061059e575b506001600160801b0360809460405194855216602084015260408301526060820152f35b600080604051602081019063095ea7b360e01b8252600080516020611a4c8339815191526024820152826044820152604481526105da8161171b565b519082805af16105e8611813565b8161073b575b50156106e25760006106018482936117ab565b60405163a9059cbb60e01b60208201908152336024830152604482019290925261063881606481015b03601f198101835282611737565b519082805af1610646611813565b816106b3575b5015610658573861057a565b60405162461bcd60e51b815260206004820152602d60248201527f5472616e7366657248656c7065723a3a736166655472616e736665723a20747260448201526c185b9cd9995c8819985a5b1959609a1b6064820152608490fd5b80518015925082156106c8575b50503861064c565b6106db9250602080918301019101611853565b38806106c0565b60405162461bcd60e51b815260206004820152602b60248201527f5472616e7366657248656c7065723a3a73616665417070726f76653a2061707060448201526a1c9bdd994819985a5b195960aa1b6064820152608490fd5b8051801592508215610750575b5050386105ee565b6107639250602080918301019101611853565b3880610748565b6002546107a19261078e929091610789906001600160a01b031661186b565b6117ab565b60025433906001600160a01b0316611931565b8138610570565b634e487b7160e01b600052601160045260246000fd5b8196508092503d8311610871575b6107d68183611737565b810103126100e25783516001600160601b038116036100e2576107fb60208501611759565b5061080860408501611759565b61081460608601611759565b91608086015162ffffff8116036100e2575061083260a0860161176d565b5061083f60c0860161176d565b5061086761016061085260e0880161177b565b96610860610140820161177b565b500161177b565b509093388061042d565b503d6107cc565b6040513d6000823e3d90fd5b9394509650935093506080853d6080116108d5575b816108a660809383611737565b810103126100e257508351906108be6020860161177b565b9360606040870151960151929495929338806103ea565b3d9150610899565b6040513d84823e3d90fd5b634e487b7160e01b600052604160045260246000fd5b50346100e25760403660031901126100e2576024359060ff82168092036100e2576004358152600360205260408120546001600160a01b031633036110fa57811515806110ef575b156110aa57600435815260036020526005604082200154421061107157600435815260036020526001600160801b03600160408320015416918202916001600160801b03831692830361105d576001600160801b0360648404161561100d576040519160a0830183811067ffffffffffffffff821117610e1a5760405260043583526001600160801b0360648504166020840152806040840152806060840152426080840152608060405193630624e65f60e11b8552805160048601526001600160801b03602082015116602486015260408101516044860152606081015160648601520151608484015260408360a48184600080516020611a4c8339815191525af19182156110005781938293610fd9575b50610a6783856004356117ce565b6001600160801b03606486041614610aa4575b50610a956001600160801b03606460409504166001546117ab565b60015582519182526020820152f35b9260405180608081011067ffffffffffffffff608083011117610fc55760808101604090815260048035835230602084019081526001600160801b0383850181815260608601828152855163fc6f786560e01b815296519487019490945291516001600160a01b0316602486015290518116604485015290511660648301528160848188600080516020611a4c8339815191525af1908115610e2e5785908692610f93575b50612710918083810204831481151715610f7f57868052600360208181526040808a20805460028201549482015460019092015492516323b872dd60e01b9481019490945233602485015230604485015260648085018d905284526001600160a01b0394851694918216939116916001600160801b03169060a0810180821167ffffffffffffffff90911117610f6b578b8160a082930160405260208151910182885af1610bf5611813565b81610f3c575b5015610edd57610c1c8b94610c1760648a8902043033886119b9565b61186b565b610c2b606488870204846118f2565b6060604051610c39816116ff565b85815260c46020820191878352604081019760648c8b020489528482018181526080830182815260a08401914283526040519b8c97889663219f5d1760e01b88525160048801525160248701525160448601525160648501525160848401525160a4830152600080516020611a4c8339815191525af1938415610ed2578b908c95610e65575b5092610d0f9792610ceb610ce3610d069897946001600160801b03606498166117ab565b60015461178f565b60015584848702048310610e3d575b505050820204906117ab565b906004356117ce565b60043584526003602052836005604082208281558260018201558260028201558260038201558260048201550155600080516020611a4c8339815191523b15610e3957604051632142170760e11b815230600480830191909152336024830152356044820152848160648183600080516020611a4c8339815191525af18015610e2e57610dfe575b5083548015610dea576064610a95926040966001600160801b039360001901815533907f18e9d3644c306f9be50ade92ee325ee173812431fa971a0b8d46f9eb707396016004359180a395505050610a7a565b634e487b7160e01b85526011600452602485fd5b67ffffffffffffffff8195929511610e1a576040529238610d97565b634e487b7160e01b82526041600452602482fd5b6040513d87823e3d90fd5b8380fd5b610e57610e5d93610e4d8461186b565b86868902046117ab565b91611931565b388080610cfa565b91939792959450506060813d606011610eca575b81610e8660609383611737565b81010312610ec657610d0f96610d0695610ceb610ce36064966001600160801b036040610eb28861177b565b970151999a50509493965050509297610cbf565b8a80fd5b3d9150610e79565b6040513d8d823e3d90fd5b60405162461bcd60e51b815260206004820152603160248201527f5472616e7366657248656c7065723a3a7472616e7366657246726f6d3a207472604482015270185b9cd9995c919c9bdb4819985a5b1959607a1b6064820152608490fd5b8051801592508215610f51575b505038610bfb565b610f649250602080918301019101611853565b3880610f49565b634e487b7160e01b8c52604160045260248cfd5b634e487b7160e01b87526011600452602487fd5b9050610fb7915060403d604011610fbe575b610faf8183611737565b8101906117b8565b9038610b49565b503d610fa5565b634e487b7160e01b85526041600452602485fd5b909250610ff691935060403d604011610fbe57610faf8183611737565b9290929138610a59565b50604051903d90823e3d90fd5b60405162461bcd60e51b815260206004820152602260248201527f4c697175696469747920746f2072656d6f76652063616e6e6f74206265207a65604482015261726f60f01b6064820152608490fd5b634e487b7160e01b82526011600452602482fd5b60405162461bcd60e51b8152602060048201526011602482015270131bd8dac81d1a5b59481b9bdd081b595d607a1b6044820152606490fd5b60405162461bcd60e51b815260206004820152601860248201527f496e76616c69642070657263656e746167652076616c756500000000000000006044820152606490fd5b506064821115610946565b60405162461bcd60e51b815260206004820152600d60248201526c2737ba103a34329037bbb732b960991b6044820152606490fd5b50346100e25761113e366116e5565b8284526003602081905260408520805460028201549282015460019092015494956001600160801b03958616959490936001600160a01b0393841693928316921661118b883033846119b9565b611197823033876119b9565b6111a188826118f2565b6111ab82856118f2565b604051946111b8866116ff565b855260208501978089526040860198838a526060998a88018c815260808901918d835260a08a01934285526040519a63219f5d1760e01b8c525160048c01525160248b01525160448a01525160648901525160848801525160a4870152888660c4818d600080516020611a4c8339815191525af1968715611318578a8b978c996112ba575b5088999a9b5091611259610ce387938a9b9a9695169c8d6117ab565b6001558084106112a0575b50505050808410611286575b5050505060405192835260208301526040820152f35b61129793610e57916107898561186b565b81388080611270565b6112b193610e57916107898561186b565b84388381611264565b9750509650908886813d8311611311575b6112d58183611737565b8101031261130d57610ce39697989950836112ef8761177b565b60208801516040909801518c9b9a909950929392915061125961123d565b8980fd5b503d6112cb565b6040513d8c823e3d90fd5b50346100e257602090816003193601126100e25761133f6116ca565b8154829182906001600160a01b0390811690825b84811061139a578787878152600382526001600160801b0390816001604083200154169182116113865750604051908152f35b634e487b7160e01b81526011600452602490fd5b808752600388528282604089205416146113bd575b6113b89061179c565b611353565b9294506113b86113cd849661179c565b9390506113af565b50346100e25760803660031901126100e2576113ef6116ca565b6001600160a01b0391602435838116036100e2576044359160643567ffffffffffffffff808211610e395736602383011215610e39578160040135908111610e3957369101602401116116aa57600080516020611a4c8339815191529081330361167357604051809263133f757160e31b82528560048301528160246101809384935afa958615611668578493859286986115aa575b50506309660180420191824211611596577f65fc0eb45954044fb55e1b01344d5d72fbfdf88e732d955f73bb7fb2bcc131e99594928260059261157f9694604051956114d0876116ff565b169a8b865260208601926001600160801b0380921697888552816040890191168152816060890194168452608088019442865260a089019687528d8c5260036020528260408d20995116936001600160601b0360a01b94858b5416178a5560018a019151166001600160801b0319825416179055816002890191511683825416179055600387019251169082541617905551600484015551910155611575835461179c565b835560015461178f565b60015580a3604051630a85bd0160e11b8152602090f35b634e487b7160e01b86526011600452602486fd5b92509350955082813d8311611661575b6115c48183611737565b8101031261165d5781516001600160601b0381160361165d576115e960208301611759565b506115f660408301611759565b9161160360608201611759565b92608082015162ffffff8116036116595761162060a0830161176d565b5061162d60c0830161176d565b5061164e61016061164060e0850161177b565b93610860610140820161177b565b509290953880611485565b8480fd5b8280fd5b503d6115ba565b6040513d86823e3d90fd5b60405162461bcd60e51b815260206004820152600f60248201526e1b9bdd0818481d5b9a5d8cc81b999d608a1b6044820152606490fd5b5080fd5b9050346116aa57816003193601126116aa5780610bb860209252f35b600435906001600160a01b03821682036116e057565b600080fd5b60609060031901126116e057600435906024359060443590565b60c0810190811067ffffffffffffffff8211176108e857604052565b6080810190811067ffffffffffffffff8211176108e857604052565b90601f8019910116810190811067ffffffffffffffff8211176108e857604052565b51906001600160a01b03821682036116e057565b51908160020b82036116e057565b51906001600160801b03821682036116e057565b919082018092116107a857565b60001981146107a85760010190565b919082039182116107a857565b91908260409103126116e0576020825192015190565b906118119291600052600360205260018060a01b0361180c816040600020541692838360026040600020015416936003604060002001541693611931565b611931565b565b3d1561184e573d9067ffffffffffffffff82116108e85760405191611842601f8201601f191660200184611737565b82523d6000602084013e565b606090565b908160209103126116e0575180151581036116e05790565b6000809160405182602082019163095ea7b360e01b8352600080516020611a4c8339815191526024820152816044820152604481526118a98161171b565b51925af16118b5611813565b816118c3575b50156106e257565b80518015925082156118d8575b5050386118bb565b6118eb9250602080918301019101611853565b38806118d0565b60009190829182604051602081019263095ea7b360e01b8452600080516020611a4c83398151915260248301526044820152604481526118a98161171b565b60405163a9059cbb60e01b602082019081526001600160a01b03909316602482015260448101939093526000928392908390611970816064810161062a565b51925af161197c611813565b8161198a575b501561065857565b805180159250821561199f575b505038611982565b6119b29250602080918301019101611853565b3880611997565b6040516323b872dd60e01b602082019081526001600160a01b0393841660248301529390921660448301526064820193909352600092839290918390611a02816084810161062a565b51925af1611a0e611813565b81611a1c575b5015610edd57565b8051801592508215611a31575b505038611a14565b611a449250602080918301019101611853565b3880611a2956fe0000000000000000000000001238536071e1c677a632429e3655c799b22cda52a264697066735822122071b2647587d684f934518b02045a3f279f2d9e3f4e2e9db9386656cd5436426e64736f6c63430008110033",
  "linkReferences": {},
  "deployedLinkReferences": {}
}