{
  "_format": "hh-sol-artifact-1",
  "contractName": "FlappyOwlGovernor",
  "sourceName": "contracts/utils/FlappyOwlGovernor.sol",
  "abi": [
    {
      "inputs": [
        {
          "internalType": "address",
          "name": "_tokenAddress",
          "type": "address"
        },
        {
          "internalType": "address",
          "name": "_lpStakingAddress",
          "type": "address"
        },
        {
          "internalType": "address",
          "name": "_nftStakingAddress",
          "type": "address"
        },
        {
          "internalType": "uint256",
          "name": "_initialRewardPerBlock",
          "type": "uint256"
        }
      ],
      "stateMutability": "nonpayable",
      "type": "constructor"
    },
    {
      "inputs": [],
      "name": "FlappyOwlPos__ItemAlreadyStaked",
      "type": "error"
    },
    {
      "inputs": [],
      "name": "FlappyOwlPos__NotItemOwner",
      "type": "error"
    },
    {
      "inputs": [],
      "name": "NotAuthenticNfts",
      "type": "error"
    },
    {
      "inputs": [],
      "name": "NotHavePoolPosition",
      "type": "error"
    },
    {
      "inputs": [],
      "name": "NotHaveStakedNfts",
      "type": "error"
    },
    {
      "anonymous": false,
      "inputs": [
        {
          "indexed": true,
          "internalType": "address",
          "name": "owner",
          "type": "address"
        },
        {
          "indexed": true,
          "internalType": "uint256",
          "name": "reward",
          "type": "uint256"
        },
        {
          "indexed": true,
          "internalType": "uint256",
          "name": "blockclaimed",
          "type": "uint256"
        }
      ],
      "name": "Claimed",
      "type": "event"
    },
    {
      "anonymous": false,
      "inputs": [
        {
          "indexed": true,
          "internalType": "address",
          "name": "previousOwner",
          "type": "address"
        },
        {
          "indexed": true,
          "internalType": "address",
          "name": "newOwner",
          "type": "address"
        }
      ],
      "name": "OwnershipTransferred",
      "type": "event"
    },
    {
      "inputs": [
        {
          "internalType": "uint256",
          "name": "",
          "type": "uint256"
        }
      ],
      "name": "INITIAL_SUPPLY_ALLOCATION",
      "outputs": [
        {
          "internalType": "uint256",
          "name": "",
          "type": "uint256"
        }
      ],
      "stateMutability": "view",
      "type": "function"
    },
    {
      "inputs": [
        {
          "internalType": "uint256",
          "name": "",
          "type": "uint256"
        }
      ],
      "name": "INITIAL_SUPPLY_RECEIVER",
      "outputs": [
        {
          "internalType": "address",
          "name": "",
          "type": "address"
        }
      ],
      "stateMutability": "view",
      "type": "function"
    },
    {
      "inputs": [],
      "name": "_genesisSupplyFRC",
      "outputs": [],
      "stateMutability": "nonpayable",
      "type": "function"
    },
    {
      "inputs": [
        {
          "internalType": "address",
          "name": "_user",
          "type": "address"
        }
      ],
      "name": "claimReward",
      "outputs": [
        {
          "internalType": "bool",
          "name": "",
          "type": "bool"
        }
      ],
      "stateMutability": "nonpayable",
      "type": "function"
    },
    {
      "inputs": [
        {
          "internalType": "address",
          "name": "_user",
          "type": "address"
        }
      ],
      "name": "getUnclaimedRewards",
      "outputs": [
        {
          "internalType": "uint256",
          "name": "",
          "type": "uint256"
        }
      ],
      "stateMutability": "nonpayable",
      "type": "function"
    },
    {
      "inputs": [],
      "name": "initialSupply",
      "outputs": [
        {
          "internalType": "uint256",
          "name": "",
          "type": "uint256"
        }
      ],
      "stateMutability": "view",
      "type": "function"
    },
    {
      "inputs": [],
      "name": "initialSupplyMinted",
      "outputs": [
        {
          "internalType": "bool",
          "name": "",
          "type": "bool"
        }
      ],
      "stateMutability": "view",
      "type": "function"
    },
    {
      "inputs": [
        {
          "internalType": "address",
          "name": "",
          "type": "address"
        }
      ],
      "name": "lastClaimBlock",
      "outputs": [
        {
          "internalType": "uint256",
          "name": "",
          "type": "uint256"
        }
      ],
      "stateMutability": "view",
      "type": "function"
    },
    {
      "inputs": [],
      "name": "lastHalvingBlock",
      "outputs": [
        {
          "internalType": "uint256",
          "name": "",
          "type": "uint256"
        }
      ],
      "stateMutability": "view",
      "type": "function"
    },
    {
      "inputs": [],
      "name": "owner",
      "outputs": [
        {
          "internalType": "address",
          "name": "",
          "type": "address"
        }
      ],
      "stateMutability": "view",
      "type": "function"
    },
    {
      "inputs": [],
      "name": "renounceOwnership",
      "outputs": [],
      "stateMutability": "nonpayable",
      "type": "function"
    },
    {
      "inputs": [],
      "name": "rewardPerBlock",
      "outputs": [
        {
          "internalType": "uint256",
          "name": "",
          "type": "uint256"
        }
      ],
      "stateMutability": "view",
      "type": "function"
    },
    {
      "inputs": [
        {
          "internalType": "address",
          "name": "newOwner",
          "type": "address"
        }
      ],
      "name": "transferOwnership",
      "outputs": [],
      "stateMutability": "nonpayable",
      "type": "function"
    },
    {
      "inputs": [
        {
          "internalType": "address",
          "name": "_tokenAddress",
          "type": "address"
        },
        {
          "internalType": "address",
          "name": "_lpStakingAddress",
          "type": "address"
        },
        {
          "internalType": "address",
          "name": "_nftStakingAddress",
          "type": "address"
        }
      ],
      "name": "updateVaultInterface",
      "outputs": [],
      "stateMutability": "nonpayable",
      "type": "function"
    }
  ],
  "bytecode": "0x6080346200023757601f62000dad38819003918201601f19168301916001600160401b038311848410176200023c5780849260809460405283398101031262000237576200004d8162000272565b6020906200005d82840162000272565b9260606200006e6040830162000272565b91015160008054336001600160a01b031980831682178455939793966001600160a01b03969394939290919087167f8be0079c531659141344cd1fd0a4f28419497f9722a3daafe3b4186f6b6457e08680a36001908180556a115eec47f6cf7e35000000600555620000df62000252565b9473ee66bda0bc2c9ab72127ce90944b4048775f5fd98652738e14398d793938a3e17852320cb97d1479a05feb8287015273ee5a230528b70c6caa1cd17fa54aea481241deaa6040870152600a549560039687600a5580881062000219575b50600a82528282209084835b8981106200020457505050506200016062000252565b600f8152601983820152603c6040820152600b5487600b55808810620001e6575b50600b82528282208996959493925b888110620001d1575050505050821686600254161760025516848254161790551690600454161760045560075543600855604051610b0c9081620002a18239f35b8251818301558a975091830191840162000190565b600b8352838320620001fd91810190890162000287565b3862000181565b858c845116930192818501550185906200014a565b600a83528383206200023091810190890162000287565b386200013e565b600080fd5b634e487b7160e01b600052604160045260246000fd5b60405190606082016001600160401b038111838210176200023c57604052565b51906001600160a01b03821682036200023757565b81811062000293575050565b600081556001016200028756fe608060408181526004918236101561001657600080fd5b600092833560e01c918263378dc3dc146106dd5750816367e013d31461066057816369a69e2914610633578163715018a6146105d9578163724b2f5a146105ba5781638ae39cac1461059b5781638da5cb5b14610573578163959237bb146103ad578163a6b11c6014610356578163bd6271da14610308578163d279c191146101e4578163e93a6c90146101ac578163f2fde38b146100e5575063fc2ab6f2146100bf57600080fd5b346100e157816003193601126100e15760209060ff6006541690519015158152f35b5080fd5b9050346101a85760203660031901126101a8576101006106f9565b90610109610714565b6001600160a01b0391821692831561015657505082546001600160a01b0319811683178455167f8be0079c531659141344cd1fd0a4f28419497f9722a3daafe3b4186f6b6457e08380a380f35b906020608492519162461bcd60e51b8352820152602660248201527f4f776e61626c653a206e6577206f776e657220697320746865207a65726f206160448201526564647265737360d01b6064820152fd5b8280fd5b5050346100e15760203660031901126100e15760209181906001600160a01b036101d46106f9565b1681526009845220549051908152f35b82843461030557602092836003193601126100e1576102016106f9565b9261020b846107a4565b9182156102cb576001600160a01b039485168085526009875282852043905560025483516340c10f1960e01b815292830182815260208101869052919688928492908390036040019183918991165af180156102c157610294575b5051927f987d620f307ff6b94d58743cb7a7509f24071586a77759b77c2d4e29f75a2f9a439380a460018152f35b6102b390863d88116102ba575b6102ab818361076c565b810190610abe565b5085610266565b503d6102a1565b82513d86823e3d90fd5b85606492519162461bcd60e51b835282015260166024820152754e6f20726577617264732c20666f7220636c61696d2160501b6044820152fd5b80fd5b9050346101a85760203660031901126101a85735600b548110156101a857600b602093527f0175b7a638427703f0dbe7bb9bbf987a2551717b34e79f33b5b1008d1fa01db901549051908152f35b9050346101a85760203660031901126101a85735600a548110156101a857600a6020935260018060a01b03907fc65a7bb8d6351c1cf70c95a316cc6a92839c986682d98bc35f958f4883f9d2a80154169051908152f35b919050346101a857826003193601126101a8576103c8610714565b600a918254916006549360ff8516610530576001809560ff191617600655855b8481106103f3578680f35b815481101561051d577fc65a7bb8d6351c1cf70c95a316cc6a92839c986682d98bc35f958f4883f9d2a8810154600b80546001600160a01b0392831692919084101561050a576104ae8a92889284526064610474877f0175b7a638427703f0dbe7bb9bbf987a2551717b34e79f33b5b1008d1fa01db9015460055490610a8b565b0490600254169088519485809481936340c10f1960e01b83526020998a98840160209093929193604081019460018060a01b031681520152565b03925af18015610500576104e2575b505060001981146104cf5785016103e8565b634e487b7160e01b875260118452602487fd5b816104f892903d106102ba576102ab818361076c565b5038806104bd565b85513d8b823e3d90fd5b634e487b7160e01b8a526032875260248afd5b634e487b7160e01b875260328452602487fd5b815162461bcd60e51b8152602081850152601a60248201527f496e697469616c20537570706c7920486173204d696e746564210000000000006044820152606490fd5b5050346100e157816003193601126100e157905490516001600160a01b039091168152602090f35b5050346100e157816003193601126100e1576020906007549051908152f35b5050346100e157816003193601126100e1576020906008549051908152f35b83346103055780600319360112610305576105f2610714565b80546001600160a01b03198116825581906001600160a01b03167f8be0079c531659141344cd1fd0a4f28419497f9722a3daafe3b4186f6b6457e08280a380f35b5050346100e15760203660031901126100e1576020906106596106546106f9565b6107a4565b9051908152f35b8390346100e15760603660031901126100e15761067b6106f9565b6001600160a01b0390602435828116908190036106d957604435928084168094036106d5576106a8610714565b6bffffffffffffffffffffffff60a01b921682600254161760025581600354161760035582541617905580f35b8580fd5b8480fd5b8490346100e157816003193601126100e1576020906005548152f35b600435906001600160a01b038216820361070f57565b600080fd5b6000546001600160a01b0316330361072857565b606460405162461bcd60e51b815260206004820152602060248201527f4f776e61626c653a2063616c6c6572206973206e6f7420746865206f776e65726044820152fd5b90601f8019910116810190811067ffffffffffffffff82111761078e57604052565b634e487b7160e01b600052604160045260246000fd5b9060075490600854916127106107ba8443610a7e565b0481939181610a45575b50506008558160075560018060a01b039182600354169360409380855192630b19312960e11b84521690600495828785015260209182856024818c5afa948515610a3a576000956109f9575b5087541691815193632a44650760e21b855280898601528185602481875afa948515610981576000956109c8575b5081899a84519b8c80926302f37e2160e41b82525afa93841561098157899a60009a9798999a9561098c575b5082908451978880926347323c7560e11b82525afa95861561098157600096610950575b506108a59291600991600052526000205443610a7e565b936046860290861587830460461481171561093b57601e8802978804601e141715610926576108f36108ee936108ee6108fa97969460646001600160801b038196169104610a8b565b610a9e565b9604610a8b565b82018092116109115761090e929350610a8b565b90565b601184634e487b7160e01b6000525260246000fd5b601189634e487b7160e01b6000525260246000fd5b60118a634e487b7160e01b6000525260246000fd5b90958282813d831161097a575b610967818361076c565b81010312610305575051946108a561088e565b503d61095d565b83513d6000823e3d90fd5b91928094959196975082813d83116109c1575b6109a9818361076c565b8101031261030557505189959490939291908261086a565b503d61099f565b9994828b813d83116109f2575b6109df818361076c565b810103126103055750985193988161083e565b503d6109d5565b8381819793973d8311610a33575b610a11818361076c565b810103126100e15751906001600160801b038216820361030557509338610810565b503d610a07565b82513d6000823e3d90fd5b915091925060ff8211610a68576001610a5f921b90610a9e565b904338806107c4565b634e487b7160e01b600052601160045260246000fd5b91908203918211610a6857565b81810292918115918404141715610a6857565b8115610aa8570490565b634e487b7160e01b600052601260045260246000fd5b9081602091031261070f5751801515810361070f579056fea2646970667358221220c8d1b44c7c0efef626c495e1ef53603fba2a1dd7481e6b3b9705cf4ec3b95bc564736f6c63430008110033",
  "linkReferences": {},
  "deployedLinkReferences": {}
}