{
  "_format": "hh-sol-artifact-1",
  "contractName": "NftStakingPool",
  "sourceName": "contracts/governance/NftStakingPool.sol",
  "abi": [
    {
      "inputs": [
        {
          "internalType": "address",
          "name": "_nftAddress",
          "type": "address"
        }
      ],
      "stateMutability": "nonpayable",
      "type": "constructor"
    },
    {
      "inputs": [],
      "name": "FlappyOwlPos__ItemAlreadyStaked",
      "type": "error"
    },
    {
      "inputs": [],
      "name": "FlappyOwlPos__NotItemOwner",
      "type": "error"
    },
    {
      "inputs": [],
      "name": "ForbidenAccess",
      "type": "error"
    },
    {
      "inputs": [],
      "name": "NotAuthenticNfts",
      "type": "error"
    },
    {
      "inputs": [],
      "name": "NotHavePoolPosition",
      "type": "error"
    },
    {
      "inputs": [],
      "name": "NotHaveStakedNfts",
      "type": "error"
    },
    {
      "anonymous": false,
      "inputs": [
        {
          "indexed": true,
          "internalType": "address",
          "name": "owner",
          "type": "address"
        },
        {
          "indexed": true,
          "internalType": "uint256",
          "name": "reward",
          "type": "uint256"
        }
      ],
      "name": "Claimed",
      "type": "event"
    },
    {
      "anonymous": false,
      "inputs": [
        {
          "indexed": true,
          "internalType": "uint256",
          "name": "tokenId",
          "type": "uint256"
        },
        {
          "indexed": true,
          "internalType": "address",
          "name": "owner",
          "type": "address"
        },
        {
          "indexed": true,
          "internalType": "uint256",
          "name": "timestamp",
          "type": "uint256"
        }
      ],
      "name": "ItemStaked",
      "type": "event"
    },
    {
      "anonymous": false,
      "inputs": [
        {
          "indexed": true,
          "internalType": "uint256",
          "name": "tokenId",
          "type": "uint256"
        },
        {
          "indexed": true,
          "internalType": "address",
          "name": "owner",
          "type": "address"
        },
        {
          "indexed": true,
          "internalType": "uint256",
          "name": "timestamp",
          "type": "uint256"
        }
      ],
      "name": "ItemUnstaked",
      "type": "event"
    },
    {
      "inputs": [
        {
          "internalType": "address",
          "name": "",
          "type": "address"
        }
      ],
      "name": "lastClaimBlock",
      "outputs": [
        {
          "internalType": "uint256",
          "name": "",
          "type": "uint256"
        }
      ],
      "stateMutability": "view",
      "type": "function"
    },
    {
      "inputs": [
        {
          "internalType": "address",
          "name": "",
          "type": "address"
        },
        {
          "internalType": "address",
          "name": "",
          "type": "address"
        },
        {
          "internalType": "uint256",
          "name": "",
          "type": "uint256"
        },
        {
          "internalType": "bytes",
          "name": "",
          "type": "bytes"
        }
      ],
      "name": "onERC721Received",
      "outputs": [
        {
          "internalType": "bytes4",
          "name": "",
          "type": "bytes4"
        }
      ],
      "stateMutability": "pure",
      "type": "function"
    },
    {
      "inputs": [
        {
          "internalType": "uint256[]",
          "name": "tokenIds",
          "type": "uint256[]"
        }
      ],
      "name": "stake",
      "outputs": [],
      "stateMutability": "nonpayable",
      "type": "function"
    },
    {
      "inputs": [
        {
          "internalType": "address",
          "name": "",
          "type": "address"
        }
      ],
      "name": "stakedNftBalance",
      "outputs": [
        {
          "internalType": "uint256",
          "name": "",
          "type": "uint256"
        }
      ],
      "stateMutability": "view",
      "type": "function"
    },
    {
      "inputs": [
        {
          "internalType": "address",
          "name": "user",
          "type": "address"
        }
      ],
      "name": "tokensOfOwner",
      "outputs": [
        {
          "internalType": "uint256[]",
          "name": "tokens",
          "type": "uint256[]"
        }
      ],
      "stateMutability": "view",
      "type": "function"
    },
    {
      "inputs": [],
      "name": "totalNftStakingOfPool",
      "outputs": [
        {
          "internalType": "uint256",
          "name": "",
          "type": "uint256"
        }
      ],
      "stateMutability": "view",
      "type": "function"
    },
    {
      "inputs": [],
      "name": "totalNftStakingPool",
      "outputs": [
        {
          "internalType": "uint256",
          "name": "",
          "type": "uint256"
        }
      ],
      "stateMutability": "view",
      "type": "function"
    },
    {
      "inputs": [
        {
          "internalType": "address",
          "name": "user",
          "type": "address"
        }
      ],
      "name": "totalStakedNft",
      "outputs": [
        {
          "internalType": "uint256",
          "name": "poolBalance",
          "type": "uint256"
        }
      ],
      "stateMutability": "view",
      "type": "function"
    },
    {
      "inputs": [
        {
          "internalType": "address",
          "name": "user",
          "type": "address"
        },
        {
          "internalType": "uint256[]",
          "name": "tokenIds",
          "type": "uint256[]"
        }
      ],
      "name": "unstake",
      "outputs": [
        {
          "internalType": "uint256[]",
          "name": "unstakedToken",
          "type": "uint256[]"
        }
      ],
      "stateMutability": "nonpayable",
      "type": "function"
    }
  ],
  "bytecode": "0x60803461007457601f61093338819003918201601f19168301916001600160401b038311848410176100795780849260209460405283398101031261007457516001600160a01b0381169081900361007457600080546001600160a01b0319169190911790556040516108a390816100908239f35b600080fd5b634e487b7160e01b600052604160045260246000fdfe6040608081526004908136101561001557600080fd5b600091823560e01c80630fbf0a93146103bb578063150b7a02146103415780635dbe47561461014d5780638462151c146101175780638e6478ea146100bc578063a047f044146100df578063a911941c146100df578063dda02792146100bc5763e93a6c901461008457600080fd5b346100b85760203660031901126100b85760209282916001600160a01b036100aa610623565b168252845220549051908152f35b8280fd5b5050346100db57816003193601126100db576020906001549051908152f35b5080fd5b5050346100db5760203660031901126100db5760209181906001600160a01b03610107610623565b1681526003845220549051908152f35b5050346100db5760203660031901126100db576101499061013e610139610623565b61072e565b905191829182610639565b0390f35b508234610225578260031936011261022557610167610623565b906024803567ffffffffffffffff81116100b85761018c9094919394369083016105ed565b9190948394849260018060a01b0391828416915b868610610228575050505050503382526101d2602093600385528684206101c8828254610721565b9055600154610721565b6001556101de81610709565b936101eb865195866106c4565b8185528385019160051b8101923684116102255750905b828210610216578551806101498782610639565b81358152908301908301610202565b80fd5b90919293949761023989888c610674565b359081895260028c86886020928484528d2054160361031257878b5416803b1561030e578e51632142170760e11b8152308188019081526001600160a01b038c1660208201526040810187905290918d9183919082908490829060600103925af1801561030357908c95949392916102f4575b50838552528c83209183835560019384809401558642917f175dc19fb4fe98420fd7e191684ecdc746cb34c7b69706c3713328d25f7be2058d80a401980194939291906101a0565b6102fd9061069a565b8f6102ac565b508e513d8d823e3d90fd5b8b80fd5b8d5162461bcd60e51b815280860191909152600981870152682737ba1027bbb732b960b91b6044820152606490fd5b50346100b85760803660031901126100b85761035b610623565b506024356001600160a01b038116036100b8576064359067ffffffffffffffff908183116103b757366023840112156103b7578201359081116103b357369101602401116100db5751630a85bd0160e11b8152602090f35b8380fd5b8480fd5b50346100b857602091826003193601126103b35767ffffffffffffffff82358181116105e9576103f190939193369083016105ed565b91869487935b8085106104285788610422888860038c3386525283206104188282546106e6565b90556001546106e6565b60015580f35b9091929395610438878387610674565b35808a526002808a52878b20549192916001600160a01b03919082166105d957908a9291818d54168d8b516331a9108f60e11b8152878b820152602496818881865afa9182156105ce5791610594575b508333911603610584578d813b15610225578b51632142170760e11b815233818c01908152306020820152604081018990529092839182908490829060600103925af1801561057857610569575b508951938a850190858210898311176105585750908d92918b52338552858d860193428552528c52898d209351166bffffffffffffffffffffffff60a01b845416178355519260019384809401558b42917f718e21c56085c799f7e177a1bd6691cdbf9c929d9760133b991577c488715290339280a4019601939291906103f7565b634e487b7160e01b8f5260418a528efd5b6105729061069a565b386104d6565b8e8c51903d90823e3d90fd5b8a5163fc84af6b60e01b81528990fd5b90508d81813d83116105c7575b6105ab81836106c4565b810103126105c3575183811681036105c35738610488565b8e80fd5b503d6105a1565b8d51903d90823e3d90fd5b8851630d2dfd0b60e01b81528790fd5b8580fd5b9181601f8401121561061e5782359167ffffffffffffffff831161061e576020808501948460051b01011161061e57565b600080fd5b600435906001600160a01b038216820361061e57565b6020908160408183019282815285518094520193019160005b828110610660575050505090565b835185529381019392810192600101610652565b91908110156106845760051b0190565b634e487b7160e01b600052603260045260246000fd5b67ffffffffffffffff81116106ae57604052565b634e487b7160e01b600052604160045260246000fd5b90601f8019910116810190811067ffffffffffffffff8211176106ae57604052565b919082018092116106f357565b634e487b7160e01b600052601160045260246000fd5b67ffffffffffffffff81116106ae5760051b60200190565b919082039182116106f357565b9060018060a01b03809216916000928084526020916003835282604095868120549383825416908851968780936318160ddd60e01b825260049485915afa968715610863578397610834575b5061078486610709565b946107918a5196876106c4565b868652601f196107a088610709565b0136868801378599849688156108275750845b898111156107c75750505050505050505050565b8086526002875283838388205416146107f6575b8888146107ea576001016107b3565b50505050505050505050565b968b51811015610814578088888e60019460051b01015201966107db565b634e487b7160e01b865260328552602486fd5b9a50505050505050505050565b9096508381813d831161085c575b61084c81836106c4565b810103126100b85751953861077a565b503d610842565b89513d85823e3d90fdfea264697066735822122097574f00ad21317bf5ce295a555d4c105bf5cad7e3ee69738af45ff18d27d8d764736f6c63430008110033",
  "linkReferences": {},
  "deployedLinkReferences": {}
}