{
  "_format": "hh-sol-artifact-1",
  "contractName": "NftStakingPool",
  "sourceName": "contracts/governance/NftStakingPool.sol",
  "abi": [
    {
      "inputs": [
        {
          "internalType": "address",
          "name": "_nftAddress",
          "type": "address"
        }
      ],
      "stateMutability": "nonpayable",
      "type": "constructor"
    },
    {
      "inputs": [],
      "name": "FlappyOwlPos__ItemAlreadyStaked",
      "type": "error"
    },
    {
      "inputs": [],
      "name": "FlappyOwlPos__NotItemOwner",
      "type": "error"
    },
    {
      "inputs": [],
      "name": "ForbidenAccess",
      "type": "error"
    },
    {
      "inputs": [],
      "name": "NotAuthenticNfts",
      "type": "error"
    },
    {
      "inputs": [],
      "name": "NotHavePoolPosition",
      "type": "error"
    },
    {
      "inputs": [],
      "name": "NotHaveStakedNfts",
      "type": "error"
    },
    {
      "anonymous": false,
      "inputs": [
        {
          "indexed": true,
          "internalType": "address",
          "name": "owner",
          "type": "address"
        },
        {
          "indexed": true,
          "internalType": "uint256",
          "name": "reward",
          "type": "uint256"
        }
      ],
      "name": "Claimed",
      "type": "event"
    },
    {
      "anonymous": false,
      "inputs": [
        {
          "indexed": true,
          "internalType": "uint256",
          "name": "tokenId",
          "type": "uint256"
        },
        {
          "indexed": true,
          "internalType": "address",
          "name": "owner",
          "type": "address"
        },
        {
          "indexed": true,
          "internalType": "uint256",
          "name": "timestamp",
          "type": "uint256"
        }
      ],
      "name": "ItemStaked",
      "type": "event"
    },
    {
      "anonymous": false,
      "inputs": [
        {
          "indexed": true,
          "internalType": "uint256",
          "name": "tokenId",
          "type": "uint256"
        },
        {
          "indexed": true,
          "internalType": "address",
          "name": "owner",
          "type": "address"
        },
        {
          "indexed": true,
          "internalType": "uint256",
          "name": "timestamp",
          "type": "uint256"
        }
      ],
      "name": "ItemUnstaked",
      "type": "event"
    },
    {
      "inputs": [],
      "name": "CONTROLLER_ADDRESS",
      "outputs": [
        {
          "internalType": "address",
          "name": "",
          "type": "address"
        }
      ],
      "stateMutability": "view",
      "type": "function"
    },
    {
      "inputs": [
        {
          "internalType": "address",
          "name": "",
          "type": "address"
        }
      ],
      "name": "lastClaimBlock",
      "outputs": [
        {
          "internalType": "uint256",
          "name": "",
          "type": "uint256"
        }
      ],
      "stateMutability": "view",
      "type": "function"
    },
    {
      "inputs": [
        {
          "internalType": "address",
          "name": "",
          "type": "address"
        },
        {
          "internalType": "address",
          "name": "",
          "type": "address"
        },
        {
          "internalType": "uint256",
          "name": "",
          "type": "uint256"
        },
        {
          "internalType": "bytes",
          "name": "",
          "type": "bytes"
        }
      ],
      "name": "onERC721Received",
      "outputs": [
        {
          "internalType": "bytes4",
          "name": "",
          "type": "bytes4"
        }
      ],
      "stateMutability": "pure",
      "type": "function"
    },
    {
      "inputs": [
        {
          "internalType": "address",
          "name": "_user",
          "type": "address"
        }
      ],
      "name": "poolStakingInfo",
      "outputs": [
        {
          "internalType": "uint256",
          "name": "votingPower",
          "type": "uint256"
        }
      ],
      "stateMutability": "view",
      "type": "function"
    },
    {
      "inputs": [
        {
          "internalType": "address",
          "name": "_user",
          "type": "address"
        }
      ],
      "name": "resetStakingTime",
      "outputs": [
        {
          "internalType": "bool",
          "name": "",
          "type": "bool"
        }
      ],
      "stateMutability": "nonpayable",
      "type": "function"
    },
    {
      "inputs": [
        {
          "internalType": "address",
          "name": "_address",
          "type": "address"
        }
      ],
      "name": "setController",
      "outputs": [],
      "stateMutability": "nonpayable",
      "type": "function"
    },
    {
      "inputs": [
        {
          "internalType": "uint256[]",
          "name": "tokenIds",
          "type": "uint256[]"
        }
      ],
      "name": "stake",
      "outputs": [],
      "stateMutability": "nonpayable",
      "type": "function"
    },
    {
      "inputs": [
        {
          "internalType": "address",
          "name": "",
          "type": "address"
        }
      ],
      "name": "stakedNftBalance",
      "outputs": [
        {
          "internalType": "uint256",
          "name": "",
          "type": "uint256"
        }
      ],
      "stateMutability": "view",
      "type": "function"
    },
    {
      "inputs": [
        {
          "internalType": "address",
          "name": "user",
          "type": "address"
        }
      ],
      "name": "tokensOfOwner",
      "outputs": [
        {
          "internalType": "uint256[]",
          "name": "tokens",
          "type": "uint256[]"
        }
      ],
      "stateMutability": "view",
      "type": "function"
    },
    {
      "inputs": [],
      "name": "totalNftStakingOfPool",
      "outputs": [
        {
          "internalType": "uint256",
          "name": "",
          "type": "uint256"
        }
      ],
      "stateMutability": "view",
      "type": "function"
    },
    {
      "inputs": [],
      "name": "totalNftStakingPool",
      "outputs": [
        {
          "internalType": "uint256",
          "name": "",
          "type": "uint256"
        }
      ],
      "stateMutability": "view",
      "type": "function"
    },
    {
      "inputs": [
        {
          "internalType": "address",
          "name": "user",
          "type": "address"
        },
        {
          "internalType": "uint256[]",
          "name": "tokenIds",
          "type": "uint256[]"
        }
      ],
      "name": "unstake",
      "outputs": [
        {
          "internalType": "uint256[]",
          "name": "unstakedToken",
          "type": "uint256[]"
        }
      ],
      "stateMutability": "nonpayable",
      "type": "function"
    }
  ],
  "bytecode": "0x60803461007a57601f610c6638819003918201601f19168301916001600160401b0383118484101761007f5780849260209460405283398101031261007a57516001600160a01b0381169081900361007a5760018060a01b0319338160035416176003556000541617600055604051610bd090816100968239f35b600080fd5b634e487b7160e01b600052604160045260246000fdfe6040608081526004908136101561001557600080fd5b600091823560e01c9081630fbf0a931461065e578163150b7a02146105e35781635a86b61f146105785781635dbe4756146103845781638462151c146103535781638e6478ea1461033457816392eefe9b146102e45781639bd6ea9d1461015e57508063a047f04414610127578063b98e631d146100ff578063dda02792146100e15763e93a6c90146100a757600080fd5b346100dd5760203660031901126100dd5760209181906001600160a01b036100cd6108bf565b1681526006845220549051908152f35b5080fd5b50346100dd57816003193601126100dd576020906001549051908152f35b50346100dd57816003193601126100dd5760025490516001600160a01b039091168152602090f35b50346100dd5760203660031901126100dd5760209181906001600160a01b0361014e6108bf565b1681526005845220549051908152f35b905082346102e157602091826003193601126100dd5761017c6108bf565b6001600160a01b0381168352600584528483205483916101a6916101a19015156109ca565b610a65565b9381935b85518510156102da576101bd8587610a0e565b5183528382526001906101d5828986200154426109bd565b62093a808111610292578254801561027f576064045b60649080820290828204810361026c5783029182029281840414901517156102595768056bc75e2d631000000290808204670de0b6b3a7640000149015171561024657906201518061023e920490610982565b9401936101aa565b634e487b7160e01b855260118652602485fd5b634e487b7160e01b865260118752602486fd5b634e487b7160e01b885260118952602488fd5b634e487b7160e01b865260128752602486fd5b62278d008110156102ad578254801561027f5760c8046101eb565b62ed4e008110156102c9578254801561027f57610190046101eb565b8254801561027f57610320046101eb565b8651908152f35b80fd5b83346102e15760203660031901126102e1576102fe6108bf565b6003546001600160a01b0391906103189083163314610a22565b166bffffffffffffffffffffffff60a01b600254161760025580f35b5050346100dd57816003193601126100dd576020906001549051908152f35b5050346100dd5760203660031901126100dd57610380906103756101a16108bf565b9051918291826108d5565b0390f35b905082346102e157826003193601126102e15761039f6108bf565b90602492833567ffffffffffffffff8111610574576103c5909491939436908501610889565b9190948394849260018060a01b0391828416915b86861061045e5750505050505033825261040b602093600585528684206104018282546109bd565b90556001546109bd565b600155610417816109a5565b9361042486519586610960565b8185528385019160051b8101923684116102e15750905b82821061044f5785518061038087826108d5565b8135815290830190830161043b565b90919293949761046f89888c610910565b35908189528b85876020928784528c2054160361054557868a5416803b15610541578d51632142170760e11b8152308188019081526001600160a01b038b1660208201526040810186905290918c9183919082908490829060600103925af18015610537579186918c959493610528575b50838552528c83209183835560019384809401558642917f175dc19fb4fe98420fd7e191684ecdc746cb34c7b69706c3713328d25f7be2058d80a401980194939291906103d9565b61053190610936565b8f6104e0565b8e513d8d823e3d90fd5b8a80fd5b8c5162461bcd60e51b815280860191909152600981850152682737ba1027bbb732b960b91b6044820152606490fd5b8280fd5b905082346102e157602091826003193601126100dd576105ae6105996108bf565b6101a160018060a01b03600254163314610a22565b92825b84518110156105da576105c48186610a0e565b51845282825260019042828887200155016105b1565b50845160018152f35b905034610574576080366003190112610574576105fe6108bf565b506024356001600160a01b03811603610574576064359067ffffffffffffffff9081831161065a573660238401121561065a5782013590811161065657369101602401116100dd5751630a85bd0160e11b8152602090f35b8380fd5b8480fd5b90503461057457602091826003193601126106565767ffffffffffffffff918035838111610885576106969093919336908501610889565b91869487935b8085106106cd57886106c7888860058c3386525283206106bd828254610982565b9055600154610982565b60015580f35b90919293956106dd878387610910565b35808a52838952868a205490916001600160a01b0391821661087557818b5416918851926331a9108f60e11b845284878501528c6024948d818781865afa91821561086a5791610830575b508233911603610820578c813b156102e1578a51632142170760e11b815233818a01908152306020820152604081018890529092839182908490829060600103925af1801561081657610807575b5088519289840190848210898311176107f6575089523383528a830190428252848d52868c52898d209351166bffffffffffffffffffffffff60a01b845416178355519260019384809401558b42917f718e21c56085c799f7e177a1bd6691cdbf9c929d9760133b991577c488715290339280a40196019392919061069c565b634e487b7160e01b8e52604188528dfd5b61081090610936565b38610776565b8a513d8f823e3d90fd5b895163fc84af6b60e01b81528790fd5b90508c81813d8311610863575b6108478183610960565b8101031261085f5751828116810361085f5738610728565b8d80fd5b503d61083d565b8c51903d90823e3d90fd5b8751630d2dfd0b60e01b81528590fd5b8580fd5b9181601f840112156108ba5782359167ffffffffffffffff83116108ba576020808501948460051b0101116108ba57565b600080fd5b600435906001600160a01b03821682036108ba57565b6020908160408183019282815285518094520193019160005b8281106108fc575050505090565b8351855293810193928101926001016108ee565b91908110156109205760051b0190565b634e487b7160e01b600052603260045260246000fd5b67ffffffffffffffff811161094a57604052565b634e487b7160e01b600052604160045260246000fd5b90601f8019910116810190811067ffffffffffffffff82111761094a57604052565b9190820180921161098f57565b634e487b7160e01b600052601160045260246000fd5b67ffffffffffffffff811161094a5760051b60200190565b9190820391821161098f57565b156109d157565b60405162461bcd60e51b81526020600482015260156024820152744e6f742068617665207374616b6564206e6674732160581b6044820152606490fd5b80518210156109205760209160051b010190565b15610a2957565b60405162461bcd60e51b8152602060048201526014602482015273556e617574686f72697a6520616464726573732160601b6044820152606490fd5b6001600160a01b03908116600081815260056020908152604080832054919594869492938415939290610a9885156109ca565b805482516318160ddd60e01b81529760049189908390829088165afa978815610b90578298610b61575b50610acc876109a5565b99610ad984519b8c610960565b878b52601f19610ae8896109a5565b0136828d01378a8397610b545750825b89811115610b0c5750505050505050505050565b8084528282528b8787878720541614610b3c575b50888814610b3057600101610af8565b50505050505050505050565b9781610b4b826001949b610a0e565b5201968b610b20565b9a50505050505050505050565b9097508981813d8311610b89575b610b798183610960565b810103126100dd57519638610ac2565b503d610b6f565b83513d84823e3d90fdfea2646970667358221220a6caf3bdc87dc0a5246a5c4f77f30a972f4c80e546b06c8df4b5ff0365f97bfc64736f6c63430008110033",
  "linkReferences": {},
  "deployedLinkReferences": {}
}