{
  "_format": "hh-sol-artifact-1",
  "contractName": "FRC",
  "sourceName": "contracts/Token/FRC.sol",
  "abi": [
    {
      "inputs": [],
      "stateMutability": "nonpayable",
      "type": "constructor"
    },
    {
      "inputs": [],
      "name": "InitialSupplyMinted",
      "type": "error"
    },
    {
      "inputs": [],
      "name": "InvalidShortString",
      "type": "error"
    },
    {
      "inputs": [],
      "name": "NotController",
      "type": "error"
    },
    {
      "inputs": [],
      "name": "NotMinter",
      "type": "error"
    },
    {
      "inputs": [],
      "name": "NotOwner",
      "type": "error"
    },
    {
      "inputs": [
        {
          "internalType": "string",
          "name": "str",
          "type": "string"
        }
      ],
      "name": "StringTooLong",
      "type": "error"
    },
    {
      "inputs": [],
      "name": "ZeroAddress",
      "type": "error"
    },
    {
      "inputs": [],
      "name": "ZeroAmount",
      "type": "error"
    },
    {
      "anonymous": false,
      "inputs": [
        {
          "indexed": true,
          "internalType": "address",
          "name": "owner",
          "type": "address"
        },
        {
          "indexed": true,
          "internalType": "address",
          "name": "spender",
          "type": "address"
        },
        {
          "indexed": false,
          "internalType": "uint256",
          "name": "value",
          "type": "uint256"
        }
      ],
      "name": "Approval",
      "type": "event"
    },
    {
      "anonymous": false,
      "inputs": [],
      "name": "EIP712DomainChanged",
      "type": "event"
    },
    {
      "anonymous": false,
      "inputs": [
        {
          "indexed": true,
          "internalType": "address",
          "name": "_account",
          "type": "address"
        },
        {
          "indexed": true,
          "internalType": "uint256",
          "name": "_amount",
          "type": "uint256"
        },
        {
          "indexed": true,
          "internalType": "uint256",
          "name": "_circulating_supply",
          "type": "uint256"
        }
      ],
      "name": "Mint",
      "type": "event"
    },
    {
      "anonymous": false,
      "inputs": [
        {
          "indexed": true,
          "internalType": "address",
          "name": "from",
          "type": "address"
        },
        {
          "indexed": true,
          "internalType": "address",
          "name": "to",
          "type": "address"
        },
        {
          "indexed": false,
          "internalType": "uint256",
          "name": "value",
          "type": "uint256"
        }
      ],
      "name": "Transfer",
      "type": "event"
    },
    {
      "inputs": [],
      "name": "DOMAIN_SEPARATOR",
      "outputs": [
        {
          "internalType": "bytes32",
          "name": "",
          "type": "bytes32"
        }
      ],
      "stateMutability": "view",
      "type": "function"
    },
    {
      "inputs": [],
      "name": "MINTER_ADDRESS",
      "outputs": [
        {
          "internalType": "address",
          "name": "",
          "type": "address"
        }
      ],
      "stateMutability": "view",
      "type": "function"
    },
    {
      "inputs": [
        {
          "internalType": "address",
          "name": "owner",
          "type": "address"
        },
        {
          "internalType": "address",
          "name": "spender",
          "type": "address"
        }
      ],
      "name": "allowance",
      "outputs": [
        {
          "internalType": "uint256",
          "name": "",
          "type": "uint256"
        }
      ],
      "stateMutability": "view",
      "type": "function"
    },
    {
      "inputs": [
        {
          "internalType": "address",
          "name": "spender",
          "type": "address"
        },
        {
          "internalType": "uint256",
          "name": "amount",
          "type": "uint256"
        }
      ],
      "name": "approve",
      "outputs": [
        {
          "internalType": "bool",
          "name": "",
          "type": "bool"
        }
      ],
      "stateMutability": "nonpayable",
      "type": "function"
    },
    {
      "inputs": [
        {
          "internalType": "address",
          "name": "account",
          "type": "address"
        }
      ],
      "name": "balanceOf",
      "outputs": [
        {
          "internalType": "uint256",
          "name": "",
          "type": "uint256"
        }
      ],
      "stateMutability": "view",
      "type": "function"
    },
    {
      "inputs": [
        {
          "internalType": "uint256",
          "name": "amount",
          "type": "uint256"
        }
      ],
      "name": "burn",
      "outputs": [],
      "stateMutability": "nonpayable",
      "type": "function"
    },
    {
      "inputs": [
        {
          "internalType": "address",
          "name": "account",
          "type": "address"
        },
        {
          "internalType": "uint256",
          "name": "amount",
          "type": "uint256"
        }
      ],
      "name": "burnFrom",
      "outputs": [],
      "stateMutability": "nonpayable",
      "type": "function"
    },
    {
      "inputs": [],
      "name": "decimals",
      "outputs": [
        {
          "internalType": "uint8",
          "name": "",
          "type": "uint8"
        }
      ],
      "stateMutability": "view",
      "type": "function"
    },
    {
      "inputs": [
        {
          "internalType": "address",
          "name": "spender",
          "type": "address"
        },
        {
          "internalType": "uint256",
          "name": "subtractedValue",
          "type": "uint256"
        }
      ],
      "name": "decreaseAllowance",
      "outputs": [
        {
          "internalType": "bool",
          "name": "",
          "type": "bool"
        }
      ],
      "stateMutability": "nonpayable",
      "type": "function"
    },
    {
      "inputs": [],
      "name": "eip712Domain",
      "outputs": [
        {
          "internalType": "bytes1",
          "name": "fields",
          "type": "bytes1"
        },
        {
          "internalType": "string",
          "name": "name",
          "type": "string"
        },
        {
          "internalType": "string",
          "name": "version",
          "type": "string"
        },
        {
          "internalType": "uint256",
          "name": "chainId",
          "type": "uint256"
        },
        {
          "internalType": "address",
          "name": "verifyingContract",
          "type": "address"
        },
        {
          "internalType": "bytes32",
          "name": "salt",
          "type": "bytes32"
        },
        {
          "internalType": "uint256[]",
          "name": "extensions",
          "type": "uint256[]"
        }
      ],
      "stateMutability": "view",
      "type": "function"
    },
    {
      "inputs": [
        {
          "internalType": "address",
          "name": "spender",
          "type": "address"
        },
        {
          "internalType": "uint256",
          "name": "addedValue",
          "type": "uint256"
        }
      ],
      "name": "increaseAllowance",
      "outputs": [
        {
          "internalType": "bool",
          "name": "",
          "type": "bool"
        }
      ],
      "stateMutability": "nonpayable",
      "type": "function"
    },
    {
      "inputs": [
        {
          "internalType": "address",
          "name": "account",
          "type": "address"
        },
        {
          "internalType": "uint256",
          "name": "amount",
          "type": "uint256"
        }
      ],
      "name": "mint",
      "outputs": [
        {
          "internalType": "bool",
          "name": "",
          "type": "bool"
        }
      ],
      "stateMutability": "nonpayable",
      "type": "function"
    },
    {
      "inputs": [],
      "name": "name",
      "outputs": [
        {
          "internalType": "string",
          "name": "",
          "type": "string"
        }
      ],
      "stateMutability": "view",
      "type": "function"
    },
    {
      "inputs": [
        {
          "internalType": "address",
          "name": "owner",
          "type": "address"
        }
      ],
      "name": "nonces",
      "outputs": [
        {
          "internalType": "uint256",
          "name": "",
          "type": "uint256"
        }
      ],
      "stateMutability": "view",
      "type": "function"
    },
    {
      "inputs": [
        {
          "internalType": "address",
          "name": "owner",
          "type": "address"
        },
        {
          "internalType": "address",
          "name": "spender",
          "type": "address"
        },
        {
          "internalType": "uint256",
          "name": "value",
          "type": "uint256"
        },
        {
          "internalType": "uint256",
          "name": "deadline",
          "type": "uint256"
        },
        {
          "internalType": "uint8",
          "name": "v",
          "type": "uint8"
        },
        {
          "internalType": "bytes32",
          "name": "r",
          "type": "bytes32"
        },
        {
          "internalType": "bytes32",
          "name": "s",
          "type": "bytes32"
        }
      ],
      "name": "permit",
      "outputs": [],
      "stateMutability": "nonpayable",
      "type": "function"
    },
    {
      "inputs": [
        {
          "internalType": "address",
          "name": "_address",
          "type": "address"
        }
      ],
      "name": "setMinter",
      "outputs": [],
      "stateMutability": "nonpayable",
      "type": "function"
    },
    {
      "inputs": [],
      "name": "symbol",
      "outputs": [
        {
          "internalType": "string",
          "name": "",
          "type": "string"
        }
      ],
      "stateMutability": "view",
      "type": "function"
    },
    {
      "inputs": [],
      "name": "totalSupply",
      "outputs": [
        {
          "internalType": "uint256",
          "name": "",
          "type": "uint256"
        }
      ],
      "stateMutability": "view",
      "type": "function"
    },
    {
      "inputs": [
        {
          "internalType": "address",
          "name": "to",
          "type": "address"
        },
        {
          "internalType": "uint256",
          "name": "amount",
          "type": "uint256"
        }
      ],
      "name": "transfer",
      "outputs": [
        {
          "internalType": "bool",
          "name": "",
          "type": "bool"
        }
      ],
      "stateMutability": "nonpayable",
      "type": "function"
    },
    {
      "inputs": [
        {
          "internalType": "address",
          "name": "from",
          "type": "address"
        },
        {
          "internalType": "address",
          "name": "to",
          "type": "address"
        },
        {
          "internalType": "uint256",
          "name": "amount",
          "type": "uint256"
        }
      ],
      "name": "transferFrom",
      "outputs": [
        {
          "internalType": "bool",
          "name": "",
          "type": "bool"
        }
      ],
      "stateMutability": "nonpayable",
      "type": "function"
    }
  ],
  "bytecode": "0x61016060409080825234620004365762000019816200043b565b600b81526020908181016a119490cb551154d513915560aa1b9283825284519362000044856200043b565b600b8552818501528451906200005a826200043b565b60049586835263119490d560e21b828401528051926200007a846200043b565b6001808552603160f81b84860190815288516001600160401b03999193918a821162000421576003918254918583811c9316801562000416575b8984101462000318578190601f93848111620003c0575b50899084831160011462000359576000926200034d575b505060001982851b1c191690851b1782555b8251928b841162000338578c548581811c911680156200032d575b898210146200031857828111620002cd575b5087918411600114620002625793839491849260009562000256575b50501b92600019911b1c19161788555b62000158866200046d565b946101209586526200016a8562000647565b96610140978852519020938460e05251902096610100978089524660a0528251938401947f8b73c3c69bb8fe3d512ecc4cf759cc79239f7b179b0ffacaa9a75d522b39400f86528385015260608401524660808401523060a084015260a0835260c0830196838810908811176200024157508590525190206080523060c052600a80546001600160a01b031916331790556113e2938462000800853960805184611104015260a051846111d0015260c051846110ce015260e051846111530152518361117901525182610567015251816105910152f35b604190634e487b7160e01b6000525260246000fd5b0151935038806200013d565b9190601f198416928d60005284896000209460005b8b89838310620002b557505050106200029a575b50505050811b0188556200014d565b01519060f884600019921b161c19169055388080806200028b565b86860151895590970196948501948893500162000277565b8d600052886000208380870160051c8201928b88106200030e575b0160051c019086905b8281106200030157505062000121565b60008155018690620002f1565b92508192620002e8565b60228e634e487b7160e01b6000525260246000fd5b90607f16906200010f565b60418d634e487b7160e01b6000525260246000fd5b015190503880620000e2565b90879350601f19831691866000528b6000209260005b8d828210620003a9575050841162000390575b505050811b018255620000f4565b015160001983871b60f8161c1916905538808062000382565b8385015186558b979095019493840193016200036f565b90915084600052896000208480850160051c8201928c86106200040c575b918991869594930160051c01915b828110620003fc575050620000cb565b60008155859450899101620003ec565b92508192620003de565b92607f1692620000b4565b60418c634e487b7160e01b6000525260246000fd5b600080fd5b604081019081106001600160401b038211176200045757604052565b634e487b7160e01b600052604160045260246000fd5b805160209190828110156200050c575090601f825111620004ab57808251920151908083106200049c57501790565b82600019910360031b1b161790565b90604051809263305a27a960e01b82528060048301528251908160248401526000935b828510620004f2575050604492506000838284010152601f80199101168101030190fd5b8481018201518686016044015293810193859350620004ce565b6001600160401b03811162000457576005928354926001938481811c911680156200063c575b838210146200062657601f8111620005ef575b5081601f841160011462000585575092829391839260009462000579575b50501b916000199060031b1c191617905560ff90565b01519250388062000563565b919083601f1981168760005284600020946000905b88838310620005d45750505010620005ba575b505050811b01905560ff90565b015160001960f88460031b161c19169055388080620005ad565b8587015188559096019594850194879350908101906200059a565b8560005284601f846000209201871c820191601f8601881c015b8281106200061957505062000545565b6000815501859062000609565b634e487b7160e01b600052602260045260246000fd5b90607f169062000532565b805160209081811015620006d55750601f8251116200067457808251920151908083106200049c57501790565b90604051809263305a27a960e01b82528060048301528251908160248401526000935b828510620006bb575050604492506000838284010152601f80199101168101030190fd5b848101820151868601604401529381019385935062000697565b906001600160401b0382116200045757600654926001938481811c91168015620007f4575b838210146200062657601f8111620007ba575b5081601f84116001146200074e575092829391839260009462000742575b50501b916000199060031b1c19161760065560ff90565b0151925038806200072b565b919083601f198116600660005284600020946000905b888383106200079f575050501062000785575b505050811b0160065560ff90565b015160001960f88460031b161c1916905538808062000777565b85870151885590960195948501948793509081019062000764565b600660005284601f84600020920160051c820191601f860160051c015b828110620007e75750506200070d565b60008155018590620007d7565b90607f1690620006fa56fe6080604081815260048036101561001557600080fd5b600092833560e01c90816306fdde031461092057508063095ea7b3146108f657806318160ddd146108d757806323b872dd1461089a578063313ce5671461087e5780633644e5151461085a578063395093511461080a57806340c10f191461072a57806342966c681461070c57806370a08231146106d557806379cc6790146106a55780637ecebe001461066d57806384b0196e1461055057806395d89b4114610466578063a457c2d7146103bf578063a4b80b6a14610396578063a9059cbb14610365578063d505accf146101ac578063dd62ed3e1461015f5763fca3b5aa146100ff57600080fd5b3461015b57602036600319011261015b57610118610a31565b600a546001600160a01b0393919291908416330361014e575050166bffffffffffffffffffffffff60a01b600954161760095580f35b516330cd747160e01b8152fd5b8280fd5b5050346101a857806003193601126101a8578060209261017d610a31565b610185610a4c565b6001600160a01b0391821683526001865283832091168252845220549051908152f35b5080fd5b508290346101a85760e03660031901126101a8576101c8610a31565b6101d0610a4c565b906044359260643560843560ff811681036103615781421161031e5760018060a01b0390818516928389526007602052898920908154916001830190558a519060208201927f6e71edae12b1b97f4d1f60370fef10105fa2faae0126114a169c64845d6126c98452868d840152858a1660608401528a608084015260a083015260c082015260c0815260e0810181811067ffffffffffffffff82111761030b578b525190206102b3916102ab916102856110cb565b908c519161190160f01b83526002830152602282015260c43591604260a435922061103c565b919091610f22565b16036102c857506102c5939450610c81565b80f35b606490602087519162461bcd60e51b8352820152601e60248201527f45524332305065726d69743a20696e76616c6964207369676e617475726500006044820152fd5b634e487b7160e01b8b526041875260248bfd5b875162461bcd60e51b8152602081850152601d60248201527f45524332305065726d69743a206578706972656420646561646c696e650000006044820152606490fd5b8680fd5b5050346101a857806003193601126101a85760209061038f610385610a31565b6024359033610b13565b5160018152f35b5050346101a857816003193601126101a85760095490516001600160a01b039091168152602090f35b5082346104635782600319360112610463576103d9610a31565b918360243592338152600160205281812060018060a01b03861682526020522054908282106104125760208561038f8585038733610c81565b608490602086519162461bcd60e51b8352820152602560248201527f45524332303a2064656372656173656420616c6c6f77616e63652062656c6f77604482015264207a65726f60d81b6064820152fd5b80fd5b50903461015b578260031936011261015b578051918381549061048882610a62565b8086529260019280841690811561052557506001146104c9575b6104c586866104b3828b0383610ace565b519182916020835260208301906109f1565b0390f35b815294507f8a35acfbc15ff81a39ae7d344fd709f28e8600b4aa8c65c6b64bfe7fe36bd19b5b82861061050d575050506104b38260206104c59582010194386104a2565b805460208787018101919091529095019481016104ef565b90506104c59750869350602092506104b394915060ff191682840152151560051b82010194386104a2565b50903461015b578260031936011261015b5761058b7f00000000000000000000000000000000000000000000000000000000000000006111f6565b926105b57f00000000000000000000000000000000000000000000000000000000000000006112f2565b908251926020928385019585871067ffffffffffffffff88111761065a57509280610610838896610603998b9996528686528151998a99600f60f81b8b5260e0868c015260e08b01906109f1565b91898303908a01526109f1565b924660608801523060808801528460a088015286840360c088015251928381520193925b82811061064357505050500390f35b835185528695509381019392810192600101610634565b634e487b7160e01b845260419052602483fd5b5050346101a85760203660031901126101a85760209181906001600160a01b03610695610a31565b1681526007845220549051908152f35b5050346101a857366003190112610463576102c56106c1610a31565b602435906106d0823383610d83565b610e1b565b5050346101a85760203660031901126101a85760209181906001600160a01b036106fd610a31565b16815280845220549051908152f35b8382346101a85760203660031901126101a8576102c5903533610e1b565b509134610463578160031936011261046357610744610a31565b60095460243592916001600160a01b0391821633036107fa57169182156107b7576020809550816107987fddf252ad1be2c89b69c2b068fc378daa952ba7f163c4a11628f55a4df523b3ef93600254610af0565b6002558484528382528584208181540190558551908152a35160018152f35b835162461bcd60e51b8152602081870152601f60248201527f45524332303a206d696e7420746f20746865207a65726f2061646472657373006044820152606490fd5b8451633e34a41b60e21b81528690fd5b5050346101a857806003193601126101a85761038f60209261085361082d610a31565b338352600186528483206001600160a01b03821684528652918490205460243590610af0565b9033610c81565b5050346101a857816003193601126101a8576020906108776110cb565b9051908152f35b5050346101a857816003193601126101a8576020905160128152f35b5050346101a85760603660031901126101a85760209061038f6108bb610a31565b6108c3610a4c565b604435916108d2833383610d83565b610b13565b5050346101a857816003193601126101a8576020906002549051908152f35b5050346101a857806003193601126101a85760209061038f610916610a31565b6024359033610c81565b8490843461015b578260031936011261015b578260035461094081610a62565b808552916001918083169081156109c9575060011461096c575b5050506104b3826104c5940383610ace565b9450600385527fc2575a0e9e593c00f959f8c92f12db2869c3395a3b0502d05e2516446f71f85b5b8286106109b1575050506104b38260206104c5958201019461095a565b80546020878701810191909152909501948101610994565b6104c59750869350602092506104b394915060ff191682840152151560051b8201019461095a565b919082519283825260005b848110610a1d575050826000602080949584010152601f8019910116010190565b6020818301810151848301820152016109fc565b600435906001600160a01b0382168203610a4757565b600080fd5b602435906001600160a01b0382168203610a4757565b90600182811c92168015610a92575b6020831014610a7c57565b634e487b7160e01b600052602260045260246000fd5b91607f1691610a71565b6040810190811067ffffffffffffffff821117610ab857604052565b634e487b7160e01b600052604160045260246000fd5b90601f8019910116810190811067ffffffffffffffff821117610ab857604052565b91908201809211610afd57565b634e487b7160e01b600052601160045260246000fd5b6001600160a01b03908116918215610c2e5716918215610bdd57600082815280602052604081205491808310610b8957604082827fddf252ad1be2c89b69c2b068fc378daa952ba7f163c4a11628f55a4df523b3ef958760209652828652038282205586815220818154019055604051908152a3565b60405162461bcd60e51b815260206004820152602660248201527f45524332303a207472616e7366657220616d6f756e7420657863656564732062604482015265616c616e636560d01b6064820152608490fd5b60405162461bcd60e51b815260206004820152602360248201527f45524332303a207472616e7366657220746f20746865207a65726f206164647260448201526265737360e81b6064820152608490fd5b60405162461bcd60e51b815260206004820152602560248201527f45524332303a207472616e736665722066726f6d20746865207a65726f206164604482015264647265737360d81b6064820152608490fd5b6001600160a01b03908116918215610d325716918215610ce25760207f8c5be1e5ebec7d5bd14f71427d1e84f3dd0314c0f7b2291e5b200ac8c7c3b925918360005260018252604060002085600052825280604060002055604051908152a3565b60405162461bcd60e51b815260206004820152602260248201527f45524332303a20617070726f766520746f20746865207a65726f206164647265604482015261737360f01b6064820152608490fd5b60405162461bcd60e51b8152602060048201526024808201527f45524332303a20617070726f76652066726f6d20746865207a65726f206164646044820152637265737360e01b6064820152608490fd5b9060018060a01b0380831660005260016020526040600020908216600052602052604060002054926000198403610dbb575b50505050565b808410610dd657610dcd930391610c81565b38808080610db5565b60405162461bcd60e51b815260206004820152601d60248201527f45524332303a20696e73756666696369656e7420616c6c6f77616e63650000006044820152606490fd5b6001600160a01b03168015610ed357600091818352826020526040832054818110610e8357817fddf252ad1be2c89b69c2b068fc378daa952ba7f163c4a11628f55a4df523b3ef926020928587528684520360408620558060025403600255604051908152a3565b60405162461bcd60e51b815260206004820152602260248201527f45524332303a206275726e20616d6f756e7420657863656564732062616c616e604482015261636560f01b6064820152608490fd5b60405162461bcd60e51b815260206004820152602160248201527f45524332303a206275726e2066726f6d20746865207a65726f206164647265736044820152607360f81b6064820152608490fd5b60058110156110265780610f335750565b60018103610f805760405162461bcd60e51b815260206004820152601860248201527f45434453413a20696e76616c6964207369676e617475726500000000000000006044820152606490fd5b60028103610fcd5760405162461bcd60e51b815260206004820152601f60248201527f45434453413a20696e76616c6964207369676e6174757265206c656e677468006044820152606490fd5b600314610fd657565b60405162461bcd60e51b815260206004820152602260248201527f45434453413a20696e76616c6964207369676e6174757265202773272076616c604482015261756560f01b6064820152608490fd5b634e487b7160e01b600052602160045260246000fd5b9291907f7fffffffffffffffffffffffffffffff5d576e7357a4501ddfe92f46681b20a083116110bf5791608094939160ff602094604051948552168484015260408301526060820152600093849182805260015afa156110b25781516001600160a01b038116156110ac579190565b50600190565b50604051903d90823e3d90fd5b50505050600090600390565b307f00000000000000000000000000000000000000000000000000000000000000006001600160a01b031614806111cd575b15611126577f000000000000000000000000000000000000000000000000000000000000000090565b60405160208101907f8b73c3c69bb8fe3d512ecc4cf759cc79239f7b179b0ffacaa9a75d522b39400f82527f000000000000000000000000000000000000000000000000000000000000000060408201527f000000000000000000000000000000000000000000000000000000000000000060608201524660808201523060a082015260a0815260c0810181811067ffffffffffffffff821117610ab85760405251902090565b507f000000000000000000000000000000000000000000000000000000000000000046146110fd565b60ff81146112345760ff811690601f8211611222576040519161121883610a9c565b8252602082015290565b604051632cd44ac360e21b8152600490fd5b5060405160055481600061124783610a62565b808352926001908181169081156112d05750600114611271575b5061126e92500382610ace565b90565b6005600090815291507f036b6384b5eca791c62761152d0c79bb0604c104a5fb6f4eb0703f3154bb3db05b8483106112b5575061126e935050810160200138611261565b8193509081602092548385890101520191019091849261129c565b90506020925061126e94915060ff191682840152151560051b82010138611261565b60ff81146113145760ff811690601f8211611222576040519161121883610a9c565b5060405160065481600061132783610a62565b808352926001908181169081156112d0575060011461134d575061126e92500382610ace565b6006600090815291507ff652222313e28459528d920b65115c16c04f3efc82aaedc97be59f3f377c0d3f5b848310611391575061126e935050810160200138611261565b8193509081602092548385890101520191019091849261137856fea26469706673582212209372738f3b04575c043a3abc47db10b7d0b64c5ee65706cf4283ef6341e7205464736f6c63430008110033",
  "linkReferences": {},
  "deployedLinkReferences": {}
}