{
  "_format": "hh-sol-artifact-1",
  "contractName": "FRC",
  "sourceName": "contracts/Token/FRC.sol",
  "abi": [
    {
      "inputs": [],
      "stateMutability": "nonpayable",
      "type": "constructor"
    },
    {
      "inputs": [],
      "name": "InitialSupplyMinted",
      "type": "error"
    },
    {
      "inputs": [],
      "name": "InvalidShortString",
      "type": "error"
    },
    {
      "inputs": [],
      "name": "NotController",
      "type": "error"
    },
    {
      "inputs": [],
      "name": "NotMinter",
      "type": "error"
    },
    {
      "inputs": [],
      "name": "NotOwner",
      "type": "error"
    },
    {
      "inputs": [
        {
          "internalType": "string",
          "name": "str",
          "type": "string"
        }
      ],
      "name": "StringTooLong",
      "type": "error"
    },
    {
      "inputs": [],
      "name": "ZeroAddress",
      "type": "error"
    },
    {
      "inputs": [],
      "name": "ZeroAmount",
      "type": "error"
    },
    {
      "anonymous": false,
      "inputs": [
        {
          "indexed": true,
          "internalType": "address",
          "name": "owner",
          "type": "address"
        },
        {
          "indexed": true,
          "internalType": "address",
          "name": "spender",
          "type": "address"
        },
        {
          "indexed": false,
          "internalType": "uint256",
          "name": "value",
          "type": "uint256"
        }
      ],
      "name": "Approval",
      "type": "event"
    },
    {
      "anonymous": false,
      "inputs": [],
      "name": "EIP712DomainChanged",
      "type": "event"
    },
    {
      "anonymous": false,
      "inputs": [
        {
          "indexed": true,
          "internalType": "address",
          "name": "_account",
          "type": "address"
        },
        {
          "indexed": false,
          "internalType": "uint256",
          "name": "_amount",
          "type": "uint256"
        },
        {
          "indexed": false,
          "internalType": "uint256",
          "name": "_circulating_supply",
          "type": "uint256"
        }
      ],
      "name": "Mint",
      "type": "event"
    },
    {
      "anonymous": false,
      "inputs": [
        {
          "indexed": true,
          "internalType": "address",
          "name": "from",
          "type": "address"
        },
        {
          "indexed": true,
          "internalType": "address",
          "name": "to",
          "type": "address"
        },
        {
          "indexed": false,
          "internalType": "uint256",
          "name": "value",
          "type": "uint256"
        }
      ],
      "name": "Transfer",
      "type": "event"
    },
    {
      "inputs": [],
      "name": "DOMAIN_SEPARATOR",
      "outputs": [
        {
          "internalType": "bytes32",
          "name": "",
          "type": "bytes32"
        }
      ],
      "stateMutability": "view",
      "type": "function"
    },
    {
      "inputs": [
        {
          "internalType": "address",
          "name": "owner",
          "type": "address"
        },
        {
          "internalType": "address",
          "name": "spender",
          "type": "address"
        }
      ],
      "name": "allowance",
      "outputs": [
        {
          "internalType": "uint256",
          "name": "",
          "type": "uint256"
        }
      ],
      "stateMutability": "view",
      "type": "function"
    },
    {
      "inputs": [
        {
          "internalType": "address",
          "name": "spender",
          "type": "address"
        },
        {
          "internalType": "uint256",
          "name": "amount",
          "type": "uint256"
        }
      ],
      "name": "approve",
      "outputs": [
        {
          "internalType": "bool",
          "name": "",
          "type": "bool"
        }
      ],
      "stateMutability": "nonpayable",
      "type": "function"
    },
    {
      "inputs": [
        {
          "internalType": "address",
          "name": "account",
          "type": "address"
        }
      ],
      "name": "balanceOf",
      "outputs": [
        {
          "internalType": "uint256",
          "name": "",
          "type": "uint256"
        }
      ],
      "stateMutability": "view",
      "type": "function"
    },
    {
      "inputs": [],
      "name": "controller",
      "outputs": [
        {
          "internalType": "address",
          "name": "",
          "type": "address"
        }
      ],
      "stateMutability": "view",
      "type": "function"
    },
    {
      "inputs": [],
      "name": "decimals",
      "outputs": [
        {
          "internalType": "uint8",
          "name": "",
          "type": "uint8"
        }
      ],
      "stateMutability": "view",
      "type": "function"
    },
    {
      "inputs": [
        {
          "internalType": "address",
          "name": "spender",
          "type": "address"
        },
        {
          "internalType": "uint256",
          "name": "subtractedValue",
          "type": "uint256"
        }
      ],
      "name": "decreaseAllowance",
      "outputs": [
        {
          "internalType": "bool",
          "name": "",
          "type": "bool"
        }
      ],
      "stateMutability": "nonpayable",
      "type": "function"
    },
    {
      "inputs": [],
      "name": "eip712Domain",
      "outputs": [
        {
          "internalType": "bytes1",
          "name": "fields",
          "type": "bytes1"
        },
        {
          "internalType": "string",
          "name": "name",
          "type": "string"
        },
        {
          "internalType": "string",
          "name": "version",
          "type": "string"
        },
        {
          "internalType": "uint256",
          "name": "chainId",
          "type": "uint256"
        },
        {
          "internalType": "address",
          "name": "verifyingContract",
          "type": "address"
        },
        {
          "internalType": "bytes32",
          "name": "salt",
          "type": "bytes32"
        },
        {
          "internalType": "uint256[]",
          "name": "extensions",
          "type": "uint256[]"
        }
      ],
      "stateMutability": "view",
      "type": "function"
    },
    {
      "inputs": [
        {
          "internalType": "address",
          "name": "spender",
          "type": "address"
        },
        {
          "internalType": "uint256",
          "name": "addedValue",
          "type": "uint256"
        }
      ],
      "name": "increaseAllowance",
      "outputs": [
        {
          "internalType": "bool",
          "name": "",
          "type": "bool"
        }
      ],
      "stateMutability": "nonpayable",
      "type": "function"
    },
    {
      "inputs": [
        {
          "internalType": "address",
          "name": "account",
          "type": "address"
        },
        {
          "internalType": "uint256",
          "name": "amount",
          "type": "uint256"
        }
      ],
      "name": "mint",
      "outputs": [
        {
          "internalType": "bool",
          "name": "",
          "type": "bool"
        }
      ],
      "stateMutability": "nonpayable",
      "type": "function"
    },
    {
      "inputs": [],
      "name": "minter",
      "outputs": [
        {
          "internalType": "address",
          "name": "",
          "type": "address"
        }
      ],
      "stateMutability": "view",
      "type": "function"
    },
    {
      "inputs": [],
      "name": "name",
      "outputs": [
        {
          "internalType": "string",
          "name": "",
          "type": "string"
        }
      ],
      "stateMutability": "view",
      "type": "function"
    },
    {
      "inputs": [
        {
          "internalType": "address",
          "name": "owner",
          "type": "address"
        }
      ],
      "name": "nonces",
      "outputs": [
        {
          "internalType": "uint256",
          "name": "",
          "type": "uint256"
        }
      ],
      "stateMutability": "view",
      "type": "function"
    },
    {
      "inputs": [
        {
          "internalType": "address",
          "name": "owner",
          "type": "address"
        },
        {
          "internalType": "address",
          "name": "spender",
          "type": "address"
        },
        {
          "internalType": "uint256",
          "name": "value",
          "type": "uint256"
        },
        {
          "internalType": "uint256",
          "name": "deadline",
          "type": "uint256"
        },
        {
          "internalType": "uint8",
          "name": "v",
          "type": "uint8"
        },
        {
          "internalType": "bytes32",
          "name": "r",
          "type": "bytes32"
        },
        {
          "internalType": "bytes32",
          "name": "s",
          "type": "bytes32"
        }
      ],
      "name": "permit",
      "outputs": [],
      "stateMutability": "nonpayable",
      "type": "function"
    },
    {
      "inputs": [
        {
          "internalType": "address",
          "name": "account",
          "type": "address"
        }
      ],
      "name": "setController",
      "outputs": [],
      "stateMutability": "nonpayable",
      "type": "function"
    },
    {
      "inputs": [
        {
          "internalType": "address",
          "name": "account",
          "type": "address"
        }
      ],
      "name": "setMinter",
      "outputs": [],
      "stateMutability": "nonpayable",
      "type": "function"
    },
    {
      "inputs": [],
      "name": "symbol",
      "outputs": [
        {
          "internalType": "string",
          "name": "",
          "type": "string"
        }
      ],
      "stateMutability": "view",
      "type": "function"
    },
    {
      "inputs": [],
      "name": "totalSupply",
      "outputs": [
        {
          "internalType": "uint256",
          "name": "",
          "type": "uint256"
        }
      ],
      "stateMutability": "view",
      "type": "function"
    },
    {
      "inputs": [
        {
          "internalType": "address",
          "name": "to",
          "type": "address"
        },
        {
          "internalType": "uint256",
          "name": "amount",
          "type": "uint256"
        }
      ],
      "name": "transfer",
      "outputs": [
        {
          "internalType": "bool",
          "name": "",
          "type": "bool"
        }
      ],
      "stateMutability": "nonpayable",
      "type": "function"
    },
    {
      "inputs": [
        {
          "internalType": "address",
          "name": "from",
          "type": "address"
        },
        {
          "internalType": "address",
          "name": "to",
          "type": "address"
        },
        {
          "internalType": "uint256",
          "name": "amount",
          "type": "uint256"
        }
      ],
      "name": "transferFrom",
      "outputs": [
        {
          "internalType": "bool",
          "name": "",
          "type": "bool"
        }
      ],
      "stateMutability": "nonpayable",
      "type": "function"
    }
  ],
  "bytecode": "0x610160604081815234620004355762000018826200043a565b600a825260209182810169119490d5195cdd13995d60b21b80825283519062000041826200043a565b600a82528582015283519462000057866200043a565b6003948587526246524360e81b8288015280519262000076846200043a565b6001808552603160f81b84860190815282516001600160401b0399919391908a811162000335578154928484811c941680156200042a575b8885101462000414578190601f94858111620003be575b50889085831160011462000357576000926200034b575b505060001982841b1c191690841b1781555b8a51918a8311620003355760049b8c548581811c911680156200032a575b898210146200031557828111620002ca575b50879184116001146200025f5793839491849260009562000253575b50501b92600019911b1c19161788555b620001558662000456565b9461012095865262000167856200061a565b96610140978852519020938460e05251902096610100978089524660a0528251938401947f8b73c3c69bb8fe3d512ecc4cf759cc79239f7b179b0ffacaa9a75d522b39400f86528385015260608401524660808401523060a084015260a0835260c0830196838810908811176200023e57508590525190206080523060c052600b80546001600160a01b031916331790556112fb9384620007d385396080518461101d015260a051846110e9015260c05184610fe7015260e0518461106c01525183611092015251826105b7015251816105e10152f35b604190634e487b7160e01b6000525260246000fd5b0151935038806200013a565b9190601f198416928d60005284896000209460005b8b89838310620002b2575050501062000297575b50505050811b0188556200014a565b01519060f884600019921b161c191690553880808062000288565b86860151895590970196948501948893500162000274565b8d600052886000208380870160051c8201928b88106200030b575b0160051c019086905b828110620002fe5750506200011e565b60008155018690620002ee565b92508192620002e5565b60228e634e487b7160e01b6000525260246000fd5b90607f16906200010c565b634e487b7160e01b600052604160045260246000fd5b015190503880620000dc565b90869350601f19831691856000528a6000209260005b8c828210620003a757505084116200038e575b505050811b018155620000ee565b015160001983861b60f8161c1916905538808062000380565b8385015186558a979095019493840193016200036d565b90915083600052886000208580850160051c8201928b86106200040a575b918891869594930160051c01915b828110620003fa575050620000c5565b60008155859450889101620003ea565b92508192620003dc565b634e487b7160e01b600052602260045260246000fd5b93607f1693620000ae565b600080fd5b604081019081106001600160401b038211176200033557604052565b80516020919082811015620004f5575090601f8251116200049457808251920151908083106200048557501790565b82600019910360031b1b161790565b90604051809263305a27a960e01b82528060048301528251908160248401526000935b828510620004db575050604492506000838284010152601f80199101168101030190fd5b8481018201518686016044015293810193859350620004b7565b6001600160401b03811162000335576005928354926001938481811c911680156200060f575b838210146200041457601f8111620005d8575b5081601f84116001146200056e575092829391839260009462000562575b50501b916000199060031b1c191617905560ff90565b0151925038806200054c565b919083601f1981168760005284600020946000905b88838310620005bd5750505010620005a3575b505050811b01905560ff90565b015160001960f88460031b161c1916905538808062000596565b85870151885590960195948501948793509081019062000583565b8560005284601f846000209201871c820191601f8601881c015b828110620006025750506200052e565b60008155018590620005f2565b90607f16906200051b565b805160209081811015620006a85750601f8251116200064757808251920151908083106200048557501790565b90604051809263305a27a960e01b82528060048301528251908160248401526000935b8285106200068e575050604492506000838284010152601f80199101168101030190fd5b84810182015186860160440152938101938593506200066a565b906001600160401b0382116200033557600654926001938481811c91168015620007c7575b838210146200041457601f81116200078d575b5081601f841160011462000721575092829391839260009462000715575b50501b916000199060031b1c19161760065560ff90565b015192503880620006fe565b919083601f198116600660005284600020946000905b8883831062000772575050501062000758575b505050811b0160065560ff90565b015160001960f88460031b161c191690553880806200074a565b85870151885590960195948501948793509081019062000737565b600660005284601f84600020920160051c820191601f860160051c015b828110620007ba575050620006e0565b60008155018590620007aa565b90607f1690620006cd56fe6080604081815260048036101561001557600080fd5b600092833560e01c90816306fdde03146109d85750806307546172146109af578063095ea7b31461098557806318160ddd1461096657806323b872dd1461089c578063313ce567146108805780633644e5151461085c578063395093511461080c57806340c10f191461072c57806370a08231146106f55780637ecebe00146106bd57806384b0196e146105a057806392eefe9b1461055057806395d89b4114610466578063a457c2d7146103bf578063a9059cbb1461038e578063d505accf146101d5578063dd62ed3e1461018c578063f77c47911461015f5763fca3b5aa146100ff57600080fd5b3461015b57602036600319011261015b57610118610ae9565b600b546001600160a01b0393919291908416330361014e575050166bffffffffffffffffffffffff60a01b600a541617600a5580f35b516330cd747160e01b8152fd5b8280fd5b50503461018857816003193601126101885760095490516001600160a01b039091168152602090f35b5080fd5b505034610188578060031936011261018857806020926101aa610ae9565b6101b2610b04565b6001600160a01b0391821683526001865283832091168252845220549051908152f35b508290346101885760e0366003190112610188576101f1610ae9565b6101f9610b04565b906044359260643560843560ff8116810361038a578142116103475760018060a01b0390818516928389526007602052898920908154916001830190558a519060208201927f6e71edae12b1b97f4d1f60370fef10105fa2faae0126114a169c64845d6126c98452868d840152858a1660608401528a608084015260a083015260c082015260c0815260e0810181811067ffffffffffffffff821117610334578b525190206102dc916102d4916102ae610fe4565b908c519161190160f01b83526002830152602282015260c43591604260a4359220610f55565b919091610e3b565b16036102f157506102ee939450610d39565b80f35b606490602087519162461bcd60e51b8352820152601e60248201527f45524332305065726d69743a20696e76616c6964207369676e617475726500006044820152fd5b634e487b7160e01b8b526041875260248bfd5b875162461bcd60e51b8152602081850152601d60248201527f45524332305065726d69743a206578706972656420646561646c696e650000006044820152606490fd5b8680fd5b5050346101885780600319360112610188576020906103b86103ae610ae9565b6024359033610bcb565b5160018152f35b5082346104635782600319360112610463576103d9610ae9565b918360243592338152600160205281812060018060a01b0386168252602052205490828210610412576020856103b88585038733610d39565b608490602086519162461bcd60e51b8352820152602560248201527f45524332303a2064656372656173656420616c6c6f77616e63652062656c6f77604482015264207a65726f60d81b6064820152fd5b80fd5b50903461015b578260031936011261015b578051918381549061048882610b1a565b8086529260019280841690811561052557506001146104c9575b6104c586866104b3828b0383610b86565b51918291602083526020830190610aa9565b0390f35b815294507f8a35acfbc15ff81a39ae7d344fd709f28e8600b4aa8c65c6b64bfe7fe36bd19b5b82861061050d575050506104b38260206104c59582010194386104a2565b805460208787018101919091529095019481016104ef565b90506104c59750869350602092506104b394915060ff191682840152151560051b82010194386104a2565b503461015b57602036600319011261015b5761056a610ae9565b600b546001600160a01b0393919291908416330361014e575050166bffffffffffffffffffffffff60a01b600954161760095580f35b50903461015b578260031936011261015b576105db7f000000000000000000000000000000000000000000000000000000000000000061110f565b926106057f000000000000000000000000000000000000000000000000000000000000000061120b565b908251926020928385019585871067ffffffffffffffff8811176106aa57509280610660838896610653998b9996528686528151998a99600f60f81b8b5260e0868c015260e08b0190610aa9565b91898303908a0152610aa9565b924660608801523060808801528460a088015286840360c088015251928381520193925b82811061069357505050500390f35b835185528695509381019392810192600101610684565b634e487b7160e01b845260419052602483fd5b5050346101885760203660031901126101885760209181906001600160a01b036106e5610ae9565b1681526007845220549051908152f35b5050346101885760203660031901126101885760209181906001600160a01b0361071d610ae9565b16815280845220549051908152f35b509134610463578160031936011261046357610746610ae9565b600a5460243592916001600160a01b0391821633036107fc57169182156107b95760208095508161079a7fddf252ad1be2c89b69c2b068fc378daa952ba7f163c4a11628f55a4df523b3ef93600254610ba8565b6002558484528382528584208181540190558551908152a35160018152f35b835162461bcd60e51b8152602081870152601f60248201527f45524332303a206d696e7420746f20746865207a65726f2061646472657373006044820152606490fd5b8451633e34a41b60e21b81528690fd5b5050346101885780600319360112610188576103b860209261085561082f610ae9565b338352600186528483206001600160a01b03821684528652918490205460243590610ba8565b9033610d39565b505034610188578160031936011261018857602090610879610fe4565b9051908152f35b5050346101885781600319360112610188576020905160128152f35b50829034610188576060366003190112610188576108b8610ae9565b6108c0610b04565b91846044359460018060a01b0384168152600160205281812033825260205220549060001982036108fa575b6020866103b8878787610bcb565b8482106109235750918391610918602096956103b895033383610d39565b9193948193506108ec565b606490602087519162461bcd60e51b8352820152601d60248201527f45524332303a20696e73756666696369656e7420616c6c6f77616e63650000006044820152fd5b5050346101885781600319360112610188576020906002549051908152f35b5050346101885780600319360112610188576020906103b86109a5610ae9565b6024359033610d39565b505034610188578160031936011261018857600a5490516001600160a01b039091168152602090f35b8490843461015b578260031936011261015b57826003546109f881610b1a565b80855291600191808316908115610a815750600114610a24575b5050506104b3826104c5940383610b86565b9450600385527fc2575a0e9e593c00f959f8c92f12db2869c3395a3b0502d05e2516446f71f85b5b828610610a69575050506104b38260206104c59582010194610a12565b80546020878701810191909152909501948101610a4c565b6104c59750869350602092506104b394915060ff191682840152151560051b82010194610a12565b919082519283825260005b848110610ad5575050826000602080949584010152601f8019910116010190565b602081830181015184830182015201610ab4565b600435906001600160a01b0382168203610aff57565b600080fd5b602435906001600160a01b0382168203610aff57565b90600182811c92168015610b4a575b6020831014610b3457565b634e487b7160e01b600052602260045260246000fd5b91607f1691610b29565b6040810190811067ffffffffffffffff821117610b7057604052565b634e487b7160e01b600052604160045260246000fd5b90601f8019910116810190811067ffffffffffffffff821117610b7057604052565b91908201809211610bb557565b634e487b7160e01b600052601160045260246000fd5b6001600160a01b03908116918215610ce65716918215610c9557600082815280602052604081205491808310610c4157604082827fddf252ad1be2c89b69c2b068fc378daa952ba7f163c4a11628f55a4df523b3ef958760209652828652038282205586815220818154019055604051908152a3565b60405162461bcd60e51b815260206004820152602660248201527f45524332303a207472616e7366657220616d6f756e7420657863656564732062604482015265616c616e636560d01b6064820152608490fd5b60405162461bcd60e51b815260206004820152602360248201527f45524332303a207472616e7366657220746f20746865207a65726f206164647260448201526265737360e81b6064820152608490fd5b60405162461bcd60e51b815260206004820152602560248201527f45524332303a207472616e736665722066726f6d20746865207a65726f206164604482015264647265737360d81b6064820152608490fd5b6001600160a01b03908116918215610dea5716918215610d9a5760207f8c5be1e5ebec7d5bd14f71427d1e84f3dd0314c0f7b2291e5b200ac8c7c3b925918360005260018252604060002085600052825280604060002055604051908152a3565b60405162461bcd60e51b815260206004820152602260248201527f45524332303a20617070726f766520746f20746865207a65726f206164647265604482015261737360f01b6064820152608490fd5b60405162461bcd60e51b8152602060048201526024808201527f45524332303a20617070726f76652066726f6d20746865207a65726f206164646044820152637265737360e01b6064820152608490fd5b6005811015610f3f5780610e4c5750565b60018103610e995760405162461bcd60e51b815260206004820152601860248201527f45434453413a20696e76616c6964207369676e617475726500000000000000006044820152606490fd5b60028103610ee65760405162461bcd60e51b815260206004820152601f60248201527f45434453413a20696e76616c6964207369676e6174757265206c656e677468006044820152606490fd5b600314610eef57565b60405162461bcd60e51b815260206004820152602260248201527f45434453413a20696e76616c6964207369676e6174757265202773272076616c604482015261756560f01b6064820152608490fd5b634e487b7160e01b600052602160045260246000fd5b9291907f7fffffffffffffffffffffffffffffff5d576e7357a4501ddfe92f46681b20a08311610fd85791608094939160ff602094604051948552168484015260408301526060820152600093849182805260015afa15610fcb5781516001600160a01b03811615610fc5579190565b50600190565b50604051903d90823e3d90fd5b50505050600090600390565b307f00000000000000000000000000000000000000000000000000000000000000006001600160a01b031614806110e6575b1561103f577f000000000000000000000000000000000000000000000000000000000000000090565b60405160208101907f8b73c3c69bb8fe3d512ecc4cf759cc79239f7b179b0ffacaa9a75d522b39400f82527f000000000000000000000000000000000000000000000000000000000000000060408201527f000000000000000000000000000000000000000000000000000000000000000060608201524660808201523060a082015260a0815260c0810181811067ffffffffffffffff821117610b705760405251902090565b507f00000000000000000000000000000000000000000000000000000000000000004614611016565b60ff811461114d5760ff811690601f821161113b576040519161113183610b54565b8252602082015290565b604051632cd44ac360e21b8152600490fd5b5060405160055481600061116083610b1a565b808352926001908181169081156111e9575060011461118a575b5061118792500382610b86565b90565b6005600090815291507f036b6384b5eca791c62761152d0c79bb0604c104a5fb6f4eb0703f3154bb3db05b8483106111ce575061118793505081016020013861117a565b819350908160209254838589010152019101909184926111b5565b90506020925061118794915060ff191682840152151560051b8201013861117a565b60ff811461122d5760ff811690601f821161113b576040519161113183610b54565b5060405160065481600061124083610b1a565b808352926001908181169081156111e95750600114611266575061118792500382610b86565b6006600090815291507ff652222313e28459528d920b65115c16c04f3efc82aaedc97be59f3f377c0d3f5b8483106112aa575061118793505081016020013861117a565b8193509081602092548385890101520191019091849261129156fea2646970667358221220d6206132500470b1591d73965d8ca6cd0e7e74079f5e566f35d6de8e5340853d64736f6c63430008110033",
  "linkReferences": {},
  "deployedLinkReferences": {}
}